{
	"data": {
		"bytecode": {
			"linkReferences": {},
			"object": "6080604052348015600f57600080fd5b5060918061001e6000396000f3fe6080604052348015600f57600080fd5b506004361060285760003560e01c8063483a931014602d575b600080fd5b604760048036036020811015604157600080fd5b50356059565b60408051918252519081900360200190f35b6103e89004610190029056fea165627a7a7230582077e9a745fae5e782bbb2e27af88c62a9a3cae581252b2f3bc8221f3c6c39523b0029",
			"opcodes": "PUSH1 0x80 PUSH1 0x40 MSTORE CALLVALUE DUP1 ISZERO PUSH1 0xF JUMPI PUSH1 0x0 DUP1 REVERT JUMPDEST POP PUSH1 0x91 DUP1 PUSH2 0x1E PUSH1 0x0 CODECOPY PUSH1 0x0 RETURN INVALID PUSH1 0x80 PUSH1 0x40 MSTORE CALLVALUE DUP1 ISZERO PUSH1 0xF JUMPI PUSH1 0x0 DUP1 REVERT JUMPDEST POP PUSH1 0x4 CALLDATASIZE LT PUSH1 0x28 JUMPI PUSH1 0x0 CALLDATALOAD PUSH1 0xE0 SHR DUP1 PUSH4 0x483A9310 EQ PUSH1 0x2D JUMPI JUMPDEST PUSH1 0x0 DUP1 REVERT JUMPDEST PUSH1 0x47 PUSH1 0x4 DUP1 CALLDATASIZE SUB PUSH1 0x20 DUP2 LT ISZERO PUSH1 0x41 JUMPI PUSH1 0x0 DUP1 REVERT JUMPDEST POP CALLDATALOAD PUSH1 0x59 JUMP JUMPDEST PUSH1 0x40 DUP1 MLOAD SWAP2 DUP3 MSTORE MLOAD SWAP1 DUP2 SWAP1 SUB PUSH1 0x20 ADD SWAP1 RETURN JUMPDEST PUSH2 0x3E8 SWAP1 DIV PUSH2 0x190 MUL SWAP1 JUMP INVALID LOG1 PUSH6 0x627A7A723058 KECCAK256 PUSH24 0xE9A745FAE5E782BBB2E27AF88C62A9A3CAE581252B2F3BC8 0x22 0x1f EXTCODECOPY PUSH13 0x39523B00290000000000000000 "
		},
		"gasEstimates": {
			"creation": {
				"codeDepositCost": "29000",
				"executionCost": "81",
				"totalCost": "29081"
			},
			"external": {
				"calculateTax(uint256)": "234"
			}
		},
		"methodIdentifiers": {
			"calculateTax(uint256)": "483a9310"
		}
	},
	"abi": [
		{
			"constant": true,
			"inputs": [
				{
					"name": "_amountIn",
					"type": "uint256"
				}
			],
			"name": "calculateTax",
			"outputs": [
				{
					"name": "taxAmount",
					"type": "uint256"
				}
			],
			"payable": false,
			"stateMutability": "view",
			"type": "function"
		}
	]
}