{
	"data": {
		"bytecode": {
			"linkReferences": {},
			"object": "608060405234801561001057600080fd5b506100276301ffc9a760e01b61005860201b60201c565b61003d6380ac58cd60e01b61005860201b60201c565b61005363780e9d6360e01b61005860201b60201c565b610126565b7fffffffff0000000000000000000000000000000000000000000000000000000080821614156100e957604080517f08c379a000000000000000000000000000000000000000000000000000000000815260206004820152601c60248201527f4552433136353a20696e76616c696420696e7465726661636520696400000000604482015290519081900360640190fd5b7fffffffff00000000000000000000000000000000000000000000000000000000166000908152602081905260409020805460ff19166001179055565b6110cf806101356000396000f3fe608060405234801561001057600080fd5b50600436106100cf5760003560e01c806342842e0e1161008c57806370a082311161006657806370a0823114610262578063a22cb46514610288578063b88d4fde146102b6578063e985e9c51461037c576100cf565b806342842e0e146101f25780634f6ccce7146102285780636352211e14610245576100cf565b806301ffc9a7146100d4578063081812fc1461010f578063095ea7b31461014857806318160ddd1461017657806323b872dd146101905780632f745c59146101c6575b600080fd5b6100fb600480360360208110156100ea57600080fd5b50356001600160e01b0319166103aa565b604080519115158252519081900360200190f35b61012c6004803603602081101561012557600080fd5b50356103c9565b604080516001600160a01b039092168252519081900360200190f35b6101746004803603604081101561015e57600080fd5b506001600160a01b03813516906020013561042e565b005b61017e610545565b60408051918252519081900360200190f35b610174600480360360608110156101a657600080fd5b506001600160a01b0381358116916020810135909116906040013561054c565b61017e600480360360408110156101dc57600080fd5b506001600160a01b0381351690602001356105a4565b6101746004803603606081101561020857600080fd5b506001600160a01b03813581169160208101359091169060400135610626565b61017e6004803603602081101561023e57600080fd5b5035610641565b61012c6004803603602081101561025b57600080fd5b50356106aa565b61017e6004803603602081101561027857600080fd5b50356001600160a01b0316610707565b6101746004803603604081101561029e57600080fd5b506001600160a01b0381351690602001351515610772565b610174600480360360808110156102cc57600080fd5b6001600160a01b0382358116926020810135909116916040820135919081019060808101606082013564010000000081111561030757600080fd5b82018360208201111561031957600080fd5b8035906020019184600183028401116401000000008311171561033b57600080fd5b91908080601f016020809104026020016040519081016040528093929190818152602001838380828437600092019190915250929550610841945050505050565b6100fb6004803603604081101561039257600080fd5b506001600160a01b038135811691602001351661089c565b6001600160e01b03191660009081526020819052604090205460ff1690565b60006103d4826108ca565b61041257604051600160e51b62461bcd02815260040180806020018281038252602c815260200180610fd1602c913960400191505060405180910390fd5b506000908152600260205260409020546001600160a01b031690565b6000610439826106aa565b9050806001600160a01b0316836001600160a01b0316141561048f57604051600160e51b62461bcd0281526004018080602001828103825260218152602001806110266021913960400191505060405180910390fd5b336001600160a01b03821614806104ab57506104ab813361089c565b6104e957604051600160e51b62461bcd028152600401808060200182810382526038815260200180610f466038913960400191505060405180910390fd5b60008281526002602052604080822080546001600160a01b0319166001600160a01b0387811691821790925591518593918516917f8c5be1e5ebec7d5bd14f71427d1e84f3dd0314c0f7b2291e5b200ac8c7c3b92591a4505050565b6007545b90565b61055633826108e7565b61059457604051600160e51b62461bcd0281526004018080602001828103825260318152602001806110476031913960400191505060405180910390fd5b61059f83838361098e565b505050565b60006105af83610707565b82106105ef57604051600160e51b62461bcd02815260040180806020018281038252602b815260200180610e99602b913960400191505060405180910390fd5b6001600160a01b038316600090815260056020526040902080548390811061061357fe5b9060005260206000200154905092915050565b61059f83838360405180602001604052806000815250610841565b600061064b610545565b821061068b57604051600160e51b62461bcd02815260040180806020018281038252602c815260200180611078602c913960400191505060405180910390fd5b6007828154811061069857fe5b90600052602060002001549050919050565b6000818152600160205260408120546001600160a01b03168061070157604051600160e51b62461bcd028152600401808060200182810382526029815260200180610fa86029913960400191505060405180910390fd5b92915050565b60006001600160a01b03821661075157604051600160e51b62461bcd02815260040180806020018281038252602a815260200180610f7e602a913960400191505060405180910390fd5b6001600160a01b0382166000908152600360205260409020610701906109ad565b6001600160a01b0382163314156107d35760408051600160e51b62461bcd02815260206004820152601960248201527f4552433732313a20617070726f766520746f2063616c6c657200000000000000604482015290519081900360640190fd5b3360008181526004602090815260408083206001600160a01b03871680855290835292819020805460ff1916861515908117909155815190815290519293927f17307eab39ab6107e8899845ad3d59bd9653f200f220920489ca2b5937696c31929181900390910190a35050565b61084c84848461054c565b610858848484846109b1565b61089657604051600160e51b62461bcd028152600401808060200182810382526032815260200180610ec46032913960400191505060405180910390fd5b50505050565b6001600160a01b03918216600090815260046020908152604080832093909416825291909152205460ff1690565b6000908152600160205260409020546001600160a01b0316151590565b60006108f2826108ca565b61093057604051600160e51b62461bcd02815260040180806020018281038252602c815260200180610f1a602c913960400191505060405180910390fd5b600061093b836106aa565b9050806001600160a01b0316846001600160a01b031614806109765750836001600160a01b031661096b846103c9565b6001600160a01b0316145b806109865750610986818561089c565b949350505050565b610999838383610aea565b6109a38382610c34565b61059f8282610d29565b5490565b60006109c5846001600160a01b0316610d67565b6109d157506001610986565b604051600160e11b630a85bd0102815233600482018181526001600160a01b03888116602485015260448401879052608060648501908152865160848601528651600095928a169463150b7a029490938c938b938b939260a4019060208501908083838e5b83811015610a4e578181015183820152602001610a36565b50505050905090810190601f168015610a7b5780820380516001836020036101000a031916815260200191505b5095505050505050602060405180830381600087803b158015610a9d57600080fd5b505af1158015610ab1573d6000803e3d6000fd5b505050506040513d6020811015610ac757600080fd5b50516001600160e01b031916600160e11b630a85bd010214915050949350505050565b826001600160a01b0316610afd826106aa565b6001600160a01b031614610b4557604051600160e51b62461bcd028152600401808060200182810382526029815260200180610ffd6029913960400191505060405180910390fd5b6001600160a01b038216610b8d57604051600160e51b62461bcd028152600401808060200182810382526024815260200180610ef66024913960400191505060405180910390fd5b610b9681610d9e565b6001600160a01b0383166000908152600360205260409020610bb790610ddb565b6001600160a01b0382166000908152600360205260409020610bd890610df2565b60008181526001602052604080822080546001600160a01b0319166001600160a01b0386811691821790925591518493918716917fddf252ad1be2c89b69c2b068fc378daa952ba7f163c4a11628f55a4df523b3ef91a4505050565b6001600160a01b038216600090815260056020526040812054610c5e90600163ffffffff610dfb16565b600083815260066020526040902054909150808214610cf9576001600160a01b0384166000908152600560205260408120805484908110610c9b57fe5b906000526020600020015490508060056000876001600160a01b03166001600160a01b031681526020019081526020016000208381548110610cd957fe5b600091825260208083209091019290925591825260069052604090208190555b6001600160a01b0384166000908152600560205260409020805490610d22906000198301610e5b565b5050505050565b6001600160a01b0390911660009081526005602081815260408084208054868652600684529185208290559282526001810183559183529091200155565b6000813f7fc5d2460186f7233c927e7db2dcc703c0e500b653ca82273b7bfad8045d85a47081158015906109865750141592915050565b6000818152600260205260409020546001600160a01b031615610dd857600081815260026020526040902080546001600160a01b03191690555b50565b8054610dee90600163ffffffff610dfb16565b9055565b80546001019055565b600082821115610e555760408051600160e51b62461bcd02815260206004820152601e60248201527f536166654d6174683a207375627472616374696f6e206f766572666c6f770000604482015290519081900360640190fd5b50900390565b81548183558181111561059f5760008381526020902061059f91810190830161054991905b80821115610e945760008155600101610e80565b509056fe455243373231456e756d657261626c653a206f776e657220696e646578206f7574206f6620626f756e64734552433732313a207472616e7366657220746f206e6f6e20455243373231526563656976657220696d706c656d656e7465724552433732313a207472616e7366657220746f20746865207a65726f20616464726573734552433732313a206f70657261746f7220717565727920666f72206e6f6e6578697374656e7420746f6b656e4552433732313a20617070726f76652063616c6c6572206973206e6f74206f776e6572206e6f7220617070726f76656420666f7220616c6c4552433732313a2062616c616e636520717565727920666f7220746865207a65726f20616464726573734552433732313a206f776e657220717565727920666f72206e6f6e6578697374656e7420746f6b656e4552433732313a20617070726f76656420717565727920666f72206e6f6e6578697374656e7420746f6b656e4552433732313a207472616e73666572206f6620746f6b656e2074686174206973206e6f74206f776e4552433732313a20617070726f76616c20746f2063757272656e74206f776e65724552433732313a207472616e736665722063616c6c6572206973206e6f74206f776e6572206e6f7220617070726f766564455243373231456e756d657261626c653a20676c6f62616c20696e646578206f7574206f6620626f756e6473a165627a7a72305820f015b3644aaa113499c1aa050eca76fffa3906e2902507ed698e5425c47d6c140029",
			"opcodes": "PUSH1 0x80 PUSH1 0x40 MSTORE CALLVALUE DUP1 ISZERO PUSH2 0x10 JUMPI PUSH1 0x0 DUP1 REVERT JUMPDEST POP PUSH2 0x27 PUSH4 0x1FFC9A7 PUSH1 0xE0 SHL PUSH2 0x58 PUSH1 0x20 SHL PUSH1 0x20 SHR JUMP JUMPDEST PUSH2 0x3D PUSH4 0x80AC58CD PUSH1 0xE0 SHL PUSH2 0x58 PUSH1 0x20 SHL PUSH1 0x20 SHR JUMP JUMPDEST PUSH2 0x53 PUSH4 0x780E9D63 PUSH1 0xE0 SHL PUSH2 0x58 PUSH1 0x20 SHL PUSH1 0x20 SHR JUMP JUMPDEST PUSH2 0x126 JUMP JUMPDEST PUSH32 0xFFFFFFFF00000000000000000000000000000000000000000000000000000000 DUP1 DUP3 AND EQ ISZERO PUSH2 0xE9 JUMPI PUSH1 0x40 DUP1 MLOAD PUSH32 0x8C379A000000000000000000000000000000000000000000000000000000000 DUP2 MSTORE PUSH1 0x20 PUSH1 0x4 DUP3 ADD MSTORE PUSH1 0x1C PUSH1 0x24 DUP3 ADD MSTORE PUSH32 0x4552433136353A20696E76616C696420696E7465726661636520696400000000 PUSH1 0x44 DUP3 ADD MSTORE SWAP1 MLOAD SWAP1 DUP2 SWAP1 SUB PUSH1 0x64 ADD SWAP1 REVERT JUMPDEST PUSH32 0xFFFFFFFF00000000000000000000000000000000000000000000000000000000 AND PUSH1 0x0 SWAP1 DUP2 MSTORE PUSH1 0x20 DUP2 SWAP1 MSTORE PUSH1 0x40 SWAP1 KECCAK256 DUP1 SLOAD PUSH1 0xFF NOT AND PUSH1 0x1 OR SWAP1 SSTORE JUMP JUMPDEST PUSH2 0x10CF DUP1 PUSH2 0x135 PUSH1 0x0 CODECOPY PUSH1 0x0 RETURN INVALID PUSH1 0x80 PUSH1 0x40 MSTORE CALLVALUE DUP1 ISZERO PUSH2 0x10 JUMPI PUSH1 0x0 DUP1 REVERT JUMPDEST POP PUSH1 0x4 CALLDATASIZE LT PUSH2 0xCF JUMPI PUSH1 0x0 CALLDATALOAD PUSH1 0xE0 SHR DUP1 PUSH4 0x42842E0E GT PUSH2 0x8C JUMPI DUP1 PUSH4 0x70A08231 GT PUSH2 0x66 JUMPI DUP1 PUSH4 0x70A08231 EQ PUSH2 0x262 JUMPI DUP1 PUSH4 0xA22CB465 EQ PUSH2 0x288 JUMPI DUP1 PUSH4 0xB88D4FDE EQ PUSH2 0x2B6 JUMPI DUP1 PUSH4 0xE985E9C5 EQ PUSH2 0x37C JUMPI PUSH2 0xCF JUMP JUMPDEST DUP1 PUSH4 0x42842E0E EQ PUSH2 0x1F2 JUMPI DUP1 PUSH4 0x4F6CCCE7 EQ PUSH2 0x228 JUMPI DUP1 PUSH4 0x6352211E EQ PUSH2 0x245 JUMPI PUSH2 0xCF JUMP JUMPDEST DUP1 PUSH4 0x1FFC9A7 EQ PUSH2 0xD4 JUMPI DUP1 PUSH4 0x81812FC EQ PUSH2 0x10F JUMPI DUP1 PUSH4 0x95EA7B3 EQ PUSH2 0x148 JUMPI DUP1 PUSH4 0x18160DDD EQ PUSH2 0x176 JUMPI DUP1 PUSH4 0x23B872DD EQ PUSH2 0x190 JUMPI DUP1 PUSH4 0x2F745C59 EQ PUSH2 0x1C6 JUMPI JUMPDEST PUSH1 0x0 DUP1 REVERT JUMPDEST PUSH2 0xFB PUSH1 0x4 DUP1 CALLDATASIZE SUB PUSH1 0x20 DUP2 LT ISZERO PUSH2 0xEA JUMPI PUSH1 0x0 DUP1 REVERT JUMPDEST POP CALLDATALOAD PUSH1 0x1 PUSH1 0x1 PUSH1 0xE0 SHL SUB NOT AND PUSH2 0x3AA JUMP JUMPDEST PUSH1 0x40 DUP1 MLOAD SWAP2 ISZERO ISZERO DUP3 MSTORE MLOAD SWAP1 DUP2 SWAP1 SUB PUSH1 0x20 ADD SWAP1 RETURN JUMPDEST PUSH2 0x12C PUSH1 0x4 DUP1 CALLDATASIZE SUB PUSH1 0x20 DUP2 LT ISZERO PUSH2 0x125 JUMPI PUSH1 0x0 DUP1 REVERT JUMPDEST POP CALLDATALOAD PUSH2 0x3C9 JUMP JUMPDEST PUSH1 0x40 DUP1 MLOAD PUSH1 0x1 PUSH1 0x1 PUSH1 0xA0 SHL SUB SWAP1 SWAP3 AND DUP3 MSTORE MLOAD SWAP1 DUP2 SWAP1 SUB PUSH1 0x20 ADD SWAP1 RETURN JUMPDEST PUSH2 0x174 PUSH1 0x4 DUP1 CALLDATASIZE SUB PUSH1 0x40 DUP2 LT ISZERO PUSH2 0x15E JUMPI PUSH1 0x0 DUP1 REVERT JUMPDEST POP PUSH1 0x1 PUSH1 0x1 PUSH1 0xA0 SHL SUB DUP2 CALLDATALOAD AND SWAP1 PUSH1 0x20 ADD CALLDATALOAD PUSH2 0x42E JUMP JUMPDEST STOP JUMPDEST PUSH2 0x17E PUSH2 0x545 JUMP JUMPDEST PUSH1 0x40 DUP1 MLOAD SWAP2 DUP3 MSTORE MLOAD SWAP1 DUP2 SWAP1 SUB PUSH1 0x20 ADD SWAP1 RETURN JUMPDEST PUSH2 0x174 PUSH1 0x4 DUP1 CALLDATASIZE SUB PUSH1 0x60 DUP2 LT ISZERO PUSH2 0x1A6 JUMPI PUSH1 0x0 DUP1 REVERT JUMPDEST POP PUSH1 0x1 PUSH1 0x1 PUSH1 0xA0 SHL SUB DUP2 CALLDATALOAD DUP2 AND SWAP2 PUSH1 0x20 DUP2 ADD CALLDATALOAD SWAP1 SWAP2 AND SWAP1 PUSH1 0x40 ADD CALLDATALOAD PUSH2 0x54C JUMP JUMPDEST PUSH2 0x17E PUSH1 0x4 DUP1 CALLDATASIZE SUB PUSH1 0x40 DUP2 LT ISZERO PUSH2 0x1DC JUMPI PUSH1 0x0 DUP1 REVERT JUMPDEST POP PUSH1 0x1 PUSH1 0x1 PUSH1 0xA0 SHL SUB DUP2 CALLDATALOAD AND SWAP1 PUSH1 0x20 ADD CALLDATALOAD PUSH2 0x5A4 JUMP JUMPDEST PUSH2 0x174 PUSH1 0x4 DUP1 CALLDATASIZE SUB PUSH1 0x60 DUP2 LT ISZERO PUSH2 0x208 JUMPI PUSH1 0x0 DUP1 REVERT JUMPDEST POP PUSH1 0x1 PUSH1 0x1 PUSH1 0xA0 SHL SUB DUP2 CALLDATALOAD DUP2 AND SWAP2 PUSH1 0x20 DUP2 ADD CALLDATALOAD SWAP1 SWAP2 AND SWAP1 PUSH1 0x40 ADD CALLDATALOAD PUSH2 0x626 JUMP JUMPDEST PUSH2 0x17E PUSH1 0x4 DUP1 CALLDATASIZE SUB PUSH1 0x20 DUP2 LT ISZERO PUSH2 0x23E JUMPI PUSH1 0x0 DUP1 REVERT JUMPDEST POP CALLDATALOAD PUSH2 0x641 JUMP JUMPDEST PUSH2 0x12C PUSH1 0x4 DUP1 CALLDATASIZE SUB PUSH1 0x20 DUP2 LT ISZERO PUSH2 0x25B JUMPI PUSH1 0x0 DUP1 REVERT JUMPDEST POP CALLDATALOAD PUSH2 0x6AA JUMP JUMPDEST PUSH2 0x17E PUSH1 0x4 DUP1 CALLDATASIZE SUB PUSH1 0x20 DUP2 LT ISZERO PUSH2 0x278 JUMPI PUSH1 0x0 DUP1 REVERT JUMPDEST POP CALLDATALOAD PUSH1 0x1 PUSH1 0x1 PUSH1 0xA0 SHL SUB AND PUSH2 0x707 JUMP JUMPDEST PUSH2 0x174 PUSH1 0x4 DUP1 CALLDATASIZE SUB PUSH1 0x40 DUP2 LT ISZERO PUSH2 0x29E JUMPI PUSH1 0x0 DUP1 REVERT JUMPDEST POP PUSH1 0x1 PUSH1 0x1 PUSH1 0xA0 SHL SUB DUP2 CALLDATALOAD AND SWAP1 PUSH1 0x20 ADD CALLDATALOAD ISZERO ISZERO PUSH2 0x772 JUMP JUMPDEST PUSH2 0x174 PUSH1 0x4 DUP1 CALLDATASIZE SUB PUSH1 0x80 DUP2 LT ISZERO PUSH2 0x2CC JUMPI PUSH1 0x0 DUP1 REVERT JUMPDEST PUSH1 0x1 PUSH1 0x1 PUSH1 0xA0 SHL SUB DUP3 CALLDATALOAD DUP2 AND SWAP3 PUSH1 0x20 DUP2 ADD CALLDATALOAD SWAP1 SWAP2 AND SWAP2 PUSH1 0x40 DUP3 ADD CALLDATALOAD SWAP2 SWAP1 DUP2 ADD SWAP1 PUSH1 0x80 DUP2 ADD PUSH1 0x60 DUP3 ADD CALLDATALOAD PUSH5 0x100000000 DUP2 GT ISZERO PUSH2 0x307 JUMPI PUSH1 0x0 DUP1 REVERT JUMPDEST DUP3 ADD DUP4 PUSH1 0x20 DUP3 ADD GT ISZERO PUSH2 0x319 JUMPI PUSH1 0x0 DUP1 REVERT JUMPDEST DUP1 CALLDATALOAD SWAP1 PUSH1 0x20 ADD SWAP2 DUP5 PUSH1 0x1 DUP4 MUL DUP5 ADD GT PUSH5 0x100000000 DUP4 GT OR ISZERO PUSH2 0x33B JUMPI PUSH1 0x0 DUP1 REVERT JUMPDEST SWAP2 SWAP1 DUP1 DUP1 PUSH1 0x1F ADD PUSH1 0x20 DUP1 SWAP2 DIV MUL PUSH1 0x20 ADD PUSH1 0x40 MLOAD SWAP1 DUP2 ADD PUSH1 0x40 MSTORE DUP1 SWAP4 SWAP3 SWAP2 SWAP1 DUP2 DUP2 MSTORE PUSH1 0x20 ADD DUP4 DUP4 DUP1 DUP3 DUP5 CALLDATACOPY PUSH1 0x0 SWAP3 ADD SWAP2 SWAP1 SWAP2 MSTORE POP SWAP3 SWAP6 POP PUSH2 0x841 SWAP5 POP POP POP POP POP JUMP JUMPDEST PUSH2 0xFB PUSH1 0x4 DUP1 CALLDATASIZE SUB PUSH1 0x40 DUP2 LT ISZERO PUSH2 0x392 JUMPI PUSH1 0x0 DUP1 REVERT JUMPDEST POP PUSH1 0x1 PUSH1 0x1 PUSH1 0xA0 SHL SUB DUP2 CALLDATALOAD DUP2 AND SWAP2 PUSH1 0x20 ADD CALLDATALOAD AND PUSH2 0x89C JUMP JUMPDEST PUSH1 0x1 PUSH1 0x1 PUSH1 0xE0 SHL SUB NOT AND PUSH1 0x0 SWAP1 DUP2 MSTORE PUSH1 0x20 DUP2 SWAP1 MSTORE PUSH1 0x40 SWAP1 KECCAK256 SLOAD PUSH1 0xFF AND SWAP1 JUMP JUMPDEST PUSH1 0x0 PUSH2 0x3D4 DUP3 PUSH2 0x8CA JUMP JUMPDEST PUSH2 0x412 JUMPI PUSH1 0x40 MLOAD PUSH1 0x1 PUSH1 0xE5 SHL PUSH3 0x461BCD MUL DUP2 MSTORE PUSH1 0x4 ADD DUP1 DUP1 PUSH1 0x20 ADD DUP3 DUP2 SUB DUP3 MSTORE PUSH1 0x2C DUP2 MSTORE PUSH1 0x20 ADD DUP1 PUSH2 0xFD1 PUSH1 0x2C SWAP2 CODECOPY PUSH1 0x40 ADD SWAP2 POP POP PUSH1 0x40 MLOAD DUP1 SWAP2 SUB SWAP1 REVERT JUMPDEST POP PUSH1 0x0 SWAP1 DUP2 MSTORE PUSH1 0x2 PUSH1 0x20 MSTORE PUSH1 0x40 SWAP1 KECCAK256 SLOAD PUSH1 0x1 PUSH1 0x1 PUSH1 0xA0 SHL SUB AND SWAP1 JUMP JUMPDEST PUSH1 0x0 PUSH2 0x439 DUP3 PUSH2 0x6AA JUMP JUMPDEST SWAP1 POP DUP1 PUSH1 0x1 PUSH1 0x1 PUSH1 0xA0 SHL SUB AND DUP4 PUSH1 0x1 PUSH1 0x1 PUSH1 0xA0 SHL SUB AND EQ ISZERO PUSH2 0x48F JUMPI PUSH1 0x40 MLOAD PUSH1 0x1 PUSH1 0xE5 SHL PUSH3 0x461BCD MUL DUP2 MSTORE PUSH1 0x4 ADD DUP1 DUP1 PUSH1 0x20 ADD DUP3 DUP2 SUB DUP3 MSTORE PUSH1 0x21 DUP2 MSTORE PUSH1 0x20 ADD DUP1 PUSH2 0x1026 PUSH1 0x21 SWAP2 CODECOPY PUSH1 0x40 ADD SWAP2 POP POP PUSH1 0x40 MLOAD DUP1 SWAP2 SUB SWAP1 REVERT JUMPDEST CALLER PUSH1 0x1 PUSH1 0x1 PUSH1 0xA0 SHL SUB DUP3 AND EQ DUP1 PUSH2 0x4AB JUMPI POP PUSH2 0x4AB DUP2 CALLER PUSH2 0x89C JUMP JUMPDEST PUSH2 0x4E9 JUMPI PUSH1 0x40 MLOAD PUSH1 0x1 PUSH1 0xE5 SHL PUSH3 0x461BCD MUL DUP2 MSTORE PUSH1 0x4 ADD DUP1 DUP1 PUSH1 0x20 ADD DUP3 DUP2 SUB DUP3 MSTORE PUSH1 0x38 DUP2 MSTORE PUSH1 0x20 ADD DUP1 PUSH2 0xF46 PUSH1 0x38 SWAP2 CODECOPY PUSH1 0x40 ADD SWAP2 POP POP PUSH1 0x40 MLOAD DUP1 SWAP2 SUB SWAP1 REVERT JUMPDEST PUSH1 0x0 DUP3 DUP2 MSTORE PUSH1 0x2 PUSH1 0x20 MSTORE PUSH1 0x40 DUP1 DUP3 KECCAK256 DUP1 SLOAD PUSH1 0x1 PUSH1 0x1 PUSH1 0xA0 SHL SUB NOT AND PUSH1 0x1 PUSH1 0x1 PUSH1 0xA0 SHL SUB DUP8 DUP2 AND SWAP2 DUP3 OR SWAP1 SWAP3 SSTORE SWAP2 MLOAD DUP6 SWAP4 SWAP2 DUP6 AND SWAP2 PUSH32 0x8C5BE1E5EBEC7D5BD14F71427D1E84F3DD0314C0F7B2291E5B200AC8C7C3B925 SWAP2 LOG4 POP POP POP JUMP JUMPDEST PUSH1 0x7 SLOAD JUMPDEST SWAP1 JUMP JUMPDEST PUSH2 0x556 CALLER DUP3 PUSH2 0x8E7 JUMP JUMPDEST PUSH2 0x594 JUMPI PUSH1 0x40 MLOAD PUSH1 0x1 PUSH1 0xE5 SHL PUSH3 0x461BCD MUL DUP2 MSTORE PUSH1 0x4 ADD DUP1 DUP1 PUSH1 0x20 ADD DUP3 DUP2 SUB DUP3 MSTORE PUSH1 0x31 DUP2 MSTORE PUSH1 0x20 ADD DUP1 PUSH2 0x1047 PUSH1 0x31 SWAP2 CODECOPY PUSH1 0x40 ADD SWAP2 POP POP PUSH1 0x40 MLOAD DUP1 SWAP2 SUB SWAP1 REVERT JUMPDEST PUSH2 0x59F DUP4 DUP4 DUP4 PUSH2 0x98E JUMP JUMPDEST POP POP POP JUMP JUMPDEST PUSH1 0x0 PUSH2 0x5AF DUP4 PUSH2 0x707 JUMP JUMPDEST DUP3 LT PUSH2 0x5EF JUMPI PUSH1 0x40 MLOAD PUSH1 0x1 PUSH1 0xE5 SHL PUSH3 0x461BCD MUL DUP2 MSTORE PUSH1 0x4 ADD DUP1 DUP1 PUSH1 0x20 ADD DUP3 DUP2 SUB DUP3 MSTORE PUSH1 0x2B DUP2 MSTORE PUSH1 0x20 ADD DUP1 PUSH2 0xE99 PUSH1 0x2B SWAP2 CODECOPY PUSH1 0x40 ADD SWAP2 POP POP PUSH1 0x40 MLOAD DUP1 SWAP2 SUB SWAP1 REVERT JUMPDEST PUSH1 0x1 PUSH1 0x1 PUSH1 0xA0 SHL SUB DUP4 AND PUSH1 0x0 SWAP1 DUP2 MSTORE PUSH1 0x5 PUSH1 0x20 MSTORE PUSH1 0x40 SWAP1 KECCAK256 DUP1 SLOAD DUP4 SWAP1 DUP2 LT PUSH2 0x613 JUMPI INVALID JUMPDEST SWAP1 PUSH1 0x0 MSTORE PUSH1 0x20 PUSH1 0x0 KECCAK256 ADD SLOAD SWAP1 POP SWAP3 SWAP2 POP POP JUMP JUMPDEST PUSH2 0x59F DUP4 DUP4 DUP4 PUSH1 0x40 MLOAD DUP1 PUSH1 0x20 ADD PUSH1 0x40 MSTORE DUP1 PUSH1 0x0 DUP2 MSTORE POP PUSH2 0x841 JUMP JUMPDEST PUSH1 0x0 PUSH2 0x64B PUSH2 0x545 JUMP JUMPDEST DUP3 LT PUSH2 0x68B JUMPI PUSH1 0x40 MLOAD PUSH1 0x1 PUSH1 0xE5 SHL PUSH3 0x461BCD MUL DUP2 MSTORE PUSH1 0x4 ADD DUP1 DUP1 PUSH1 0x20 ADD DUP3 DUP2 SUB DUP3 MSTORE PUSH1 0x2C DUP2 MSTORE PUSH1 0x20 ADD DUP1 PUSH2 0x1078 PUSH1 0x2C SWAP2 CODECOPY PUSH1 0x40 ADD SWAP2 POP POP PUSH1 0x40 MLOAD DUP1 SWAP2 SUB SWAP1 REVERT JUMPDEST PUSH1 0x7 DUP3 DUP2 SLOAD DUP2 LT PUSH2 0x698 JUMPI INVALID JUMPDEST SWAP1 PUSH1 0x0 MSTORE PUSH1 0x20 PUSH1 0x0 KECCAK256 ADD SLOAD SWAP1 POP SWAP2 SWAP1 POP JUMP JUMPDEST PUSH1 0x0 DUP2 DUP2 MSTORE PUSH1 0x1 PUSH1 0x20 MSTORE PUSH1 0x40 DUP2 KECCAK256 SLOAD PUSH1 0x1 PUSH1 0x1 PUSH1 0xA0 SHL SUB AND DUP1 PUSH2 0x701 JUMPI PUSH1 0x40 MLOAD PUSH1 0x1 PUSH1 0xE5 SHL PUSH3 0x461BCD MUL DUP2 MSTORE PUSH1 0x4 ADD DUP1 DUP1 PUSH1 0x20 ADD DUP3 DUP2 SUB DUP3 MSTORE PUSH1 0x29 DUP2 MSTORE PUSH1 0x20 ADD DUP1 PUSH2 0xFA8 PUSH1 0x29 SWAP2 CODECOPY PUSH1 0x40 ADD SWAP2 POP POP PUSH1 0x40 MLOAD DUP1 SWAP2 SUB SWAP1 REVERT JUMPDEST SWAP3 SWAP2 POP POP JUMP JUMPDEST PUSH1 0x0 PUSH1 0x1 PUSH1 0x1 PUSH1 0xA0 SHL SUB DUP3 AND PUSH2 0x751 JUMPI PUSH1 0x40 MLOAD PUSH1 0x1 PUSH1 0xE5 SHL PUSH3 0x461BCD MUL DUP2 MSTORE PUSH1 0x4 ADD DUP1 DUP1 PUSH1 0x20 ADD DUP3 DUP2 SUB DUP3 MSTORE PUSH1 0x2A DUP2 MSTORE PUSH1 0x20 ADD DUP1 PUSH2 0xF7E PUSH1 0x2A SWAP2 CODECOPY PUSH1 0x40 ADD SWAP2 POP POP PUSH1 0x40 MLOAD DUP1 SWAP2 SUB SWAP1 REVERT JUMPDEST PUSH1 0x1 PUSH1 0x1 PUSH1 0xA0 SHL SUB DUP3 AND PUSH1 0x0 SWAP1 DUP2 MSTORE PUSH1 0x3 PUSH1 0x20 MSTORE PUSH1 0x40 SWAP1 KECCAK256 PUSH2 0x701 SWAP1 PUSH2 0x9AD JUMP JUMPDEST PUSH1 0x1 PUSH1 0x1 PUSH1 0xA0 SHL SUB DUP3 AND CALLER EQ ISZERO PUSH2 0x7D3 JUMPI PUSH1 0x40 DUP1 MLOAD PUSH1 0x1 PUSH1 0xE5 SHL PUSH3 0x461BCD MUL DUP2 MSTORE PUSH1 0x20 PUSH1 0x4 DUP3 ADD MSTORE PUSH1 0x19 PUSH1 0x24 DUP3 ADD MSTORE PUSH32 0x4552433732313A20617070726F766520746F2063616C6C657200000000000000 PUSH1 0x44 DUP3 ADD MSTORE SWAP1 MLOAD SWAP1 DUP2 SWAP1 SUB PUSH1 0x64 ADD SWAP1 REVERT JUMPDEST CALLER PUSH1 0x0 DUP2 DUP2 MSTORE PUSH1 0x4 PUSH1 0x20 SWAP1 DUP2 MSTORE PUSH1 0x40 DUP1 DUP4 KECCAK256 PUSH1 0x1 PUSH1 0x1 PUSH1 0xA0 SHL SUB DUP8 AND DUP1 DUP6 MSTORE SWAP1 DUP4 MSTORE SWAP3 DUP2 SWAP1 KECCAK256 DUP1 SLOAD PUSH1 0xFF NOT AND DUP7 ISZERO ISZERO SWAP1 DUP2 OR SWAP1 SWAP2 SSTORE DUP2 MLOAD SWAP1 DUP2 MSTORE SWAP1 MLOAD SWAP3 SWAP4 SWAP3 PUSH32 0x17307EAB39AB6107E8899845AD3D59BD9653F200F220920489CA2B5937696C31 SWAP3 SWAP2 DUP2 SWAP1 SUB SWAP1 SWAP2 ADD SWAP1 LOG3 POP POP JUMP JUMPDEST PUSH2 0x84C DUP5 DUP5 DUP5 PUSH2 0x54C JUMP JUMPDEST PUSH2 0x858 DUP5 DUP5 DUP5 DUP5 PUSH2 0x9B1 JUMP JUMPDEST PUSH2 0x896 JUMPI PUSH1 0x40 MLOAD PUSH1 0x1 PUSH1 0xE5 SHL PUSH3 0x461BCD MUL DUP2 MSTORE PUSH1 0x4 ADD DUP1 DUP1 PUSH1 0x20 ADD DUP3 DUP2 SUB DUP3 MSTORE PUSH1 0x32 DUP2 MSTORE PUSH1 0x20 ADD DUP1 PUSH2 0xEC4 PUSH1 0x32 SWAP2 CODECOPY PUSH1 0x40 ADD SWAP2 POP POP PUSH1 0x40 MLOAD DUP1 SWAP2 SUB SWAP1 REVERT JUMPDEST POP POP POP POP JUMP JUMPDEST PUSH1 0x1 PUSH1 0x1 PUSH1 0xA0 SHL SUB SWAP2 DUP3 AND PUSH1 0x0 SWAP1 DUP2 MSTORE PUSH1 0x4 PUSH1 0x20 SWAP1 DUP2 MSTORE PUSH1 0x40 DUP1 DUP4 KECCAK256 SWAP4 SWAP1 SWAP5 AND DUP3 MSTORE SWAP2 SWAP1 SWAP2 MSTORE KECCAK256 SLOAD PUSH1 0xFF AND SWAP1 JUMP JUMPDEST PUSH1 0x0 SWAP1 DUP2 MSTORE PUSH1 0x1 PUSH1 0x20 MSTORE PUSH1 0x40 SWAP1 KECCAK256 SLOAD PUSH1 0x1 PUSH1 0x1 PUSH1 0xA0 SHL SUB AND ISZERO ISZERO SWAP1 JUMP JUMPDEST PUSH1 0x0 PUSH2 0x8F2 DUP3 PUSH2 0x8CA JUMP JUMPDEST PUSH2 0x930 JUMPI PUSH1 0x40 MLOAD PUSH1 0x1 PUSH1 0xE5 SHL PUSH3 0x461BCD MUL DUP2 MSTORE PUSH1 0x4 ADD DUP1 DUP1 PUSH1 0x20 ADD DUP3 DUP2 SUB DUP3 MSTORE PUSH1 0x2C DUP2 MSTORE PUSH1 0x20 ADD DUP1 PUSH2 0xF1A PUSH1 0x2C SWAP2 CODECOPY PUSH1 0x40 ADD SWAP2 POP POP PUSH1 0x40 MLOAD DUP1 SWAP2 SUB SWAP1 REVERT JUMPDEST PUSH1 0x0 PUSH2 0x93B DUP4 PUSH2 0x6AA JUMP JUMPDEST SWAP1 POP DUP1 PUSH1 0x1 PUSH1 0x1 PUSH1 0xA0 SHL SUB AND DUP5 PUSH1 0x1 PUSH1 0x1 PUSH1 0xA0 SHL SUB AND EQ DUP1 PUSH2 0x976 JUMPI POP DUP4 PUSH1 0x1 PUSH1 0x1 PUSH1 0xA0 SHL SUB AND PUSH2 0x96B DUP5 PUSH2 0x3C9 JUMP JUMPDEST PUSH1 0x1 PUSH1 0x1 PUSH1 0xA0 SHL SUB AND EQ JUMPDEST DUP1 PUSH2 0x986 JUMPI POP PUSH2 0x986 DUP2 DUP6 PUSH2 0x89C JUMP JUMPDEST SWAP5 SWAP4 POP POP POP POP JUMP JUMPDEST PUSH2 0x999 DUP4 DUP4 DUP4 PUSH2 0xAEA JUMP JUMPDEST PUSH2 0x9A3 DUP4 DUP3 PUSH2 0xC34 JUMP JUMPDEST PUSH2 0x59F DUP3 DUP3 PUSH2 0xD29 JUMP JUMPDEST SLOAD SWAP1 JUMP JUMPDEST PUSH1 0x0 PUSH2 0x9C5 DUP5 PUSH1 0x1 PUSH1 0x1 PUSH1 0xA0 SHL SUB AND PUSH2 0xD67 JUMP JUMPDEST PUSH2 0x9D1 JUMPI POP PUSH1 0x1 PUSH2 0x986 JUMP JUMPDEST PUSH1 0x40 MLOAD PUSH1 0x1 PUSH1 0xE1 SHL PUSH4 0xA85BD01 MUL DUP2 MSTORE CALLER PUSH1 0x4 DUP3 ADD DUP2 DUP2 MSTORE PUSH1 0x1 PUSH1 0x1 PUSH1 0xA0 SHL SUB DUP9 DUP2 AND PUSH1 0x24 DUP6 ADD MSTORE PUSH1 0x44 DUP5 ADD DUP8 SWAP1 MSTORE PUSH1 0x80 PUSH1 0x64 DUP6 ADD SWAP1 DUP2 MSTORE DUP7 MLOAD PUSH1 0x84 DUP7 ADD MSTORE DUP7 MLOAD PUSH1 0x0 SWAP6 SWAP3 DUP11 AND SWAP5 PUSH4 0x150B7A02 SWAP5 SWAP1 SWAP4 DUP13 SWAP4 DUP12 SWAP4 DUP12 SWAP4 SWAP3 PUSH1 0xA4 ADD SWAP1 PUSH1 0x20 DUP6 ADD SWAP1 DUP1 DUP4 DUP4 DUP15 JUMPDEST DUP4 DUP2 LT ISZERO PUSH2 0xA4E JUMPI DUP2 DUP2 ADD MLOAD DUP4 DUP3 ADD MSTORE PUSH1 0x20 ADD PUSH2 0xA36 JUMP JUMPDEST POP POP POP POP SWAP1 POP SWAP1 DUP2 ADD SWAP1 PUSH1 0x1F AND DUP1 ISZERO PUSH2 0xA7B JUMPI DUP1 DUP3 SUB DUP1 MLOAD PUSH1 0x1 DUP4 PUSH1 0x20 SUB PUSH2 0x100 EXP SUB NOT AND DUP2 MSTORE PUSH1 0x20 ADD SWAP2 POP JUMPDEST POP SWAP6 POP POP POP POP POP POP PUSH1 0x20 PUSH1 0x40 MLOAD DUP1 DUP4 SUB DUP2 PUSH1 0x0 DUP8 DUP1 EXTCODESIZE ISZERO DUP1 ISZERO PUSH2 0xA9D JUMPI PUSH1 0x0 DUP1 REVERT JUMPDEST POP GAS CALL ISZERO DUP1 ISZERO PUSH2 0xAB1 JUMPI RETURNDATASIZE PUSH1 0x0 DUP1 RETURNDATACOPY RETURNDATASIZE PUSH1 0x0 REVERT JUMPDEST POP POP POP POP PUSH1 0x40 MLOAD RETURNDATASIZE PUSH1 0x20 DUP2 LT ISZERO PUSH2 0xAC7 JUMPI PUSH1 0x0 DUP1 REVERT JUMPDEST POP MLOAD PUSH1 0x1 PUSH1 0x1 PUSH1 0xE0 SHL SUB NOT AND PUSH1 0x1 PUSH1 0xE1 SHL PUSH4 0xA85BD01 MUL EQ SWAP2 POP POP SWAP5 SWAP4 POP POP POP POP JUMP JUMPDEST DUP3 PUSH1 0x1 PUSH1 0x1 PUSH1 0xA0 SHL SUB AND PUSH2 0xAFD DUP3 PUSH2 0x6AA JUMP JUMPDEST PUSH1 0x1 PUSH1 0x1 PUSH1 0xA0 SHL SUB AND EQ PUSH2 0xB45 JUMPI PUSH1 0x40 MLOAD PUSH1 0x1 PUSH1 0xE5 SHL PUSH3 0x461BCD MUL DUP2 MSTORE PUSH1 0x4 ADD DUP1 DUP1 PUSH1 0x20 ADD DUP3 DUP2 SUB DUP3 MSTORE PUSH1 0x29 DUP2 MSTORE PUSH1 0x20 ADD DUP1 PUSH2 0xFFD PUSH1 0x29 SWAP2 CODECOPY PUSH1 0x40 ADD SWAP2 POP POP PUSH1 0x40 MLOAD DUP1 SWAP2 SUB SWAP1 REVERT JUMPDEST PUSH1 0x1 PUSH1 0x1 PUSH1 0xA0 SHL SUB DUP3 AND PUSH2 0xB8D JUMPI PUSH1 0x40 MLOAD PUSH1 0x1 PUSH1 0xE5 SHL PUSH3 0x461BCD MUL DUP2 MSTORE PUSH1 0x4 ADD DUP1 DUP1 PUSH1 0x20 ADD DUP3 DUP2 SUB DUP3 MSTORE PUSH1 0x24 DUP2 MSTORE PUSH1 0x20 ADD DUP1 PUSH2 0xEF6 PUSH1 0x24 SWAP2 CODECOPY PUSH1 0x40 ADD SWAP2 POP POP PUSH1 0x40 MLOAD DUP1 SWAP2 SUB SWAP1 REVERT JUMPDEST PUSH2 0xB96 DUP2 PUSH2 0xD9E JUMP JUMPDEST PUSH1 0x1 PUSH1 0x1 PUSH1 0xA0 SHL SUB DUP4 AND PUSH1 0x0 SWAP1 DUP2 MSTORE PUSH1 0x3 PUSH1 0x20 MSTORE PUSH1 0x40 SWAP1 KECCAK256 PUSH2 0xBB7 SWAP1 PUSH2 0xDDB JUMP JUMPDEST PUSH1 0x1 PUSH1 0x1 PUSH1 0xA0 SHL SUB DUP3 AND PUSH1 0x0 SWAP1 DUP2 MSTORE PUSH1 0x3 PUSH1 0x20 MSTORE PUSH1 0x40 SWAP1 KECCAK256 PUSH2 0xBD8 SWAP1 PUSH2 0xDF2 JUMP JUMPDEST PUSH1 0x0 DUP2 DUP2 MSTORE PUSH1 0x1 PUSH1 0x20 MSTORE PUSH1 0x40 DUP1 DUP3 KECCAK256 DUP1 SLOAD PUSH1 0x1 PUSH1 0x1 PUSH1 0xA0 SHL SUB NOT AND PUSH1 0x1 PUSH1 0x1 PUSH1 0xA0 SHL SUB DUP7 DUP2 AND SWAP2 DUP3 OR SWAP1 SWAP3 SSTORE SWAP2 MLOAD DUP5 SWAP4 SWAP2 DUP8 AND SWAP2 PUSH32 0xDDF252AD1BE2C89B69C2B068FC378DAA952BA7F163C4A11628F55A4DF523B3EF SWAP2 LOG4 POP POP POP JUMP JUMPDEST PUSH1 0x1 PUSH1 0x1 PUSH1 0xA0 SHL SUB DUP3 AND PUSH1 0x0 SWAP1 DUP2 MSTORE PUSH1 0x5 PUSH1 0x20 MSTORE PUSH1 0x40 DUP2 KECCAK256 SLOAD PUSH2 0xC5E SWAP1 PUSH1 0x1 PUSH4 0xFFFFFFFF PUSH2 0xDFB AND JUMP JUMPDEST PUSH1 0x0 DUP4 DUP2 MSTORE PUSH1 0x6 PUSH1 0x20 MSTORE PUSH1 0x40 SWAP1 KECCAK256 SLOAD SWAP1 SWAP2 POP DUP1 DUP3 EQ PUSH2 0xCF9 JUMPI PUSH1 0x1 PUSH1 0x1 PUSH1 0xA0 SHL SUB DUP5 AND PUSH1 0x0 SWAP1 DUP2 MSTORE PUSH1 0x5 PUSH1 0x20 MSTORE PUSH1 0x40 DUP2 KECCAK256 DUP1 SLOAD DUP5 SWAP1 DUP2 LT PUSH2 0xC9B JUMPI INVALID JUMPDEST SWAP1 PUSH1 0x0 MSTORE PUSH1 0x20 PUSH1 0x0 KECCAK256 ADD SLOAD SWAP1 POP DUP1 PUSH1 0x5 PUSH1 0x0 DUP8 PUSH1 0x1 PUSH1 0x1 PUSH1 0xA0 SHL SUB AND PUSH1 0x1 PUSH1 0x1 PUSH1 0xA0 SHL SUB AND DUP2 MSTORE PUSH1 0x20 ADD SWAP1 DUP2 MSTORE PUSH1 0x20 ADD PUSH1 0x0 KECCAK256 DUP4 DUP2 SLOAD DUP2 LT PUSH2 0xCD9 JUMPI INVALID JUMPDEST PUSH1 0x0 SWAP2 DUP3 MSTORE PUSH1 0x20 DUP1 DUP4 KECCAK256 SWAP1 SWAP2 ADD SWAP3 SWAP1 SWAP3 SSTORE SWAP2 DUP3 MSTORE PUSH1 0x6 SWAP1 MSTORE PUSH1 0x40 SWAP1 KECCAK256 DUP2 SWAP1 SSTORE JUMPDEST PUSH1 0x1 PUSH1 0x1 PUSH1 0xA0 SHL SUB DUP5 AND PUSH1 0x0 SWAP1 DUP2 MSTORE PUSH1 0x5 PUSH1 0x20 MSTORE PUSH1 0x40 SWAP1 KECCAK256 DUP1 SLOAD SWAP1 PUSH2 0xD22 SWAP1 PUSH1 0x0 NOT DUP4 ADD PUSH2 0xE5B JUMP JUMPDEST POP POP POP POP POP JUMP JUMPDEST PUSH1 0x1 PUSH1 0x1 PUSH1 0xA0 SHL SUB SWAP1 SWAP2 AND PUSH1 0x0 SWAP1 DUP2 MSTORE PUSH1 0x5 PUSH1 0x20 DUP2 DUP2 MSTORE PUSH1 0x40 DUP1 DUP5 KECCAK256 DUP1 SLOAD DUP7 DUP7 MSTORE PUSH1 0x6 DUP5 MSTORE SWAP2 DUP6 KECCAK256 DUP3 SWAP1 SSTORE SWAP3 DUP3 MSTORE PUSH1 0x1 DUP2 ADD DUP4 SSTORE SWAP2 DUP4 MSTORE SWAP1 SWAP2 KECCAK256 ADD SSTORE JUMP JUMPDEST PUSH1 0x0 DUP2 EXTCODEHASH PUSH32 0xC5D2460186F7233C927E7DB2DCC703C0E500B653CA82273B7BFAD8045D85A470 DUP2 ISZERO DUP1 ISZERO SWAP1 PUSH2 0x986 JUMPI POP EQ ISZERO SWAP3 SWAP2 POP POP JUMP JUMPDEST PUSH1 0x0 DUP2 DUP2 MSTORE PUSH1 0x2 PUSH1 0x20 MSTORE PUSH1 0x40 SWAP1 KECCAK256 SLOAD PUSH1 0x1 PUSH1 0x1 PUSH1 0xA0 SHL SUB AND ISZERO PUSH2 0xDD8 JUMPI PUSH1 0x0 DUP2 DUP2 MSTORE PUSH1 0x2 PUSH1 0x20 MSTORE PUSH1 0x40 SWAP1 KECCAK256 DUP1 SLOAD PUSH1 0x1 PUSH1 0x1 PUSH1 0xA0 SHL SUB NOT AND SWAP1 SSTORE JUMPDEST POP JUMP JUMPDEST DUP1 SLOAD PUSH2 0xDEE SWAP1 PUSH1 0x1 PUSH4 0xFFFFFFFF PUSH2 0xDFB AND JUMP JUMPDEST SWAP1 SSTORE JUMP JUMPDEST DUP1 SLOAD PUSH1 0x1 ADD SWAP1 SSTORE JUMP JUMPDEST PUSH1 0x0 DUP3 DUP3 GT ISZERO PUSH2 0xE55 JUMPI PUSH1 0x40 DUP1 MLOAD PUSH1 0x1 PUSH1 0xE5 SHL PUSH3 0x461BCD MUL DUP2 MSTORE PUSH1 0x20 PUSH1 0x4 DUP3 ADD MSTORE PUSH1 0x1E PUSH1 0x24 DUP3 ADD MSTORE PUSH32 0x536166654D6174683A207375627472616374696F6E206F766572666C6F770000 PUSH1 0x44 DUP3 ADD MSTORE SWAP1 MLOAD SWAP1 DUP2 SWAP1 SUB PUSH1 0x64 ADD SWAP1 REVERT JUMPDEST POP SWAP1 SUB SWAP1 JUMP JUMPDEST DUP2 SLOAD DUP2 DUP4 SSTORE DUP2 DUP2 GT ISZERO PUSH2 0x59F JUMPI PUSH1 0x0 DUP4 DUP2 MSTORE PUSH1 0x20 SWAP1 KECCAK256 PUSH2 0x59F SWAP2 DUP2 ADD SWAP1 DUP4 ADD PUSH2 0x549 SWAP2 SWAP1 JUMPDEST DUP1 DUP3 GT ISZERO PUSH2 0xE94 JUMPI PUSH1 0x0 DUP2 SSTORE PUSH1 0x1 ADD PUSH2 0xE80 JUMP JUMPDEST POP SWAP1 JUMP INVALID GASLIMIT MSTORE NUMBER CALLDATACOPY ORIGIN BALANCE GASLIMIT PUSH15 0x756D657261626C653A206F776E6572 KECCAK256 PUSH10 0x6E646578206F7574206F PUSH7 0x20626F756E6473 GASLIMIT MSTORE NUMBER CALLDATACOPY ORIGIN BALANCE GASPRICE KECCAK256 PUSH21 0x72616E7366657220746F206E6F6E20455243373231 MSTORE PUSH6 0x636569766572 KECCAK256 PUSH10 0x6D706C656D656E746572 GASLIMIT MSTORE NUMBER CALLDATACOPY ORIGIN BALANCE GASPRICE KECCAK256 PUSH21 0x72616E7366657220746F20746865207A65726F2061 PUSH5 0x6472657373 GASLIMIT MSTORE NUMBER CALLDATACOPY ORIGIN BALANCE GASPRICE KECCAK256 PUSH16 0x70657261746F7220717565727920666F PUSH19 0x206E6F6E6578697374656E7420746F6B656E45 MSTORE NUMBER CALLDATACOPY ORIGIN BALANCE GASPRICE KECCAK256 PUSH2 0x7070 PUSH19 0x6F76652063616C6C6572206973206E6F74206F PUSH24 0x6E6572206E6F7220617070726F76656420666F7220616C6C GASLIMIT MSTORE NUMBER CALLDATACOPY ORIGIN BALANCE GASPRICE KECCAK256 PUSH3 0x616C61 PUSH15 0x636520717565727920666F72207468 PUSH6 0x207A65726F20 PUSH2 0x6464 PUSH19 0x6573734552433732313A206F776E6572207175 PUSH6 0x727920666F72 KECCAK256 PUSH15 0x6F6E6578697374656E7420746F6B65 PUSH15 0x4552433732313A20617070726F7665 PUSH5 0x2071756572 PUSH26 0x20666F72206E6F6E6578697374656E7420746F6B656E45524337 ORIGIN BALANCE GASPRICE KECCAK256 PUSH21 0x72616E73666572206F6620746F6B656E2074686174 KECCAK256 PUSH10 0x73206E6F74206F776E45 MSTORE NUMBER CALLDATACOPY ORIGIN BALANCE GASPRICE KECCAK256 PUSH2 0x7070 PUSH19 0x6F76616C20746F2063757272656E74206F776E PUSH6 0x724552433732 BALANCE GASPRICE KECCAK256 PUSH21 0x72616E736665722063616C6C6572206973206E6F74 KECCAK256 PUSH16 0x776E6572206E6F7220617070726F7665 PUSH5 0x4552433732 BALANCE GASLIMIT PUSH15 0x756D657261626C653A20676C6F6261 PUSH13 0x20696E646578206F7574206F66 KECCAK256 PUSH3 0x6F756E PUSH5 0x73A165627A PUSH27 0x72305820F015B3644AAA113499C1AA050ECA76FFFA3906E2902507 0xed PUSH10 0x8E5425C47D6C14002900 "
		},
		"gasEstimates": {
			"creation": {
				"codeDepositCost": "860600",
				"executionCost": "infinite",
				"totalCost": "infinite"
			},
			"external": {
				"approve(address,uint256)": "infinite",
				"balanceOf(address)": "infinite",
				"getApproved(uint256)": "infinite",
				"isApprovedForAll(address,address)": "750",
				"ownerOf(uint256)": "infinite",
				"safeTransferFrom(address,address,uint256)": "infinite",
				"safeTransferFrom(address,address,uint256,bytes)": "infinite",
				"setApprovalForAll(address,bool)": "22544",
				"supportsInterface(bytes4)": "564",
				"tokenByIndex(uint256)": "infinite",
				"tokenOfOwnerByIndex(address,uint256)": "infinite",
				"totalSupply()": "466",
				"transferFrom(address,address,uint256)": "infinite"
			},
			"internal": {
				"_addTokenToAllTokensEnumeration(uint256)": "infinite",
				"_addTokenToOwnerEnumeration(address,uint256)": "60467",
				"_mint(address,uint256)": "infinite",
				"_removeTokenFromOwnerEnumeration(address,uint256)": "infinite",
				"_tokensOfOwner(address)": "infinite",
				"_transferFrom(address,address,uint256)": "infinite"
			}
		},
		"methodIdentifiers": {
			"approve(address,uint256)": "095ea7b3",
			"balanceOf(address)": "70a08231",
			"getApproved(uint256)": "081812fc",
			"isApprovedForAll(address,address)": "e985e9c5",
			"ownerOf(uint256)": "6352211e",
			"safeTransferFrom(address,address,uint256)": "42842e0e",
			"safeTransferFrom(address,address,uint256,bytes)": "b88d4fde",
			"setApprovalForAll(address,bool)": "a22cb465",
			"supportsInterface(bytes4)": "01ffc9a7",
			"tokenByIndex(uint256)": "4f6ccce7",
			"tokenOfOwnerByIndex(address,uint256)": "2f745c59",
			"totalSupply()": "18160ddd",
			"transferFrom(address,address,uint256)": "23b872dd"
		}
	},
	"abi": [
		{
			"constant": true,
			"inputs": [
				{
					"name": "interfaceId",
					"type": "bytes4"
				}
			],
			"name": "supportsInterface",
			"outputs": [
				{
					"name": "",
					"type": "bool"
				}
			],
			"payable": false,
			"stateMutability": "view",
			"type": "function"
		},
		{
			"constant": true,
			"inputs": [
				{
					"name": "tokenId",
					"type": "uint256"
				}
			],
			"name": "getApproved",
			"outputs": [
				{
					"name": "",
					"type": "address"
				}
			],
			"payable": false,
			"stateMutability": "view",
			"type": "function"
		},
		{
			"constant": false,
			"inputs": [
				{
					"name": "to",
					"type": "address"
				},
				{
					"name": "tokenId",
					"type": "uint256"
				}
			],
			"name": "approve",
			"outputs": [],
			"payable": false,
			"stateMutability": "nonpayable",
			"type": "function"
		},
		{
			"constant": true,
			"inputs": [],
			"name": "totalSupply",
			"outputs": [
				{
					"name": "",
					"type": "uint256"
				}
			],
			"payable": false,
			"stateMutability": "view",
			"type": "function"
		},
		{
			"constant": false,
			"inputs": [
				{
					"name": "from",
					"type": "address"
				},
				{
					"name": "to",
					"type": "address"
				},
				{
					"name": "tokenId",
					"type": "uint256"
				}
			],
			"name": "transferFrom",
			"outputs": [],
			"payable": false,
			"stateMutability": "nonpayable",
			"type": "function"
		},
		{
			"constant": true,
			"inputs": [
				{
					"name": "owner",
					"type": "address"
				},
				{
					"name": "index",
					"type": "uint256"
				}
			],
			"name": "tokenOfOwnerByIndex",
			"outputs": [
				{
					"name": "",
					"type": "uint256"
				}
			],
			"payable": false,
			"stateMutability": "view",
			"type": "function"
		},
		{
			"constant": false,
			"inputs": [
				{
					"name": "from",
					"type": "address"
				},
				{
					"name": "to",
					"type": "address"
				},
				{
					"name": "tokenId",
					"type": "uint256"
				}
			],
			"name": "safeTransferFrom",
			"outputs": [],
			"payable": false,
			"stateMutability": "nonpayable",
			"type": "function"
		},
		{
			"constant": true,
			"inputs": [
				{
					"name": "index",
					"type": "uint256"
				}
			],
			"name": "tokenByIndex",
			"outputs": [
				{
					"name": "",
					"type": "uint256"
				}
			],
			"payable": false,
			"stateMutability": "view",
			"type": "function"
		},
		{
			"constant": true,
			"inputs": [
				{
					"name": "tokenId",
					"type": "uint256"
				}
			],
			"name": "ownerOf",
			"outputs": [
				{
					"name": "",
					"type": "address"
				}
			],
			"payable": false,
			"stateMutability": "view",
			"type": "function"
		},
		{
			"constant": true,
			"inputs": [
				{
					"name": "owner",
					"type": "address"
				}
			],
			"name": "balanceOf",
			"outputs": [
				{
					"name": "",
					"type": "uint256"
				}
			],
			"payable": false,
			"stateMutability": "view",
			"type": "function"
		},
		{
			"constant": false,
			"inputs": [
				{
					"name": "to",
					"type": "address"
				},
				{
					"name": "approved",
					"type": "bool"
				}
			],
			"name": "setApprovalForAll",
			"outputs": [],
			"payable": false,
			"stateMutability": "nonpayable",
			"type": "function"
		},
		{
			"constant": false,
			"inputs": [
				{
					"name": "from",
					"type": "address"
				},
				{
					"name": "to",
					"type": "address"
				},
				{
					"name": "tokenId",
					"type": "uint256"
				},
				{
					"name": "_data",
					"type": "bytes"
				}
			],
			"name": "safeTransferFrom",
			"outputs": [],
			"payable": false,
			"stateMutability": "nonpayable",
			"type": "function"
		},
		{
			"constant": true,
			"inputs": [
				{
					"name": "owner",
					"type": "address"
				},
				{
					"name": "operator",
					"type": "address"
				}
			],
			"name": "isApprovedForAll",
			"outputs": [
				{
					"name": "",
					"type": "bool"
				}
			],
			"payable": false,
			"stateMutability": "view",
			"type": "function"
		},
		{
			"inputs": [],
			"payable": false,
			"stateMutability": "nonpayable",
			"type": "constructor"
		},
		{
			"anonymous": false,
			"inputs": [
				{
					"indexed": true,
					"name": "from",
					"type": "address"
				},
				{
					"indexed": true,
					"name": "to",
					"type": "address"
				},
				{
					"indexed": true,
					"name": "tokenId",
					"type": "uint256"
				}
			],
			"name": "Transfer",
			"type": "event"
		},
		{
			"anonymous": false,
			"inputs": [
				{
					"indexed": true,
					"name": "owner",
					"type": "address"
				},
				{
					"indexed": true,
					"name": "approved",
					"type": "address"
				},
				{
					"indexed": true,
					"name": "tokenId",
					"type": "uint256"
				}
			],
			"name": "Approval",
			"type": "event"
		},
		{
			"anonymous": false,
			"inputs": [
				{
					"indexed": true,
					"name": "owner",
					"type": "address"
				},
				{
					"indexed": true,
					"name": "operator",
					"type": "address"
				},
				{
					"indexed": false,
					"name": "approved",
					"type": "bool"
				}
			],
			"name": "ApprovalForAll",
			"type": "event"
		}
	]
}