{
	"data": {
		"bytecode": {
			"linkReferences": {},
			"object": "60806040523480156200001157600080fd5b5060405162004f3138038062004f31833981018060405260e08110156200003757600080fd5b81516020830151604084015160608501805193959294919391830192916401000000008111156200006757600080fd5b820160208101848111156200007b57600080fd5b81516401000000008111828201871017156200009657600080fd5b50509291906020018051640100000000811115620000b357600080fd5b82016020810184811115620000c757600080fd5b8151640100000000811182820187101715620000e257600080fd5b5050602080830151604090930151919450919250908490849084908390839062000132907f01ffc9a7000000000000000000000000000000000000000000000000000000009062000290811b901c565b6200014a6380ac58cd60e01b6200029060201b60201c565b6200016263780e9d6360e01b6200029060201b60201c565b815162000177906009906020850190620004eb565b5080516200018d90600a906020840190620004eb565b50620001a6635b5e139f60e01b6200029060201b60201c565b5050620001b9336200035f60201b60201c565b620001ca81620003b160201b60201c565b50506001600f5550601080546001600160a01b038089166001600160a01b03199283161790925560118054928a169290911691909117905560648511156200025e576040517f08c379a000000000000000000000000000000000000000000000000000000000815260040180806020018281038252603981526020018062004ed66039913960400191505060405180910390fd5b6012949094555050601380546001600160a01b0319166001600160a01b03909316929092179091555062000590915050565b7fffffffff0000000000000000000000000000000000000000000000000000000080821614156200032257604080517f08c379a000000000000000000000000000000000000000000000000000000000815260206004820152601c60248201527f4552433136353a20696e76616c696420696e7465726661636520696400000000604482015290519081900360640190fd5b7fffffffff00000000000000000000000000000000000000000000000000000000166000908152602081905260409020805460ff19166001179055565b6200037a81600c620003c460201b6200414d1790919060201c565b6040516001600160a01b038216907f6ae172837ea30b801fbfcdd4108aa1d5bf8ff775444fd70256b44e6bf3dfc3f690600090a250565b600d805460ff1916911515919091179055565b620003d682826200046860201b60201c565b156200044357604080517f08c379a000000000000000000000000000000000000000000000000000000000815260206004820152601f60248201527f526f6c65733a206163636f756e7420616c72656164792068617320726f6c6500604482015290519081900360640190fd5b6001600160a01b0316600090815260209190915260409020805460ff19166001179055565b60006001600160a01b038216620004cb576040517f08c379a000000000000000000000000000000000000000000000000000000000815260040180806020018281038252602281526020018062004f0f6022913960400191505060405180910390fd5b506001600160a01b03166000908152602091909152604090205460ff1690565b828054600181600116156101000203166002900490600052602060002090601f016020900481019282601f106200052e57805160ff19168380011785556200055e565b828001600101855582156200055e579182015b828111156200055e57825182559160200191906001019062000541565b506200056c92915062000570565b5090565b6200058d91905b808211156200056c576000815560010162000577565b90565b61493680620005a06000396000f3fe6080604052600436106102e45760003560e01c80637c0df77911610190578063b14c63c5116100dc578063d96a094a11610095578063e75722301161006f578063e757223014610f6a578063e985e9c514610fb2578063ee1b59e414610fed578063fbe85f0614611002576102e4565b8063d96a094a14610ef9578063dc16bd4314610f16578063e4e2bfe414610f40576102e4565b8063b14c63c514610d26578063b1cb48ef14610d50578063b2ecfad414610d95578063b88d4fde14610dbf578063c87b56dd14610e90578063d04c698314610eba576102e4565b80639e0c897611610149578063a9059cbb11610123578063a9059cbb14610c75578063aa271e1a14610cae578063ac2ccfae14610ce1578063b13fbe9614610d11576102e4565b80639e0c897614610be0578063a22cb46514610c10578063a36b146214610c4b576102e4565b80637c0df77914610a235780638462151c14610ad657806389f4c0b114610b5957806395d89b4114610b83578063983b2d5614610b985780639865027514610bcb576102e4565b8063384f58eb1161024f5780634f558e7911610208578063571a26a0116101e2578063571a26a01461089c57806361a09c971461090a5780636352211e146109c657806370a08231146109f0576102e4565b80634f558e79146107825780634f6ccce7146107ac57806350bb4e7f146107d6576102e4565b8063384f58eb146106805780633ca88a2f1461069557806340c10f19146106bf57806342842e0e146106f8578063451df52e1461073b578063454a2ab314610765576102e4565b8063172b099d116102a1578063172b099d1461054857806318160ddd146105845780631ac70f6f1461059957806323b872dd146105c3578063263f5877146106065780632f745c5914610647576102e4565b806301ffc9a7146102e957806306fdde0314610331578063081812fc146103bb578063095ea7b3146104015780630d4578e31461043c578063162094c414610490575b600080fd5b3480156102f557600080fd5b5061031d6004803603602081101561030c57600080fd5b50356001600160e01b03191661102c565b604080519115158252519081900360200190f35b34801561033d57600080fd5b5061034661104f565b6040805160208082528351818301528351919283929083019185019080838360005b83811015610380578181015183820152602001610368565b50505050905090810190601f1680156103ad5780820380516001836020036101000a031916815260200191505b509250505060405180910390f35b3480156103c757600080fd5b506103e5600480360360208110156103de57600080fd5b50356110e6565b604080516001600160a01b039092168252519081900360200190f35b34801561040d57600080fd5b5061043a6004803603604081101561042457600080fd5b506001600160a01b03813516906020013561114b565b005b34801561044857600080fd5b506104666004803603602081101561045f57600080fd5b5035611262565b604080516001600160a01b0390941684526020840192909252151582820152519081900360600190f35b34801561049c57600080fd5b5061043a600480360360408110156104b357600080fd5b81359190810190604081016020820135600160201b8111156104d457600080fd5b8201836020820111156104e657600080fd5b803590602001918460018302840111600160201b8311171561050757600080fd5b91908080601f016020809104026020016040519081016040528093929190818152602001838380828437600092019190915250929550611295945050505050565b34801561055457600080fd5b506105726004803603602081101561056b57600080fd5b50356112a3565b60408051918252519081900360200190f35b34801561059057600080fd5b506105726112b5565b3480156105a557600080fd5b5061031d600480360360208110156105bc57600080fd5b50356112bb565b3480156105cf57600080fd5b5061043a600480360360608110156105e657600080fd5b506001600160a01b0381358116916020810135909116906040013561130d565b34801561061257600080fd5b5061043a6004803603606081101561062957600080fd5b506001600160a01b0381351690602081013590604001351515611365565b34801561065357600080fd5b506105726004803603604081101561066a57600080fd5b506001600160a01b0381351690602001356113fe565b34801561068c57600080fd5b506103e5611480565b3480156106a157600080fd5b50610572600480360360208110156106b857600080fd5b503561148f565b3480156106cb57600080fd5b5061031d600480360360408110156106e257600080fd5b506001600160a01b038135169060200135611515565b34801561070457600080fd5b5061043a6004803603606081101561071b57600080fd5b506001600160a01b03813581169160208101359091169060400135611573565b34801561074757600080fd5b506103e56004803603602081101561075e57600080fd5b503561158e565b61043a6004803603602081101561077b57600080fd5b50356115ac565b34801561078e57600080fd5b5061031d600480360360208110156107a557600080fd5b50356119ef565b3480156107b857600080fd5b50610572600480360360208110156107cf57600080fd5b50356119fa565b3480156107e257600080fd5b5061031d600480360360608110156107f957600080fd5b6001600160a01b0382351691602081013591810190606081016040820135600160201b81111561082857600080fd5b82018360208201111561083a57600080fd5b803590602001918460018302840111600160201b8311171561085b57600080fd5b91908080601f016020809104026020016040519081016040528093929190818152602001838380828437600092019190915250929550611a63945050505050565b3480156108a857600080fd5b506108c6600480360360208110156108bf57600080fd5b5035611acc565b604080516001600160a01b0397881681526020810196909652939095168484015260608401919091521515608083015260a082019290925290519081900360c00190f35b34801561091657600080fd5b5061031d6004803603604081101561092d57600080fd5b810190602081018135600160201b81111561094757600080fd5b82018360208201111561095957600080fd5b803590602001918460018302840111600160201b8311171561097a57600080fd5b91908080601f016020809104026020016040519081016040528093929190818152602001838380828437600092019190915250929550505090356001600160a01b03169150611b139050565b3480156109d257600080fd5b506103e5600480360360208110156109e957600080fd5b5035611b8d565b3480156109fc57600080fd5b5061057260048036036020811015610a1357600080fd5b50356001600160a01b0316611be4565b348015610a2f57600080fd5b5061043a60048036036040811015610a4657600080fd5b810190602081018135600160201b811115610a6057600080fd5b820183602082011115610a7257600080fd5b803590602001918460018302840111600160201b83111715610a9357600080fd5b91908080601f0160208091040260200160405190810160405280939291908181526020018383808284376000920191909152509295505091359250611c4f915050565b348015610ae257600080fd5b50610b0960048036036020811015610af957600080fd5b50356001600160a01b0316611d10565b60408051602080825283518183015283519192839290830191858101910280838360005b83811015610b45578181015183820152602001610b2d565b505050509050019250505060405180910390f35b348015610b6557600080fd5b5061031d60048036036020811015610b7c57600080fd5b5035611d71565b348015610b8f57600080fd5b50610346611e06565b348015610ba457600080fd5b5061043a60048036036020811015610bbb57600080fd5b50356001600160a01b0316611e67565b348015610bd757600080fd5b5061043a611eb8565b348015610bec57600080fd5b5061031d60048036036040811015610c0357600080fd5b5080359060200135611ec3565b348015610c1c57600080fd5b5061043a60048036036040811015610c3357600080fd5b506001600160a01b0381351690602001351515611f36565b348015610c5757600080fd5b5061057260048036036020811015610c6e57600080fd5b5035612005565b348015610c8157600080fd5b5061043a60048036036040811015610c9857600080fd5b506001600160a01b038135169060200135612017565b348015610cba57600080fd5b5061031d60048036036020811015610cd157600080fd5b50356001600160a01b0316612022565b348015610ced57600080fd5b5061043a60048036036040811015610d0457600080fd5b5080359060200135612035565b348015610d1d57600080fd5b5061031d6123da565b348015610d3257600080fd5b5061057260048036036020811015610d4957600080fd5b50356123e3565b348015610d5c57600080fd5b5061043a60048036036080811015610d7357600080fd5b508035906020810135906001600160a01b0360408201351690606001356123f8565b348015610da157600080fd5b5061031d60048036036020811015610db857600080fd5b5035612542565b348015610dcb57600080fd5b5061043a60048036036080811015610de257600080fd5b6001600160a01b03823581169260208101359091169160408201359190810190608081016060820135600160201b811115610e1c57600080fd5b820183602082011115610e2e57600080fd5b803590602001918460018302840111600160201b83111715610e4f57600080fd5b91908080601f016020809104026020016040519081016040528093929190818152602001838380828437600092019190915250929550612579945050505050565b348015610e9c57600080fd5b5061034660048036036020811015610eb357600080fd5b50356125ce565b348015610ec657600080fd5b5061043a60048036036060811015610edd57600080fd5b50803590602081013590604001356001600160a01b03166126ac565b61043a60048036036020811015610f0f57600080fd5b50356127a1565b348015610f2257600080fd5b5061043a60048036036020811015610f3957600080fd5b5035612d7f565b348015610f4c57600080fd5b5061031d60048036036020811015610f6357600080fd5b50356133f7565b348015610f7657600080fd5b50610f9460048036036020811015610f8d57600080fd5b503561346f565b60408051938452602084019290925282820152519081900360600190f35b348015610fbe57600080fd5b5061031d60048036036040811015610fd557600080fd5b506001600160a01b03813581169160200135166134eb565b348015610ff957600080fd5b5061031d613519565b34801561100e57600080fd5b5061031d6004803603602081101561102557600080fd5b5035613536565b6001600160e01b0319811660009081526020819052604090205460ff165b919050565b60098054604080516020601f60026000196101006001881615020190951694909404938401819004810282018101909252828152606093909290918301828280156110db5780601f106110b0576101008083540402835291602001916110db565b820191906000526020600020905b8154815290600101906020018083116110be57829003601f168201915b505050505090505b90565b60006110f18261368c565b61112f57604051600160e51b62461bcd02815260040180806020018281038252602c8152602001806146ac602c913960400191505060405180910390fd5b506000908152600260205260409020546001600160a01b031690565b600061115682611b8d565b9050806001600160a01b0316836001600160a01b031614156111ac57604051600160e51b62461bcd0281526004018080602001828103825260218152602001806147c26021913960400191505060405180910390fd5b336001600160a01b03821614806111c857506111c881336134eb565b61120657604051600160e51b62461bcd0281526004018080602001828103825260388152602001806145476038913960400191505060405180910390fd5b60008281526002602052604080822080546001600160a01b0319166001600160a01b0387811691821790925591518593918516917f8c5be1e5ebec7d5bd14f71427d1e84f3dd0314c0f7b2291e5b200ac8c7c3b92591a4505050565b6000818152601760205260409020805460018201546002909201546001600160a01b03909116919060ff165b9193909250565b61129f82826136a9565b5050565b60156020526000908152604090205481565b60075490565b6000336112c783611b8d565b6001600160a01b03161480156112ef575060008281526018602052604090206004015460ff16155b80156113075750600082815260156020526040902054155b92915050565b611317338261370f565b61135557604051600160e51b62461bcd0281526004018080602001828103825260318152602001806148106031913960400191505060405180910390fd5b6113608383836137b6565b505050565b6011546001600160a01b031633146113c75760408051600160e51b62461bcd02815260206004820152601f60248201527f4f6e6c7920636f6e7472616374206f776e65722063616e20646f207468697300604482015290519081900360640190fd5b601080546001600160a01b0319166001600160a01b039490941693909317909255601255600d805460ff1916911515919091179055565b600061140983611be4565b821061144957604051600160e51b62461bcd02815260040180806020018281038252602b8152602001806143f5602b913960400191505060405180910390fd5b6001600160a01b038316600090815260056020526040902080548390811061146d57fe5b9060005260206000200154905092915050565b6011546001600160a01b031681565b60008181526018602052604081206004015460ff161580156114be575060008281526015602052604090205415155b80156114d7575060008281526015602052604090205415155b80156114f35750306114e8836110e6565b6001600160a01b0316145b1561150d575060008181526015602052604090205461104a565b50600061104a565b60006060611521613519565b61155f57604051600160e51b62461bcd0281526004018080602001828103825260308152602001806145f36030913960400191505060405180910390fd5b61156984846137d5565b5060019392505050565b61136083838360405180602001604052806000815250612579565b6000908152601860205260409020600201546001600160a01b031690565b600f8054600101908190556115c0336137f2565b156116155760408051600160e51b62461bcd02815260206004820152601160248201527f4e6f20736372697074206b696464696573000000000000000000000000000000604482015290519081900360640190fd5b60008281526018602052604090206004015460ff1661167e5760408051600160e51b62461bcd02815260206004820152601760248201527f4e6f206f70656e65642061756374696f6e20666f756e64000000000000000000604482015290519081900360640190fd5b30611688836110e6565b6001600160a01b0316146116e65760408051600160e51b62461bcd02815260206004820152601b60248201527f43616e6e6f7420636f6d706c657465207468652061756374696f6e0000000000604482015290519081900360640190fd5b60008281526018602052604090206001015442111561174f5760408051600160e51b62461bcd02815260206004820152601660248201527f41756374696f6e20616c726561647920656e6465642e00000000000000000000604482015290519081900360640190fd5b60008281526018602052604090206003015434116117b75760408051600160e51b62461bcd02815260206004820152601e60248201527f546865726520616c7265616479206973206120686967686572206269642e0000604482015290519081900360640190fd5b60006117c283611b8d565b9050336001600160a01b038216141561180f57604051600160e51b62461bcd0281526004018080602001828103825260368152602001806148d56036913960400191505060405180910390fd5b6000838152601860205260409020600301541561193d57600083815260186020526040808220600281015460039091015491516001600160a01b0390911691908381818185875af1925050503d8060008114611887576040519150601f19603f3d011682016040523d82523d6000602084013e61188c565b606091505b50509050806118db5760408051600160e51b62461bcd0281526020600482015260106024820152600160811b6f2a3930b739b332b9103330b4b632b21702604482015290519081900360640190fd5b600084815260186020908152604091829020600281015460039091015483516001600160a01b0390921682529181019190915281517fbb28353e4598c3b9199101a66e0989549b659a59a54d2c27fbb183f1932c8e6d929181900390910190a1505b6000838152601860209081526040918290206002810180546001600160a01b031916339081179091553460039092018290558351918252918101869052825191927fdafc4a123c6bb3b49dd38a0cba299808581a0126a37248a5f1102d5e5fa0633792918290030190a250600f54811461129f5760408051600160e51b62461bcd02815260206004820152601f6024820152600080516020614386833981519152604482015290519081900360640190fd5b60006113078261368c565b6000611a046112b5565b8210611a4457604051600160e51b62461bcd02815260040180806020018281038252602c815260200180614841602c913960400191505060405180910390fd5b60078281548110611a5157fe5b90600052602060002001549050919050565b60006060611a6f613519565b611aad57604051600160e51b62461bcd0281526004018080602001828103825260308152602001806145f36030913960400191505060405180910390fd5b611ab785856137d5565b611ac184846136a9565b506001949350505050565b6018602052600090815260409020805460018201546002830154600384015460048501546005909501546001600160a01b0394851695939490921692909160ff9091169086565b60006060611b1f613519565b611b5d57604051600160e51b62461bcd0281526004018080602001828103825260308152602001806145f36030913960400191505060405180910390fd5b600e805460010190819055611b719061368c565b611b5d57611b8183600e546137d5565b611569600e54856136a9565b6000818152600160205260408120546001600160a01b03168061130757604051600160e51b62461bcd0281526004018080602001828103825260298152602001806145a96029913960400191505060405180910390fd5b60006001600160a01b038216611c2e57604051600160e51b62461bcd02815260040180806020018281038252602a81526020018061457f602a913960400191505060405180910390fd5b6001600160a01b038216600090815260036020526040902061130790613829565b600a8111158015611c61575060018110155b611c9f57604051600160e51b62461bcd0281526004018080602001828103825260268152602001806146656026913960400191505060405180910390fd5b611ca98233611b13565b506040805160608101825233815260208082019384526000828401818152600e548252601790925292909220905181546001600160a01b0319166001600160a01b0390911617815591516001830155516002909101805460ff191691151591909117905550565b6060611d1b8261382d565b805480602002602001604051908101604052809291908181526020018280548015611d6557602002820191906000526020600020905b815481526020019060010190808311611d51575b50505050509050919050565b6000611d7c336137f2565b158015611d9a575060008281526018602052604090206004015460ff165b8015611db757506000828152601860205260409020600101544211155b8015611ddd5750611dc782611b8d565b6001600160a01b0316336001600160a01b031614155b8015611df9575030611dee836110e6565b6001600160a01b0316145b1561150d5750600161104a565b600a8054604080516020601f60026000196101006001881615020190951694909404938401819004810282018101909252828152606093909290918301828280156110db5780601f106110b0576101008083540402835291602001916110db565b6060611e71613519565b611eaf57604051600160e51b62461bcd0281526004018080602001828103825260308152602001806145f36030913960400191505060405180910390fd5b61129f82613847565b611ec13361388f565b565b6000818152601760205260408120546001600160a01b03163314611f1b57604051600160e51b62461bcd0281526004018080602001828103825260218152602001806146446021913960400191505060405180910390fd5b50600090815260176020526040902060019081019190915590565b6001600160a01b038216331415611f975760408051600160e51b62461bcd02815260206004820152601960248201527f4552433732313a20617070726f766520746f2063616c6c657200000000000000604482015290519081900360640190fd5b3360008181526004602090815260408083206001600160a01b03871680855290835292819020805460ff1916861515908117909155815190815290519293927f17307eab39ab6107e8899845ad3d59bd9653f200f220920489ca2b5937696c31929181900390910190a35050565b60146020526000908152604090205481565b61129f3383836137b6565b6000611307600c8363ffffffff6138d716565b600f80546001019081905560008381526018602052604090206004015460ff1615801561206f575060008381526015602052604090205415155b6120ad57604051600160e51b62461bcd02815260040180806020018281038252602d8152602001806147e3602d913960400191505060405180910390fd5b600083815260156020908152604091829020546013548351600160e01b6370a08231028152336004820152935191936001600160a01b03909116926370a0823192602480840193829003018186803b15801561210857600080fd5b505afa15801561211c573d6000803e3d6000fd5b505050506040513d602081101561213257600080fd5b5051101561218a5760408051600160e51b62461bcd02815260206004820152601e60248201527f4552433732314d61746368613a204e6f7420656e6f7567682066756e64730000604482015290519081900360640190fd5b600061219584611b8d565b9050336001600160a01b03821614156121e257604051600160e51b62461bcd0281526004018080602001828103825260378152602001806144e46037913960400191505060405180910390fd5b6013546001600160a01b03166323b872dd336121fd87611b8d565b866040518463ffffffff1660e01b815260040180846001600160a01b03166001600160a01b03168152602001836001600160a01b03166001600160a01b031681526020018281526020019350505050602060405180830381600087803b15801561226657600080fd5b505af115801561227a573d6000803e3d6000fd5b505050506040513d602081101561229057600080fd5b5050604080516001600160a01b038316602482015233604482015260648082018790528251808303909101815260849091019091526020810180516001600160e01b0316600160e01b6323b872dd021790526122ed903090613941565b60008481526015602090815260408083208390556016825280832080546001600160a01b031916905560148252808320869055601790915290206002015460ff1661234f576000848152601760205260409020600201805460ff191660011790555b60408051848152905133916001600160a01b0384169187917f88863d5e20f64464b554931394e2e4b6f09c10015147215bf26b3ba5070acebe919081900360200190a450600f5481146113605760408051600160e51b62461bcd02815260206004820152601f6024820152600080516020614386833981519152604482015290519081900360640190fd5b600d5460ff1681565b60009081526018602052604090206003015490565b6000848152601560205260409020541561244657604051600160e51b62461bcd02815260040180806020018281038252604481526020018061477e6044913960600191505060405180910390fd5b60008481526018602052604090206004015460ff161561249a57604051600160e51b62461bcd0281526004018080602001828103825260358152602001806143516035913960400191505060405180910390fd5b336124a485611b8d565b6001600160a01b0316146124ec57604051600160e51b62461bcd02815260040180806020018281038252602e8152602001806143c7602e913960400191505060405180910390fd5b600084815260186020526040902080546001600160a01b0319166001600160a01b0384161781556001808201859055600582018390556004909101805460ff1916909117905561253c308561114b565b50505050565b60003361254e83611b8d565b6001600160a01b031614801561130757505060009081526018602052604090206004015460ff161590565b61258484848461130d565b61259084848484613aec565b61253c57604051600160e51b62461bcd0281526004018080602001828103825260328152602001806144206032913960400191505060405180910390fd5b60606125d98261368c565b61261757604051600160e51b62461bcd02815260040180806020018281038252602f81526020018061474f602f913960400191505060405180910390fd5b6000828152600b602090815260409182902080548351601f600260001961010060018616150201909316929092049182018490048402810184019094528084529091830182828015611d655780601f1061267f57610100808354040283529160200191611d65565b820191906000526020600020905b81548152906001019060200180831161268d5750939695505050505050565b336126b684611b8d565b6001600160a01b0316146126fe57604051600160e51b62461bcd02815260040180806020018281038252602b815260200180614474602b913960400191505060405180910390fd5b60008381526018602052604090206004015460ff161561275257604051600160e51b62461bcd02815260040180806020018281038252603d815260200180614898603d913960400191505060405180910390fd5b6000838152601560205260409020829055811561136057612773308461114b565b600083815260166020526040902080546001600160a01b0383166001600160a01b0319909116179055505050565b600f80546001019081905560008281526018602052604090206004015460ff161580156127db575060008281526015602052604090205415155b61281957604051600160e51b62461bcd02815260040180806020018281038252602d8152602001806147e3602d913960400191505060405180910390fd5b60008281526015602052604090205434101561287f5760408051600160e51b62461bcd02815260206004820152601e60248201527f4552433732314d61746368613a204e6f7420656e6f7567682066756e64730000604482015290519081900360640190fd5b600061288a83611b8d565b9050336001600160a01b03821614156128d757604051600160e51b62461bcd0281526004018080602001828103825260378152602001806144e46037913960400191505060405180910390fd5b604080516001600160a01b038316602482015233604482015260648082018690528251808303909101815260849091019091526020810180516001600160e01b0316600160e01b6323b872dd02179052612932903090613941565b6000838152601760205260408120600201548190819060ff1615612ad957612976606461296a60125434613c2590919063ffffffff16565b9063ffffffff613c8816565b6000878152601760205260409020600101549093506129b29060649061296a906129a6348863ffffffff613cf516565b9063ffffffff613c2516565b91506129d4836129c8348563ffffffff613cf516565b9063ffffffff613cf516565b60008781526017602052604080822054905192935090916001600160a01b039091169084908381818185875af1925050503d8060008114612a31576040519150601f19603f3d011682016040523d82523d6000602084013e612a36565b606091505b5050905080612a7957604051600160e51b62461bcd0281526004018080602001828103825260228152602001806144526022913960400191505060405180910390fd5b6000878152601760209081526040918290205482516001600160a01b03909116815290810185905280820189905290517f6662b78ef97534d4e88e2670107e66177c240e406d1f3527d88d693cafcf99149181900360600190a150612b08565b612af3606461296a60125434613c2590919063ffffffff16565b9250612b05348463ffffffff613cf516565b90505b6010546040516000916001600160a01b03169085908381818185875af1925050503d8060008114612b55576040519150601f19603f3d011682016040523d82523d6000602084013e612b5a565b606091505b5050905080612b9d57604051600160e51b62461bcd02815260040180806020018281038252602181526020018061449f6021913960400191505060405180910390fd5b6000878152601660205260408082205490516001600160a01b039091169084908381818185875af1925050503d8060008114612bf5576040519150601f19603f3d011682016040523d82523d6000602084013e612bfa565b606091505b5050905080612c3d57604051600160e51b62461bcd0281526004018080602001828103825260218152602001806143a66021913960400191505060405180910390fd5b60008881526015602090815260408083208390556016825280832080546001600160a01b031916905560148252808320349055601790915290206002015460ff16612c9f576000888152601760205260409020600201805460ff191660011790555b60408051848152905133916001600160a01b038916918b917f88863d5e20f64464b554931394e2e4b6f09c10015147215bf26b3ba5070acebe919081900360200190a4601254604080513481526020810192909252818101879052516001600160a01b038816918a917fef7a63d352d8b0f42e35d7f8bd277ba75ba2ff721a50eaad4c62f1ee6561d5eb9181900360600190a3505050505050600f54811461129f5760408051600160e51b62461bcd02815260206004820152601f6024820152600080516020614386833981519152604482015290519081900360640190fd5b600f805460010190819055612d93826133f7565b612de75760408051600160e51b62461bcd02815260206004820152600f60248201527f43616e6e6f742066696e616c697a650000000000000000000000000000000000604482015290519081900360640190fd5b60008281526018602052604090206003015415613300576000828152601860209081526040808320600290810154601790935290832001546001600160a01b0390911691908190819060ff1615612fd257601254600087815260186020526040902060030154612e639160649161296a9163ffffffff613c2516565b600087815260176020908152604080832060010154601890925290912060030154919450612ea29160649161296a916129a6908863ffffffff613cf516565b600087815260186020526040902060030154909250612ecd9084906129c8908563ffffffff613cf516565b60008781526017602052604080822054905192935090916001600160a01b039091169084908381818185875af1925050503d8060008114612f2a576040519150601f19603f3d011682016040523d82523d6000602084013e612f2f565b606091505b5050905080612f7257604051600160e51b62461bcd0281526004018080602001828103825260228152602001806144526022913960400191505060405180910390fd5b6000878152601760209081526040918290205482516001600160a01b03909116815290810185905280820189905290517f6662b78ef97534d4e88e2670107e66177c240e406d1f3527d88d693cafcf99149181900360600190a150613025565b601254600087815260186020526040902060030154612ffd9160649161296a9163ffffffff613c2516565b600087815260186020526040902060030154909350613022908463ffffffff613cf516565b90505b6000868152601860205260408082205490516001600160a01b039091169083908381818185875af1925050503d806000811461307d576040519150601f19603f3d011682016040523d82523d6000602084013e613082565b606091505b50509050806130d15760408051600160e51b62461bcd0281526020600482015260106024820152600160811b6f2a3930b739b332b9103330b4b632b21702604482015290519081900360640190fd5b6010546040516000916001600160a01b03169086908381818185875af1925050503d806000811461311e576040519150601f19603f3d011682016040523d82523d6000602084013e613123565b606091505b50509050806131725760408051600160e51b62461bcd0281526020600482015260106024820152600160811b6f2a3930b739b332b9103330b4b632b21702604482015290519081900360640190fd5b60008881526017602052604090206002015460ff166131a8576000888152601760205260409020600201805460ff191660011790555b6000888152601860209081526040918290208054600390910154835190815292516001600160a01b03808b16949216928c927f88863d5e20f64464b554931394e2e4b6f09c10015147215bf26b3ba5070acebe929081900390910190a4600088815260186020908152604091829020805460039091015460125484519182529281019290925281830188905291516001600160a01b03909216918a917fef7a63d352d8b0f42e35d7f8bd277ba75ba2ff721a50eaad4c62f1ee6561d5eb919081900360600190a3600061327a89611b8d565b604080516001600160a01b0380841660248301528a16604482015260648082018d90528251808303909101815260849091019091526020810180516001600160e01b0316600160e01b6323b872dd021790529091506132da903090613941565b505050600086815260186020908152604080832060030154601490925290912055505050505b600082815260186020908152604091829020600281015460039091015483516001600160a01b0390921682529181019190915281517fdaec4582d5d9595688c8c98545fdd1c696d41c6aeaeb636737e84ed2f5c00eda929181900390910190a16000828152601860209081526040822080546001600160a01b031990811682556001820184905560028201805490911690556003810183905560048101805460ff191690556005019190915560179052600f54811461129f5760408051600160e51b62461bcd02815260206004820152601f6024820152600080516020614386833981519152604482015290519081900360640190fd5b60008181526018602052604081206004015460ff16801561342957506000828152601860205260409020600101544210155b8015611df9575060008281526018602052604090206005810154600390910154101580611df9575060008281526018602052604090206003015461150d5750600161104a565b60008181526015602052604081205481908190156134a057505050600081815260156020526040812054908061128e565b600084815260186020526040902060030154156134d2575050506000818152601860205260408120600301548161128e565b5050506000908152601460205260408120549091829190565b6001600160a01b03918216600090815260046020908152604080832093909416825291909152205460ff1690565b600d5460009060ff1680613531575061353133612022565b905090565b60008181526018602052604081206004015460ff16801561358357506000828152601860205260409020600101544210801590613583575060008281526018602052604090206003015415155b1561363f57600082815260186020526040808220600281015460039091015491516001600160a01b0390911691908381818185875af1925050503d80600081146135e9576040519150601f19603f3d011682016040523d82523d6000602084013e6135ee565b606091505b505090508061363d5760408051600160e51b62461bcd0281526020600482015260106024820152600160811b6f2a3930b739b332b9103330b4b632b21702604482015290519081900360640190fd5b505b600091825260186020526040822080546001600160a01b031990811682556001820184905560028201805490911690556003810183905560048101805460ff191690556005019190915590565b6000908152600160205260409020546001600160a01b0316151590565b6136b28261368c565b6136f057604051600160e51b62461bcd02815260040180806020018281038252602c8152602001806146d8602c913960400191505060405180910390fd5b6000828152600b60209081526040909120825161136092840190614298565b600061371a8261368c565b61375857604051600160e51b62461bcd02815260040180806020018281038252602c81526020018061451b602c913960400191505060405180910390fd5b600061376383611b8d565b9050806001600160a01b0316846001600160a01b0316148061379e5750836001600160a01b0316613793846110e6565b6001600160a01b0316145b806137ae57506137ae81856134eb565b949350505050565b6137c1838383613d55565b6137cb8382613e9f565b6113608282613f94565b6137df8282613fd2565b6137e98282613f94565b61129f81614109565b6000813f7fc5d2460186f7233c927e7db2dcc703c0e500b653ca82273b7bfad8045d85a47081158015906137ae5750141592915050565b5490565b6001600160a01b0316600090815260056020526040902090565b613858600c8263ffffffff61414d16565b6040516001600160a01b038216907f6ae172837ea30b801fbfcdd4108aa1d5bf8ff775444fd70256b44e6bf3dfc3f690600090a250565b6138a0600c8263ffffffff6141d116565b6040516001600160a01b038216907fe94479a9f7e1952cc78f2d6baab678adc1b772d936c6583def489e524cb6669290600090a250565b60006001600160a01b03821661392157604051600160e51b62461bcd0281526004018080602001828103825260228152602001806147046022913960400191505060405180910390fd5b506001600160a01b03166000908152602091909152604090205460ff1690565b613953826001600160a01b03166137f2565b6139a75760408051600160e51b62461bcd02815260206004820181905260248201527f536166654552433732313a2063616c6c20746f206e6f6e2d636f6e7472616374604482015290519081900360640190fd5b60006060836001600160a01b0316836040518082805190602001908083835b602083106139e55780518252601f1990920191602091820191016139c6565b6001836020036101000a0380198251168184511680821785525050505050509050019150506000604051808303816000865af19150503d8060008114613a47576040519150601f19603f3d011682016040523d82523d6000602084013e613a4c565b606091505b509150915081613a9057604051600160e51b62461bcd0281526004018080602001828103825260218152602001806145d26021913960400191505060405180910390fd5b80511561253c57808060200190516020811015613aac57600080fd5b505161253c57604051600160e51b62461bcd02815260040180806020018281038252602b81526020018061486d602b913960400191505060405180910390fd5b6000613b00846001600160a01b03166137f2565b613b0c575060016137ae565b604051600160e11b630a85bd0102815233600482018181526001600160a01b03888116602485015260448401879052608060648501908152865160848601528651600095928a169463150b7a029490938c938b938b939260a4019060208501908083838e5b83811015613b89578181015183820152602001613b71565b50505050905090810190601f168015613bb65780820380516001836020036101000a031916815260200191505b5095505050505050602060405180830381600087803b158015613bd857600080fd5b505af1158015613bec573d6000803e3d6000fd5b505050506040513d6020811015613c0257600080fd5b50516001600160e01b031916600160e11b630a85bd010214915050949350505050565b600082613c3457506000611307565b82820282848281613c4157fe5b0414613c8157604051600160e51b62461bcd02815260040180806020018281038252602181526020018061468b6021913960400191505060405180910390fd5b9392505050565b6000808211613ce15760408051600160e51b62461bcd02815260206004820152601a60248201527f536166654d6174683a206469766973696f6e206279207a65726f000000000000604482015290519081900360640190fd5b6000828481613cec57fe5b04949350505050565b600082821115613d4f5760408051600160e51b62461bcd02815260206004820152601e60248201527f536166654d6174683a207375627472616374696f6e206f766572666c6f770000604482015290519081900360640190fd5b50900390565b826001600160a01b0316613d6882611b8d565b6001600160a01b031614613db057604051600160e51b62461bcd0281526004018080602001828103825260298152602001806147266029913960400191505060405180910390fd5b6001600160a01b038216613df857604051600160e51b62461bcd0281526004018080602001828103825260248152602001806144c06024913960400191505060405180910390fd5b613e018161423b565b6001600160a01b0383166000908152600360205260409020613e2290614278565b6001600160a01b0382166000908152600360205260409020613e439061428f565b60008181526001602052604080822080546001600160a01b0319166001600160a01b0386811691821790925591518493918716917fddf252ad1be2c89b69c2b068fc378daa952ba7f163c4a11628f55a4df523b3ef91a4505050565b6001600160a01b038216600090815260056020526040812054613ec990600163ffffffff613cf516565b600083815260066020526040902054909150808214613f64576001600160a01b0384166000908152600560205260408120805484908110613f0657fe5b906000526020600020015490508060056000876001600160a01b03166001600160a01b031681526020019081526020016000208381548110613f4457fe5b600091825260208083209091019290925591825260069052604090208190555b6001600160a01b0384166000908152600560205260409020805490613f8d906000198301614316565b5050505050565b6001600160a01b0390911660009081526005602081815260408084208054868652600684529185208290559282526001810183559183529091200155565b6001600160a01b0382166140305760408051600160e51b62461bcd02815260206004820181905260248201527f4552433732313a206d696e7420746f20746865207a65726f2061646472657373604482015290519081900360640190fd5b6140398161368c565b1561408e5760408051600160e51b62461bcd02815260206004820152601c60248201527f4552433732313a20746f6b656e20616c7265616479206d696e74656400000000604482015290519081900360640190fd5b600081815260016020908152604080832080546001600160a01b0319166001600160a01b0387169081179091558352600390915290206140cd9061428f565b60405181906001600160a01b038416906000907fddf252ad1be2c89b69c2b068fc378daa952ba7f163c4a11628f55a4df523b3ef908290a45050565b600780546000838152600860205260408120829055600182018355919091527fa66cc928b5edb82af9bd49922954155ab7b0942694bea4ce44661d9a8736c6880155565b61415782826138d7565b156141ac5760408051600160e51b62461bcd02815260206004820152601f60248201527f526f6c65733a206163636f756e7420616c72656164792068617320726f6c6500604482015290519081900360640190fd5b6001600160a01b0316600090815260209190915260409020805460ff19166001179055565b6141db82826138d7565b61421957604051600160e51b62461bcd0281526004018080602001828103825260218152602001806146236021913960400191505060405180910390fd5b6001600160a01b0316600090815260209190915260409020805460ff19169055565b6000818152600260205260409020546001600160a01b03161561427557600081815260026020526040902080546001600160a01b03191690555b50565b805461428b90600163ffffffff613cf516565b9055565b80546001019055565b828054600181600116156101000203166002900490600052602060002090601f016020900481019282601f106142d957805160ff1916838001178555614306565b82800160010185558215614306579182015b828111156143065782518255916020019190600101906142eb565b50614312929150614336565b5090565b815481835581811115611360576000838152602090206113609181019083015b6110e391905b80821115614312576000815560010161433c56fe4552433732314d61746368613a205468652073656c6563746564204e465420616c72656164792068617320616e2061756374696f6e5265656e7472616e637947756172643a207265656e7472616e742063616c6c005472616e73666572206661696c65642073656e64696e6720746f206f776e65722e4552433732314d61746368613a204f6e6c79206f776e65722063616e2061756374696f6e2074686973206974656d455243373231456e756d657261626c653a206f776e657220696e646578206f7574206f6620626f756e64734552433732313a207472616e7366657220746f206e6f6e20455243373231526563656976657220696d706c656d656e7465725472616e73666572206661696c65642073656e64696e6720746f206172746973742e4552433732314d61746368613a204f6e6c79206f776e65722063616e2073656c6c2074686973206974656d5472616e73666572206661696c65642e2073656e64696e6720746f2061646d696e4552433732313a207472616e7366657220746f20746865207a65726f20616464726573734552433732314d61746368613a205468652073656c6c65722063616e6e6f742062757920686973206f776e20636f6c6c65637469626c654552433732313a206f70657261746f7220717565727920666f72206e6f6e6578697374656e7420746f6b656e4552433732313a20617070726f76652063616c6c6572206973206e6f74206f776e6572206e6f7220617070726f76656420666f7220616c6c4552433732313a2062616c616e636520717565727920666f7220746865207a65726f20616464726573734552433732313a206f776e657220717565727920666f72206e6f6e6578697374656e7420746f6b656e536166654552433732313a206c6f772d6c6576656c2063616c6c206661696c65644d696e746572526f6c653a2063616c6c657220646f6573206e6f74206861766520746865204d696e74657220726f6c65526f6c65733a206163636f756e7420646f6573206e6f74206861766520726f6c6543616c6c6572206973206e6f742074686520617274697374206f6620746f6b656e70657263656e746167652053686f756c64206265206265747765656e203020616e6420313020536166654d6174683a206d756c7469706c69636174696f6e206f766572666c6f774552433732313a20617070726f76656420717565727920666f72206e6f6e6578697374656e7420746f6b656e4552433732314d657461646174613a2055524920736574206f66206e6f6e6578697374656e7420746f6b656e526f6c65733a206163636f756e7420697320746865207a65726f20616464726573734552433732313a207472616e73666572206f6620746f6b656e2074686174206973206e6f74206f776e4552433732314d657461646174613a2055524920717565727920666f72206e6f6e6578697374656e7420746f6b656e4552433732314d61746368613a205468652073656c6563746564204e4654206973206f70656e20666f722073616c652c2063616e6e6f742062652061756374696f6e65644552433732313a20617070726f76616c20746f2063757272656e74206f776e65724552433732314d61746368613a2054686520636f6c6c65637469626c65206973206e6f7420666f722073616c654552433732313a207472616e736665722063616c6c6572206973206e6f74206f776e6572206e6f7220617070726f766564455243373231456e756d657261626c653a20676c6f62616c20696e646578206f7574206f6620626f756e6473536166654552433732313a204552433230206f7065726174696f6e20646964206e6f7420737563636565644552433732314d61746368613a2043616e6e6f742073656c6c20616e206974656d2077686963682068617320616e206163746976652061756374696f6e4552433732314d61746368613a20546865206f776e65722063616e6e6f742062696420686973206f776e20636f6c6c65637469626c65a165627a7a72305820e8d81253f1939bd99c9124db8f03467438184cd39e2c1b0c8b88a7c51d5bc71e00294552433732314d61746368613a20436f6d6d697373696f6e20726174652068617320746f206265206265747765656e203020616e6420313030526f6c65733a206163636f756e7420697320746865207a65726f2061646472657373",
			"opcodes": "PUSH1 0x80 PUSH1 0x40 MSTORE CALLVALUE DUP1 ISZERO PUSH3 0x11 JUMPI PUSH1 0x0 DUP1 REVERT JUMPDEST POP PUSH1 0x40 MLOAD PUSH3 0x4F31 CODESIZE SUB DUP1 PUSH3 0x4F31 DUP4 CODECOPY DUP2 ADD DUP1 PUSH1 0x40 MSTORE PUSH1 0xE0 DUP2 LT ISZERO PUSH3 0x37 JUMPI PUSH1 0x0 DUP1 REVERT JUMPDEST DUP2 MLOAD PUSH1 0x20 DUP4 ADD MLOAD PUSH1 0x40 DUP5 ADD MLOAD PUSH1 0x60 DUP6 ADD DUP1 MLOAD SWAP4 SWAP6 SWAP3 SWAP5 SWAP2 SWAP4 SWAP2 DUP4 ADD SWAP3 SWAP2 PUSH5 0x100000000 DUP2 GT ISZERO PUSH3 0x67 JUMPI PUSH1 0x0 DUP1 REVERT JUMPDEST DUP3 ADD PUSH1 0x20 DUP2 ADD DUP5 DUP2 GT ISZERO PUSH3 0x7B JUMPI PUSH1 0x0 DUP1 REVERT JUMPDEST DUP2 MLOAD PUSH5 0x100000000 DUP2 GT DUP3 DUP3 ADD DUP8 LT OR ISZERO PUSH3 0x96 JUMPI PUSH1 0x0 DUP1 REVERT JUMPDEST POP POP SWAP3 SWAP2 SWAP1 PUSH1 0x20 ADD DUP1 MLOAD PUSH5 0x100000000 DUP2 GT ISZERO PUSH3 0xB3 JUMPI PUSH1 0x0 DUP1 REVERT JUMPDEST DUP3 ADD PUSH1 0x20 DUP2 ADD DUP5 DUP2 GT ISZERO PUSH3 0xC7 JUMPI PUSH1 0x0 DUP1 REVERT JUMPDEST DUP2 MLOAD PUSH5 0x100000000 DUP2 GT DUP3 DUP3 ADD DUP8 LT OR ISZERO PUSH3 0xE2 JUMPI PUSH1 0x0 DUP1 REVERT JUMPDEST POP POP PUSH1 0x20 DUP1 DUP4 ADD MLOAD PUSH1 0x40 SWAP1 SWAP4 ADD MLOAD SWAP2 SWAP5 POP SWAP2 SWAP3 POP SWAP1 DUP5 SWAP1 DUP5 SWAP1 DUP5 SWAP1 DUP4 SWAP1 DUP4 SWAP1 PUSH3 0x132 SWAP1 PUSH32 0x1FFC9A700000000000000000000000000000000000000000000000000000000 SWAP1 PUSH3 0x290 DUP2 SHL SWAP1 SHR JUMP JUMPDEST PUSH3 0x14A PUSH4 0x80AC58CD PUSH1 0xE0 SHL PUSH3 0x290 PUSH1 0x20 SHL PUSH1 0x20 SHR JUMP JUMPDEST PUSH3 0x162 PUSH4 0x780E9D63 PUSH1 0xE0 SHL PUSH3 0x290 PUSH1 0x20 SHL PUSH1 0x20 SHR JUMP JUMPDEST DUP2 MLOAD PUSH3 0x177 SWAP1 PUSH1 0x9 SWAP1 PUSH1 0x20 DUP6 ADD SWAP1 PUSH3 0x4EB JUMP JUMPDEST POP DUP1 MLOAD PUSH3 0x18D SWAP1 PUSH1 0xA SWAP1 PUSH1 0x20 DUP5 ADD SWAP1 PUSH3 0x4EB JUMP JUMPDEST POP PUSH3 0x1A6 PUSH4 0x5B5E139F PUSH1 0xE0 SHL PUSH3 0x290 PUSH1 0x20 SHL PUSH1 0x20 SHR JUMP JUMPDEST POP POP PUSH3 0x1B9 CALLER PUSH3 0x35F PUSH1 0x20 SHL PUSH1 0x20 SHR JUMP JUMPDEST PUSH3 0x1CA DUP2 PUSH3 0x3B1 PUSH1 0x20 SHL PUSH1 0x20 SHR JUMP JUMPDEST POP POP PUSH1 0x1 PUSH1 0xF SSTORE POP PUSH1 0x10 DUP1 SLOAD PUSH1 0x1 PUSH1 0x1 PUSH1 0xA0 SHL SUB DUP1 DUP10 AND PUSH1 0x1 PUSH1 0x1 PUSH1 0xA0 SHL SUB NOT SWAP3 DUP4 AND OR SWAP1 SWAP3 SSTORE PUSH1 0x11 DUP1 SLOAD SWAP3 DUP11 AND SWAP3 SWAP1 SWAP2 AND SWAP2 SWAP1 SWAP2 OR SWAP1 SSTORE PUSH1 0x64 DUP6 GT ISZERO PUSH3 0x25E JUMPI PUSH1 0x40 MLOAD PUSH32 0x8C379A000000000000000000000000000000000000000000000000000000000 DUP2 MSTORE PUSH1 0x4 ADD DUP1 DUP1 PUSH1 0x20 ADD DUP3 DUP2 SUB DUP3 MSTORE PUSH1 0x39 DUP2 MSTORE PUSH1 0x20 ADD DUP1 PUSH3 0x4ED6 PUSH1 0x39 SWAP2 CODECOPY PUSH1 0x40 ADD SWAP2 POP POP PUSH1 0x40 MLOAD DUP1 SWAP2 SUB SWAP1 REVERT JUMPDEST PUSH1 0x12 SWAP5 SWAP1 SWAP5 SSTORE POP POP PUSH1 0x13 DUP1 SLOAD PUSH1 0x1 PUSH1 0x1 PUSH1 0xA0 SHL SUB NOT AND PUSH1 0x1 PUSH1 0x1 PUSH1 0xA0 SHL SUB SWAP1 SWAP4 AND SWAP3 SWAP1 SWAP3 OR SWAP1 SWAP2 SSTORE POP PUSH3 0x590 SWAP2 POP POP JUMP JUMPDEST PUSH32 0xFFFFFFFF00000000000000000000000000000000000000000000000000000000 DUP1 DUP3 AND EQ ISZERO PUSH3 0x322 JUMPI PUSH1 0x40 DUP1 MLOAD PUSH32 0x8C379A000000000000000000000000000000000000000000000000000000000 DUP2 MSTORE PUSH1 0x20 PUSH1 0x4 DUP3 ADD MSTORE PUSH1 0x1C PUSH1 0x24 DUP3 ADD MSTORE PUSH32 0x4552433136353A20696E76616C696420696E7465726661636520696400000000 PUSH1 0x44 DUP3 ADD MSTORE SWAP1 MLOAD SWAP1 DUP2 SWAP1 SUB PUSH1 0x64 ADD SWAP1 REVERT JUMPDEST PUSH32 0xFFFFFFFF00000000000000000000000000000000000000000000000000000000 AND PUSH1 0x0 SWAP1 DUP2 MSTORE PUSH1 0x20 DUP2 SWAP1 MSTORE PUSH1 0x40 SWAP1 KECCAK256 DUP1 SLOAD PUSH1 0xFF NOT AND PUSH1 0x1 OR SWAP1 SSTORE JUMP JUMPDEST PUSH3 0x37A DUP2 PUSH1 0xC PUSH3 0x3C4 PUSH1 0x20 SHL PUSH3 0x414D OR SWAP1 SWAP2 SWAP1 PUSH1 0x20 SHR JUMP JUMPDEST PUSH1 0x40 MLOAD PUSH1 0x1 PUSH1 0x1 PUSH1 0xA0 SHL SUB DUP3 AND SWAP1 PUSH32 0x6AE172837EA30B801FBFCDD4108AA1D5BF8FF775444FD70256B44E6BF3DFC3F6 SWAP1 PUSH1 0x0 SWAP1 LOG2 POP JUMP JUMPDEST PUSH1 0xD DUP1 SLOAD PUSH1 0xFF NOT AND SWAP2 ISZERO ISZERO SWAP2 SWAP1 SWAP2 OR SWAP1 SSTORE JUMP JUMPDEST PUSH3 0x3D6 DUP3 DUP3 PUSH3 0x468 PUSH1 0x20 SHL PUSH1 0x20 SHR JUMP JUMPDEST ISZERO PUSH3 0x443 JUMPI PUSH1 0x40 DUP1 MLOAD PUSH32 0x8C379A000000000000000000000000000000000000000000000000000000000 DUP2 MSTORE PUSH1 0x20 PUSH1 0x4 DUP3 ADD MSTORE PUSH1 0x1F PUSH1 0x24 DUP3 ADD MSTORE PUSH32 0x526F6C65733A206163636F756E7420616C72656164792068617320726F6C6500 PUSH1 0x44 DUP3 ADD MSTORE SWAP1 MLOAD SWAP1 DUP2 SWAP1 SUB PUSH1 0x64 ADD SWAP1 REVERT JUMPDEST PUSH1 0x1 PUSH1 0x1 PUSH1 0xA0 SHL SUB AND PUSH1 0x0 SWAP1 DUP2 MSTORE PUSH1 0x20 SWAP2 SWAP1 SWAP2 MSTORE PUSH1 0x40 SWAP1 KECCAK256 DUP1 SLOAD PUSH1 0xFF NOT AND PUSH1 0x1 OR SWAP1 SSTORE JUMP JUMPDEST PUSH1 0x0 PUSH1 0x1 PUSH1 0x1 PUSH1 0xA0 SHL SUB DUP3 AND PUSH3 0x4CB JUMPI PUSH1 0x40 MLOAD PUSH32 0x8C379A000000000000000000000000000000000000000000000000000000000 DUP2 MSTORE PUSH1 0x4 ADD DUP1 DUP1 PUSH1 0x20 ADD DUP3 DUP2 SUB DUP3 MSTORE PUSH1 0x22 DUP2 MSTORE PUSH1 0x20 ADD DUP1 PUSH3 0x4F0F PUSH1 0x22 SWAP2 CODECOPY PUSH1 0x40 ADD SWAP2 POP POP PUSH1 0x40 MLOAD DUP1 SWAP2 SUB SWAP1 REVERT JUMPDEST POP PUSH1 0x1 PUSH1 0x1 PUSH1 0xA0 SHL SUB AND PUSH1 0x0 SWAP1 DUP2 MSTORE PUSH1 0x20 SWAP2 SWAP1 SWAP2 MSTORE PUSH1 0x40 SWAP1 KECCAK256 SLOAD PUSH1 0xFF AND SWAP1 JUMP JUMPDEST DUP3 DUP1 SLOAD PUSH1 0x1 DUP2 PUSH1 0x1 AND ISZERO PUSH2 0x100 MUL SUB AND PUSH1 0x2 SWAP1 DIV SWAP1 PUSH1 0x0 MSTORE PUSH1 0x20 PUSH1 0x0 KECCAK256 SWAP1 PUSH1 0x1F ADD PUSH1 0x20 SWAP1 DIV DUP2 ADD SWAP3 DUP3 PUSH1 0x1F LT PUSH3 0x52E JUMPI DUP1 MLOAD PUSH1 0xFF NOT AND DUP4 DUP1 ADD OR DUP6 SSTORE PUSH3 0x55E JUMP JUMPDEST DUP3 DUP1 ADD PUSH1 0x1 ADD DUP6 SSTORE DUP3 ISZERO PUSH3 0x55E JUMPI SWAP2 DUP3 ADD JUMPDEST DUP3 DUP2 GT ISZERO PUSH3 0x55E JUMPI DUP3 MLOAD DUP3 SSTORE SWAP2 PUSH1 0x20 ADD SWAP2 SWAP1 PUSH1 0x1 ADD SWAP1 PUSH3 0x541 JUMP JUMPDEST POP PUSH3 0x56C SWAP3 SWAP2 POP PUSH3 0x570 JUMP JUMPDEST POP SWAP1 JUMP JUMPDEST PUSH3 0x58D SWAP2 SWAP1 JUMPDEST DUP1 DUP3 GT ISZERO PUSH3 0x56C JUMPI PUSH1 0x0 DUP2 SSTORE PUSH1 0x1 ADD PUSH3 0x577 JUMP JUMPDEST SWAP1 JUMP JUMPDEST PUSH2 0x4936 DUP1 PUSH3 0x5A0 PUSH1 0x0 CODECOPY PUSH1 0x0 RETURN INVALID PUSH1 0x80 PUSH1 0x40 MSTORE PUSH1 0x4 CALLDATASIZE LT PUSH2 0x2E4 JUMPI PUSH1 0x0 CALLDATALOAD PUSH1 0xE0 SHR DUP1 PUSH4 0x7C0DF779 GT PUSH2 0x190 JUMPI DUP1 PUSH4 0xB14C63C5 GT PUSH2 0xDC JUMPI DUP1 PUSH4 0xD96A094A GT PUSH2 0x95 JUMPI DUP1 PUSH4 0xE7572230 GT PUSH2 0x6F JUMPI DUP1 PUSH4 0xE7572230 EQ PUSH2 0xF6A JUMPI DUP1 PUSH4 0xE985E9C5 EQ PUSH2 0xFB2 JUMPI DUP1 PUSH4 0xEE1B59E4 EQ PUSH2 0xFED JUMPI DUP1 PUSH4 0xFBE85F06 EQ PUSH2 0x1002 JUMPI PUSH2 0x2E4 JUMP JUMPDEST DUP1 PUSH4 0xD96A094A EQ PUSH2 0xEF9 JUMPI DUP1 PUSH4 0xDC16BD43 EQ PUSH2 0xF16 JUMPI DUP1 PUSH4 0xE4E2BFE4 EQ PUSH2 0xF40 JUMPI PUSH2 0x2E4 JUMP JUMPDEST DUP1 PUSH4 0xB14C63C5 EQ PUSH2 0xD26 JUMPI DUP1 PUSH4 0xB1CB48EF EQ PUSH2 0xD50 JUMPI DUP1 PUSH4 0xB2ECFAD4 EQ PUSH2 0xD95 JUMPI DUP1 PUSH4 0xB88D4FDE EQ PUSH2 0xDBF JUMPI DUP1 PUSH4 0xC87B56DD EQ PUSH2 0xE90 JUMPI DUP1 PUSH4 0xD04C6983 EQ PUSH2 0xEBA JUMPI PUSH2 0x2E4 JUMP JUMPDEST DUP1 PUSH4 0x9E0C8976 GT PUSH2 0x149 JUMPI DUP1 PUSH4 0xA9059CBB GT PUSH2 0x123 JUMPI DUP1 PUSH4 0xA9059CBB EQ PUSH2 0xC75 JUMPI DUP1 PUSH4 0xAA271E1A EQ PUSH2 0xCAE JUMPI DUP1 PUSH4 0xAC2CCFAE EQ PUSH2 0xCE1 JUMPI DUP1 PUSH4 0xB13FBE96 EQ PUSH2 0xD11 JUMPI PUSH2 0x2E4 JUMP JUMPDEST DUP1 PUSH4 0x9E0C8976 EQ PUSH2 0xBE0 JUMPI DUP1 PUSH4 0xA22CB465 EQ PUSH2 0xC10 JUMPI DUP1 PUSH4 0xA36B1462 EQ PUSH2 0xC4B JUMPI PUSH2 0x2E4 JUMP JUMPDEST DUP1 PUSH4 0x7C0DF779 EQ PUSH2 0xA23 JUMPI DUP1 PUSH4 0x8462151C EQ PUSH2 0xAD6 JUMPI DUP1 PUSH4 0x89F4C0B1 EQ PUSH2 0xB59 JUMPI DUP1 PUSH4 0x95D89B41 EQ PUSH2 0xB83 JUMPI DUP1 PUSH4 0x983B2D56 EQ PUSH2 0xB98 JUMPI DUP1 PUSH4 0x98650275 EQ PUSH2 0xBCB JUMPI PUSH2 0x2E4 JUMP JUMPDEST DUP1 PUSH4 0x384F58EB GT PUSH2 0x24F JUMPI DUP1 PUSH4 0x4F558E79 GT PUSH2 0x208 JUMPI DUP1 PUSH4 0x571A26A0 GT PUSH2 0x1E2 JUMPI DUP1 PUSH4 0x571A26A0 EQ PUSH2 0x89C JUMPI DUP1 PUSH4 0x61A09C97 EQ PUSH2 0x90A JUMPI DUP1 PUSH4 0x6352211E EQ PUSH2 0x9C6 JUMPI DUP1 PUSH4 0x70A08231 EQ PUSH2 0x9F0 JUMPI PUSH2 0x2E4 JUMP JUMPDEST DUP1 PUSH4 0x4F558E79 EQ PUSH2 0x782 JUMPI DUP1 PUSH4 0x4F6CCCE7 EQ PUSH2 0x7AC JUMPI DUP1 PUSH4 0x50BB4E7F EQ PUSH2 0x7D6 JUMPI PUSH2 0x2E4 JUMP JUMPDEST DUP1 PUSH4 0x384F58EB EQ PUSH2 0x680 JUMPI DUP1 PUSH4 0x3CA88A2F EQ PUSH2 0x695 JUMPI DUP1 PUSH4 0x40C10F19 EQ PUSH2 0x6BF JUMPI DUP1 PUSH4 0x42842E0E EQ PUSH2 0x6F8 JUMPI DUP1 PUSH4 0x451DF52E EQ PUSH2 0x73B JUMPI DUP1 PUSH4 0x454A2AB3 EQ PUSH2 0x765 JUMPI PUSH2 0x2E4 JUMP JUMPDEST DUP1 PUSH4 0x172B099D GT PUSH2 0x2A1 JUMPI DUP1 PUSH4 0x172B099D EQ PUSH2 0x548 JUMPI DUP1 PUSH4 0x18160DDD EQ PUSH2 0x584 JUMPI DUP1 PUSH4 0x1AC70F6F EQ PUSH2 0x599 JUMPI DUP1 PUSH4 0x23B872DD EQ PUSH2 0x5C3 JUMPI DUP1 PUSH4 0x263F5877 EQ PUSH2 0x606 JUMPI DUP1 PUSH4 0x2F745C59 EQ PUSH2 0x647 JUMPI PUSH2 0x2E4 JUMP JUMPDEST DUP1 PUSH4 0x1FFC9A7 EQ PUSH2 0x2E9 JUMPI DUP1 PUSH4 0x6FDDE03 EQ PUSH2 0x331 JUMPI DUP1 PUSH4 0x81812FC EQ PUSH2 0x3BB JUMPI DUP1 PUSH4 0x95EA7B3 EQ PUSH2 0x401 JUMPI DUP1 PUSH4 0xD4578E3 EQ PUSH2 0x43C JUMPI DUP1 PUSH4 0x162094C4 EQ PUSH2 0x490 JUMPI JUMPDEST PUSH1 0x0 DUP1 REVERT JUMPDEST CALLVALUE DUP1 ISZERO PUSH2 0x2F5 JUMPI PUSH1 0x0 DUP1 REVERT JUMPDEST POP PUSH2 0x31D PUSH1 0x4 DUP1 CALLDATASIZE SUB PUSH1 0x20 DUP2 LT ISZERO PUSH2 0x30C JUMPI PUSH1 0x0 DUP1 REVERT JUMPDEST POP CALLDATALOAD PUSH1 0x1 PUSH1 0x1 PUSH1 0xE0 SHL SUB NOT AND PUSH2 0x102C JUMP JUMPDEST PUSH1 0x40 DUP1 MLOAD SWAP2 ISZERO ISZERO DUP3 MSTORE MLOAD SWAP1 DUP2 SWAP1 SUB PUSH1 0x20 ADD SWAP1 RETURN JUMPDEST CALLVALUE DUP1 ISZERO PUSH2 0x33D JUMPI PUSH1 0x0 DUP1 REVERT JUMPDEST POP PUSH2 0x346 PUSH2 0x104F JUMP JUMPDEST PUSH1 0x40 DUP1 MLOAD PUSH1 0x20 DUP1 DUP3 MSTORE DUP4 MLOAD DUP2 DUP4 ADD MSTORE DUP4 MLOAD SWAP2 SWAP3 DUP4 SWAP3 SWAP1 DUP4 ADD SWAP2 DUP6 ADD SWAP1 DUP1 DUP4 DUP4 PUSH1 0x0 JUMPDEST DUP4 DUP2 LT ISZERO PUSH2 0x380 JUMPI DUP2 DUP2 ADD MLOAD DUP4 DUP3 ADD MSTORE PUSH1 0x20 ADD PUSH2 0x368 JUMP JUMPDEST POP POP POP POP SWAP1 POP SWAP1 DUP2 ADD SWAP1 PUSH1 0x1F AND DUP1 ISZERO PUSH2 0x3AD JUMPI DUP1 DUP3 SUB DUP1 MLOAD PUSH1 0x1 DUP4 PUSH1 0x20 SUB PUSH2 0x100 EXP SUB NOT AND DUP2 MSTORE PUSH1 0x20 ADD SWAP2 POP JUMPDEST POP SWAP3 POP POP POP PUSH1 0x40 MLOAD DUP1 SWAP2 SUB SWAP1 RETURN JUMPDEST CALLVALUE DUP1 ISZERO PUSH2 0x3C7 JUMPI PUSH1 0x0 DUP1 REVERT JUMPDEST POP PUSH2 0x3E5 PUSH1 0x4 DUP1 CALLDATASIZE SUB PUSH1 0x20 DUP2 LT ISZERO PUSH2 0x3DE JUMPI PUSH1 0x0 DUP1 REVERT JUMPDEST POP CALLDATALOAD PUSH2 0x10E6 JUMP JUMPDEST PUSH1 0x40 DUP1 MLOAD PUSH1 0x1 PUSH1 0x1 PUSH1 0xA0 SHL SUB SWAP1 SWAP3 AND DUP3 MSTORE MLOAD SWAP1 DUP2 SWAP1 SUB PUSH1 0x20 ADD SWAP1 RETURN JUMPDEST CALLVALUE DUP1 ISZERO PUSH2 0x40D JUMPI PUSH1 0x0 DUP1 REVERT JUMPDEST POP PUSH2 0x43A PUSH1 0x4 DUP1 CALLDATASIZE SUB PUSH1 0x40 DUP2 LT ISZERO PUSH2 0x424 JUMPI PUSH1 0x0 DUP1 REVERT JUMPDEST POP PUSH1 0x1 PUSH1 0x1 PUSH1 0xA0 SHL SUB DUP2 CALLDATALOAD AND SWAP1 PUSH1 0x20 ADD CALLDATALOAD PUSH2 0x114B JUMP JUMPDEST STOP JUMPDEST CALLVALUE DUP1 ISZERO PUSH2 0x448 JUMPI PUSH1 0x0 DUP1 REVERT JUMPDEST POP PUSH2 0x466 PUSH1 0x4 DUP1 CALLDATASIZE SUB PUSH1 0x20 DUP2 LT ISZERO PUSH2 0x45F JUMPI PUSH1 0x0 DUP1 REVERT JUMPDEST POP CALLDATALOAD PUSH2 0x1262 JUMP JUMPDEST PUSH1 0x40 DUP1 MLOAD PUSH1 0x1 PUSH1 0x1 PUSH1 0xA0 SHL SUB SWAP1 SWAP5 AND DUP5 MSTORE PUSH1 0x20 DUP5 ADD SWAP3 SWAP1 SWAP3 MSTORE ISZERO ISZERO DUP3 DUP3 ADD MSTORE MLOAD SWAP1 DUP2 SWAP1 SUB PUSH1 0x60 ADD SWAP1 RETURN JUMPDEST CALLVALUE DUP1 ISZERO PUSH2 0x49C JUMPI PUSH1 0x0 DUP1 REVERT JUMPDEST POP PUSH2 0x43A PUSH1 0x4 DUP1 CALLDATASIZE SUB PUSH1 0x40 DUP2 LT ISZERO PUSH2 0x4B3 JUMPI PUSH1 0x0 DUP1 REVERT JUMPDEST DUP2 CALLDATALOAD SWAP2 SWAP1 DUP2 ADD SWAP1 PUSH1 0x40 DUP2 ADD PUSH1 0x20 DUP3 ADD CALLDATALOAD PUSH1 0x1 PUSH1 0x20 SHL DUP2 GT ISZERO PUSH2 0x4D4 JUMPI PUSH1 0x0 DUP1 REVERT JUMPDEST DUP3 ADD DUP4 PUSH1 0x20 DUP3 ADD GT ISZERO PUSH2 0x4E6 JUMPI PUSH1 0x0 DUP1 REVERT JUMPDEST DUP1 CALLDATALOAD SWAP1 PUSH1 0x20 ADD SWAP2 DUP5 PUSH1 0x1 DUP4 MUL DUP5 ADD GT PUSH1 0x1 PUSH1 0x20 SHL DUP4 GT OR ISZERO PUSH2 0x507 JUMPI PUSH1 0x0 DUP1 REVERT JUMPDEST SWAP2 SWAP1 DUP1 DUP1 PUSH1 0x1F ADD PUSH1 0x20 DUP1 SWAP2 DIV MUL PUSH1 0x20 ADD PUSH1 0x40 MLOAD SWAP1 DUP2 ADD PUSH1 0x40 MSTORE DUP1 SWAP4 SWAP3 SWAP2 SWAP1 DUP2 DUP2 MSTORE PUSH1 0x20 ADD DUP4 DUP4 DUP1 DUP3 DUP5 CALLDATACOPY PUSH1 0x0 SWAP3 ADD SWAP2 SWAP1 SWAP2 MSTORE POP SWAP3 SWAP6 POP PUSH2 0x1295 SWAP5 POP POP POP POP POP JUMP JUMPDEST CALLVALUE DUP1 ISZERO PUSH2 0x554 JUMPI PUSH1 0x0 DUP1 REVERT JUMPDEST POP PUSH2 0x572 PUSH1 0x4 DUP1 CALLDATASIZE SUB PUSH1 0x20 DUP2 LT ISZERO PUSH2 0x56B JUMPI PUSH1 0x0 DUP1 REVERT JUMPDEST POP CALLDATALOAD PUSH2 0x12A3 JUMP JUMPDEST PUSH1 0x40 DUP1 MLOAD SWAP2 DUP3 MSTORE MLOAD SWAP1 DUP2 SWAP1 SUB PUSH1 0x20 ADD SWAP1 RETURN JUMPDEST CALLVALUE DUP1 ISZERO PUSH2 0x590 JUMPI PUSH1 0x0 DUP1 REVERT JUMPDEST POP PUSH2 0x572 PUSH2 0x12B5 JUMP JUMPDEST CALLVALUE DUP1 ISZERO PUSH2 0x5A5 JUMPI PUSH1 0x0 DUP1 REVERT JUMPDEST POP PUSH2 0x31D PUSH1 0x4 DUP1 CALLDATASIZE SUB PUSH1 0x20 DUP2 LT ISZERO PUSH2 0x5BC JUMPI PUSH1 0x0 DUP1 REVERT JUMPDEST POP CALLDATALOAD PUSH2 0x12BB JUMP JUMPDEST CALLVALUE DUP1 ISZERO PUSH2 0x5CF JUMPI PUSH1 0x0 DUP1 REVERT JUMPDEST POP PUSH2 0x43A PUSH1 0x4 DUP1 CALLDATASIZE SUB PUSH1 0x60 DUP2 LT ISZERO PUSH2 0x5E6 JUMPI PUSH1 0x0 DUP1 REVERT JUMPDEST POP PUSH1 0x1 PUSH1 0x1 PUSH1 0xA0 SHL SUB DUP2 CALLDATALOAD DUP2 AND SWAP2 PUSH1 0x20 DUP2 ADD CALLDATALOAD SWAP1 SWAP2 AND SWAP1 PUSH1 0x40 ADD CALLDATALOAD PUSH2 0x130D JUMP JUMPDEST CALLVALUE DUP1 ISZERO PUSH2 0x612 JUMPI PUSH1 0x0 DUP1 REVERT JUMPDEST POP PUSH2 0x43A PUSH1 0x4 DUP1 CALLDATASIZE SUB PUSH1 0x60 DUP2 LT ISZERO PUSH2 0x629 JUMPI PUSH1 0x0 DUP1 REVERT JUMPDEST POP PUSH1 0x1 PUSH1 0x1 PUSH1 0xA0 SHL SUB DUP2 CALLDATALOAD AND SWAP1 PUSH1 0x20 DUP2 ADD CALLDATALOAD SWAP1 PUSH1 0x40 ADD CALLDATALOAD ISZERO ISZERO PUSH2 0x1365 JUMP JUMPDEST CALLVALUE DUP1 ISZERO PUSH2 0x653 JUMPI PUSH1 0x0 DUP1 REVERT JUMPDEST POP PUSH2 0x572 PUSH1 0x4 DUP1 CALLDATASIZE SUB PUSH1 0x40 DUP2 LT ISZERO PUSH2 0x66A JUMPI PUSH1 0x0 DUP1 REVERT JUMPDEST POP PUSH1 0x1 PUSH1 0x1 PUSH1 0xA0 SHL SUB DUP2 CALLDATALOAD AND SWAP1 PUSH1 0x20 ADD CALLDATALOAD PUSH2 0x13FE JUMP JUMPDEST CALLVALUE DUP1 ISZERO PUSH2 0x68C JUMPI PUSH1 0x0 DUP1 REVERT JUMPDEST POP PUSH2 0x3E5 PUSH2 0x1480 JUMP JUMPDEST CALLVALUE DUP1 ISZERO PUSH2 0x6A1 JUMPI PUSH1 0x0 DUP1 REVERT JUMPDEST POP PUSH2 0x572 PUSH1 0x4 DUP1 CALLDATASIZE SUB PUSH1 0x20 DUP2 LT ISZERO PUSH2 0x6B8 JUMPI PUSH1 0x0 DUP1 REVERT JUMPDEST POP CALLDATALOAD PUSH2 0x148F JUMP JUMPDEST CALLVALUE DUP1 ISZERO PUSH2 0x6CB JUMPI PUSH1 0x0 DUP1 REVERT JUMPDEST POP PUSH2 0x31D PUSH1 0x4 DUP1 CALLDATASIZE SUB PUSH1 0x40 DUP2 LT ISZERO PUSH2 0x6E2 JUMPI PUSH1 0x0 DUP1 REVERT JUMPDEST POP PUSH1 0x1 PUSH1 0x1 PUSH1 0xA0 SHL SUB DUP2 CALLDATALOAD AND SWAP1 PUSH1 0x20 ADD CALLDATALOAD PUSH2 0x1515 JUMP JUMPDEST CALLVALUE DUP1 ISZERO PUSH2 0x704 JUMPI PUSH1 0x0 DUP1 REVERT JUMPDEST POP PUSH2 0x43A PUSH1 0x4 DUP1 CALLDATASIZE SUB PUSH1 0x60 DUP2 LT ISZERO PUSH2 0x71B JUMPI PUSH1 0x0 DUP1 REVERT JUMPDEST POP PUSH1 0x1 PUSH1 0x1 PUSH1 0xA0 SHL SUB DUP2 CALLDATALOAD DUP2 AND SWAP2 PUSH1 0x20 DUP2 ADD CALLDATALOAD SWAP1 SWAP2 AND SWAP1 PUSH1 0x40 ADD CALLDATALOAD PUSH2 0x1573 JUMP JUMPDEST CALLVALUE DUP1 ISZERO PUSH2 0x747 JUMPI PUSH1 0x0 DUP1 REVERT JUMPDEST POP PUSH2 0x3E5 PUSH1 0x4 DUP1 CALLDATASIZE SUB PUSH1 0x20 DUP2 LT ISZERO PUSH2 0x75E JUMPI PUSH1 0x0 DUP1 REVERT JUMPDEST POP CALLDATALOAD PUSH2 0x158E JUMP JUMPDEST PUSH2 0x43A PUSH1 0x4 DUP1 CALLDATASIZE SUB PUSH1 0x20 DUP2 LT ISZERO PUSH2 0x77B JUMPI PUSH1 0x0 DUP1 REVERT JUMPDEST POP CALLDATALOAD PUSH2 0x15AC JUMP JUMPDEST CALLVALUE DUP1 ISZERO PUSH2 0x78E JUMPI PUSH1 0x0 DUP1 REVERT JUMPDEST POP PUSH2 0x31D PUSH1 0x4 DUP1 CALLDATASIZE SUB PUSH1 0x20 DUP2 LT ISZERO PUSH2 0x7A5 JUMPI PUSH1 0x0 DUP1 REVERT JUMPDEST POP CALLDATALOAD PUSH2 0x19EF JUMP JUMPDEST CALLVALUE DUP1 ISZERO PUSH2 0x7B8 JUMPI PUSH1 0x0 DUP1 REVERT JUMPDEST POP PUSH2 0x572 PUSH1 0x4 DUP1 CALLDATASIZE SUB PUSH1 0x20 DUP2 LT ISZERO PUSH2 0x7CF JUMPI PUSH1 0x0 DUP1 REVERT JUMPDEST POP CALLDATALOAD PUSH2 0x19FA JUMP JUMPDEST CALLVALUE DUP1 ISZERO PUSH2 0x7E2 JUMPI PUSH1 0x0 DUP1 REVERT JUMPDEST POP PUSH2 0x31D PUSH1 0x4 DUP1 CALLDATASIZE SUB PUSH1 0x60 DUP2 LT ISZERO PUSH2 0x7F9 JUMPI PUSH1 0x0 DUP1 REVERT JUMPDEST PUSH1 0x1 PUSH1 0x1 PUSH1 0xA0 SHL SUB DUP3 CALLDATALOAD AND SWAP2 PUSH1 0x20 DUP2 ADD CALLDATALOAD SWAP2 DUP2 ADD SWAP1 PUSH1 0x60 DUP2 ADD PUSH1 0x40 DUP3 ADD CALLDATALOAD PUSH1 0x1 PUSH1 0x20 SHL DUP2 GT ISZERO PUSH2 0x828 JUMPI PUSH1 0x0 DUP1 REVERT JUMPDEST DUP3 ADD DUP4 PUSH1 0x20 DUP3 ADD GT ISZERO PUSH2 0x83A JUMPI PUSH1 0x0 DUP1 REVERT JUMPDEST DUP1 CALLDATALOAD SWAP1 PUSH1 0x20 ADD SWAP2 DUP5 PUSH1 0x1 DUP4 MUL DUP5 ADD GT PUSH1 0x1 PUSH1 0x20 SHL DUP4 GT OR ISZERO PUSH2 0x85B JUMPI PUSH1 0x0 DUP1 REVERT JUMPDEST SWAP2 SWAP1 DUP1 DUP1 PUSH1 0x1F ADD PUSH1 0x20 DUP1 SWAP2 DIV MUL PUSH1 0x20 ADD PUSH1 0x40 MLOAD SWAP1 DUP2 ADD PUSH1 0x40 MSTORE DUP1 SWAP4 SWAP3 SWAP2 SWAP1 DUP2 DUP2 MSTORE PUSH1 0x20 ADD DUP4 DUP4 DUP1 DUP3 DUP5 CALLDATACOPY PUSH1 0x0 SWAP3 ADD SWAP2 SWAP1 SWAP2 MSTORE POP SWAP3 SWAP6 POP PUSH2 0x1A63 SWAP5 POP POP POP POP POP JUMP JUMPDEST CALLVALUE DUP1 ISZERO PUSH2 0x8A8 JUMPI PUSH1 0x0 DUP1 REVERT JUMPDEST POP PUSH2 0x8C6 PUSH1 0x4 DUP1 CALLDATASIZE SUB PUSH1 0x20 DUP2 LT ISZERO PUSH2 0x8BF JUMPI PUSH1 0x0 DUP1 REVERT JUMPDEST POP CALLDATALOAD PUSH2 0x1ACC JUMP JUMPDEST PUSH1 0x40 DUP1 MLOAD PUSH1 0x1 PUSH1 0x1 PUSH1 0xA0 SHL SUB SWAP8 DUP9 AND DUP2 MSTORE PUSH1 0x20 DUP2 ADD SWAP7 SWAP1 SWAP7 MSTORE SWAP4 SWAP1 SWAP6 AND DUP5 DUP5 ADD MSTORE PUSH1 0x60 DUP5 ADD SWAP2 SWAP1 SWAP2 MSTORE ISZERO ISZERO PUSH1 0x80 DUP4 ADD MSTORE PUSH1 0xA0 DUP3 ADD SWAP3 SWAP1 SWAP3 MSTORE SWAP1 MLOAD SWAP1 DUP2 SWAP1 SUB PUSH1 0xC0 ADD SWAP1 RETURN JUMPDEST CALLVALUE DUP1 ISZERO PUSH2 0x916 JUMPI PUSH1 0x0 DUP1 REVERT JUMPDEST POP PUSH2 0x31D PUSH1 0x4 DUP1 CALLDATASIZE SUB PUSH1 0x40 DUP2 LT ISZERO PUSH2 0x92D JUMPI PUSH1 0x0 DUP1 REVERT JUMPDEST DUP2 ADD SWAP1 PUSH1 0x20 DUP2 ADD DUP2 CALLDATALOAD PUSH1 0x1 PUSH1 0x20 SHL DUP2 GT ISZERO PUSH2 0x947 JUMPI PUSH1 0x0 DUP1 REVERT JUMPDEST DUP3 ADD DUP4 PUSH1 0x20 DUP3 ADD GT ISZERO PUSH2 0x959 JUMPI PUSH1 0x0 DUP1 REVERT JUMPDEST DUP1 CALLDATALOAD SWAP1 PUSH1 0x20 ADD SWAP2 DUP5 PUSH1 0x1 DUP4 MUL DUP5 ADD GT PUSH1 0x1 PUSH1 0x20 SHL DUP4 GT OR ISZERO PUSH2 0x97A JUMPI PUSH1 0x0 DUP1 REVERT JUMPDEST SWAP2 SWAP1 DUP1 DUP1 PUSH1 0x1F ADD PUSH1 0x20 DUP1 SWAP2 DIV MUL PUSH1 0x20 ADD PUSH1 0x40 MLOAD SWAP1 DUP2 ADD PUSH1 0x40 MSTORE DUP1 SWAP4 SWAP3 SWAP2 SWAP1 DUP2 DUP2 MSTORE PUSH1 0x20 ADD DUP4 DUP4 DUP1 DUP3 DUP5 CALLDATACOPY PUSH1 0x0 SWAP3 ADD SWAP2 SWAP1 SWAP2 MSTORE POP SWAP3 SWAP6 POP POP POP SWAP1 CALLDATALOAD PUSH1 0x1 PUSH1 0x1 PUSH1 0xA0 SHL SUB AND SWAP2 POP PUSH2 0x1B13 SWAP1 POP JUMP JUMPDEST CALLVALUE DUP1 ISZERO PUSH2 0x9D2 JUMPI PUSH1 0x0 DUP1 REVERT JUMPDEST POP PUSH2 0x3E5 PUSH1 0x4 DUP1 CALLDATASIZE SUB PUSH1 0x20 DUP2 LT ISZERO PUSH2 0x9E9 JUMPI PUSH1 0x0 DUP1 REVERT JUMPDEST POP CALLDATALOAD PUSH2 0x1B8D JUMP JUMPDEST CALLVALUE DUP1 ISZERO PUSH2 0x9FC JUMPI PUSH1 0x0 DUP1 REVERT JUMPDEST POP PUSH2 0x572 PUSH1 0x4 DUP1 CALLDATASIZE SUB PUSH1 0x20 DUP2 LT ISZERO PUSH2 0xA13 JUMPI PUSH1 0x0 DUP1 REVERT JUMPDEST POP CALLDATALOAD PUSH1 0x1 PUSH1 0x1 PUSH1 0xA0 SHL SUB AND PUSH2 0x1BE4 JUMP JUMPDEST CALLVALUE DUP1 ISZERO PUSH2 0xA2F JUMPI PUSH1 0x0 DUP1 REVERT JUMPDEST POP PUSH2 0x43A PUSH1 0x4 DUP1 CALLDATASIZE SUB PUSH1 0x40 DUP2 LT ISZERO PUSH2 0xA46 JUMPI PUSH1 0x0 DUP1 REVERT JUMPDEST DUP2 ADD SWAP1 PUSH1 0x20 DUP2 ADD DUP2 CALLDATALOAD PUSH1 0x1 PUSH1 0x20 SHL DUP2 GT ISZERO PUSH2 0xA60 JUMPI PUSH1 0x0 DUP1 REVERT JUMPDEST DUP3 ADD DUP4 PUSH1 0x20 DUP3 ADD GT ISZERO PUSH2 0xA72 JUMPI PUSH1 0x0 DUP1 REVERT JUMPDEST DUP1 CALLDATALOAD SWAP1 PUSH1 0x20 ADD SWAP2 DUP5 PUSH1 0x1 DUP4 MUL DUP5 ADD GT PUSH1 0x1 PUSH1 0x20 SHL DUP4 GT OR ISZERO PUSH2 0xA93 JUMPI PUSH1 0x0 DUP1 REVERT JUMPDEST SWAP2 SWAP1 DUP1 DUP1 PUSH1 0x1F ADD PUSH1 0x20 DUP1 SWAP2 DIV MUL PUSH1 0x20 ADD PUSH1 0x40 MLOAD SWAP1 DUP2 ADD PUSH1 0x40 MSTORE DUP1 SWAP4 SWAP3 SWAP2 SWAP1 DUP2 DUP2 MSTORE PUSH1 0x20 ADD DUP4 DUP4 DUP1 DUP3 DUP5 CALLDATACOPY PUSH1 0x0 SWAP3 ADD SWAP2 SWAP1 SWAP2 MSTORE POP SWAP3 SWAP6 POP POP SWAP2 CALLDATALOAD SWAP3 POP PUSH2 0x1C4F SWAP2 POP POP JUMP JUMPDEST CALLVALUE DUP1 ISZERO PUSH2 0xAE2 JUMPI PUSH1 0x0 DUP1 REVERT JUMPDEST POP PUSH2 0xB09 PUSH1 0x4 DUP1 CALLDATASIZE SUB PUSH1 0x20 DUP2 LT ISZERO PUSH2 0xAF9 JUMPI PUSH1 0x0 DUP1 REVERT JUMPDEST POP CALLDATALOAD PUSH1 0x1 PUSH1 0x1 PUSH1 0xA0 SHL SUB AND PUSH2 0x1D10 JUMP JUMPDEST PUSH1 0x40 DUP1 MLOAD PUSH1 0x20 DUP1 DUP3 MSTORE DUP4 MLOAD DUP2 DUP4 ADD MSTORE DUP4 MLOAD SWAP2 SWAP3 DUP4 SWAP3 SWAP1 DUP4 ADD SWAP2 DUP6 DUP2 ADD SWAP2 MUL DUP1 DUP4 DUP4 PUSH1 0x0 JUMPDEST DUP4 DUP2 LT ISZERO PUSH2 0xB45 JUMPI DUP2 DUP2 ADD MLOAD DUP4 DUP3 ADD MSTORE PUSH1 0x20 ADD PUSH2 0xB2D JUMP JUMPDEST POP POP POP POP SWAP1 POP ADD SWAP3 POP POP POP PUSH1 0x40 MLOAD DUP1 SWAP2 SUB SWAP1 RETURN JUMPDEST CALLVALUE DUP1 ISZERO PUSH2 0xB65 JUMPI PUSH1 0x0 DUP1 REVERT JUMPDEST POP PUSH2 0x31D PUSH1 0x4 DUP1 CALLDATASIZE SUB PUSH1 0x20 DUP2 LT ISZERO PUSH2 0xB7C JUMPI PUSH1 0x0 DUP1 REVERT JUMPDEST POP CALLDATALOAD PUSH2 0x1D71 JUMP JUMPDEST CALLVALUE DUP1 ISZERO PUSH2 0xB8F JUMPI PUSH1 0x0 DUP1 REVERT JUMPDEST POP PUSH2 0x346 PUSH2 0x1E06 JUMP JUMPDEST CALLVALUE DUP1 ISZERO PUSH2 0xBA4 JUMPI PUSH1 0x0 DUP1 REVERT JUMPDEST POP PUSH2 0x43A PUSH1 0x4 DUP1 CALLDATASIZE SUB PUSH1 0x20 DUP2 LT ISZERO PUSH2 0xBBB JUMPI PUSH1 0x0 DUP1 REVERT JUMPDEST POP CALLDATALOAD PUSH1 0x1 PUSH1 0x1 PUSH1 0xA0 SHL SUB AND PUSH2 0x1E67 JUMP JUMPDEST CALLVALUE DUP1 ISZERO PUSH2 0xBD7 JUMPI PUSH1 0x0 DUP1 REVERT JUMPDEST POP PUSH2 0x43A PUSH2 0x1EB8 JUMP JUMPDEST CALLVALUE DUP1 ISZERO PUSH2 0xBEC JUMPI PUSH1 0x0 DUP1 REVERT JUMPDEST POP PUSH2 0x31D PUSH1 0x4 DUP1 CALLDATASIZE SUB PUSH1 0x40 DUP2 LT ISZERO PUSH2 0xC03 JUMPI PUSH1 0x0 DUP1 REVERT JUMPDEST POP DUP1 CALLDATALOAD SWAP1 PUSH1 0x20 ADD CALLDATALOAD PUSH2 0x1EC3 JUMP JUMPDEST CALLVALUE DUP1 ISZERO PUSH2 0xC1C JUMPI PUSH1 0x0 DUP1 REVERT JUMPDEST POP PUSH2 0x43A PUSH1 0x4 DUP1 CALLDATASIZE SUB PUSH1 0x40 DUP2 LT ISZERO PUSH2 0xC33 JUMPI PUSH1 0x0 DUP1 REVERT JUMPDEST POP PUSH1 0x1 PUSH1 0x1 PUSH1 0xA0 SHL SUB DUP2 CALLDATALOAD AND SWAP1 PUSH1 0x20 ADD CALLDATALOAD ISZERO ISZERO PUSH2 0x1F36 JUMP JUMPDEST CALLVALUE DUP1 ISZERO PUSH2 0xC57 JUMPI PUSH1 0x0 DUP1 REVERT JUMPDEST POP PUSH2 0x572 PUSH1 0x4 DUP1 CALLDATASIZE SUB PUSH1 0x20 DUP2 LT ISZERO PUSH2 0xC6E JUMPI PUSH1 0x0 DUP1 REVERT JUMPDEST POP CALLDATALOAD PUSH2 0x2005 JUMP JUMPDEST CALLVALUE DUP1 ISZERO PUSH2 0xC81 JUMPI PUSH1 0x0 DUP1 REVERT JUMPDEST POP PUSH2 0x43A PUSH1 0x4 DUP1 CALLDATASIZE SUB PUSH1 0x40 DUP2 LT ISZERO PUSH2 0xC98 JUMPI PUSH1 0x0 DUP1 REVERT JUMPDEST POP PUSH1 0x1 PUSH1 0x1 PUSH1 0xA0 SHL SUB DUP2 CALLDATALOAD AND SWAP1 PUSH1 0x20 ADD CALLDATALOAD PUSH2 0x2017 JUMP JUMPDEST CALLVALUE DUP1 ISZERO PUSH2 0xCBA JUMPI PUSH1 0x0 DUP1 REVERT JUMPDEST POP PUSH2 0x31D PUSH1 0x4 DUP1 CALLDATASIZE SUB PUSH1 0x20 DUP2 LT ISZERO PUSH2 0xCD1 JUMPI PUSH1 0x0 DUP1 REVERT JUMPDEST POP CALLDATALOAD PUSH1 0x1 PUSH1 0x1 PUSH1 0xA0 SHL SUB AND PUSH2 0x2022 JUMP JUMPDEST CALLVALUE DUP1 ISZERO PUSH2 0xCED JUMPI PUSH1 0x0 DUP1 REVERT JUMPDEST POP PUSH2 0x43A PUSH1 0x4 DUP1 CALLDATASIZE SUB PUSH1 0x40 DUP2 LT ISZERO PUSH2 0xD04 JUMPI PUSH1 0x0 DUP1 REVERT JUMPDEST POP DUP1 CALLDATALOAD SWAP1 PUSH1 0x20 ADD CALLDATALOAD PUSH2 0x2035 JUMP JUMPDEST CALLVALUE DUP1 ISZERO PUSH2 0xD1D JUMPI PUSH1 0x0 DUP1 REVERT JUMPDEST POP PUSH2 0x31D PUSH2 0x23DA JUMP JUMPDEST CALLVALUE DUP1 ISZERO PUSH2 0xD32 JUMPI PUSH1 0x0 DUP1 REVERT JUMPDEST POP PUSH2 0x572 PUSH1 0x4 DUP1 CALLDATASIZE SUB PUSH1 0x20 DUP2 LT ISZERO PUSH2 0xD49 JUMPI PUSH1 0x0 DUP1 REVERT JUMPDEST POP CALLDATALOAD PUSH2 0x23E3 JUMP JUMPDEST CALLVALUE DUP1 ISZERO PUSH2 0xD5C JUMPI PUSH1 0x0 DUP1 REVERT JUMPDEST POP PUSH2 0x43A PUSH1 0x4 DUP1 CALLDATASIZE SUB PUSH1 0x80 DUP2 LT ISZERO PUSH2 0xD73 JUMPI PUSH1 0x0 DUP1 REVERT JUMPDEST POP DUP1 CALLDATALOAD SWAP1 PUSH1 0x20 DUP2 ADD CALLDATALOAD SWAP1 PUSH1 0x1 PUSH1 0x1 PUSH1 0xA0 SHL SUB PUSH1 0x40 DUP3 ADD CALLDATALOAD AND SWAP1 PUSH1 0x60 ADD CALLDATALOAD PUSH2 0x23F8 JUMP JUMPDEST CALLVALUE DUP1 ISZERO PUSH2 0xDA1 JUMPI PUSH1 0x0 DUP1 REVERT JUMPDEST POP PUSH2 0x31D PUSH1 0x4 DUP1 CALLDATASIZE SUB PUSH1 0x20 DUP2 LT ISZERO PUSH2 0xDB8 JUMPI PUSH1 0x0 DUP1 REVERT JUMPDEST POP CALLDATALOAD PUSH2 0x2542 JUMP JUMPDEST CALLVALUE DUP1 ISZERO PUSH2 0xDCB JUMPI PUSH1 0x0 DUP1 REVERT JUMPDEST POP PUSH2 0x43A PUSH1 0x4 DUP1 CALLDATASIZE SUB PUSH1 0x80 DUP2 LT ISZERO PUSH2 0xDE2 JUMPI PUSH1 0x0 DUP1 REVERT JUMPDEST PUSH1 0x1 PUSH1 0x1 PUSH1 0xA0 SHL SUB DUP3 CALLDATALOAD DUP2 AND SWAP3 PUSH1 0x20 DUP2 ADD CALLDATALOAD SWAP1 SWAP2 AND SWAP2 PUSH1 0x40 DUP3 ADD CALLDATALOAD SWAP2 SWAP1 DUP2 ADD SWAP1 PUSH1 0x80 DUP2 ADD PUSH1 0x60 DUP3 ADD CALLDATALOAD PUSH1 0x1 PUSH1 0x20 SHL DUP2 GT ISZERO PUSH2 0xE1C JUMPI PUSH1 0x0 DUP1 REVERT JUMPDEST DUP3 ADD DUP4 PUSH1 0x20 DUP3 ADD GT ISZERO PUSH2 0xE2E JUMPI PUSH1 0x0 DUP1 REVERT JUMPDEST DUP1 CALLDATALOAD SWAP1 PUSH1 0x20 ADD SWAP2 DUP5 PUSH1 0x1 DUP4 MUL DUP5 ADD GT PUSH1 0x1 PUSH1 0x20 SHL DUP4 GT OR ISZERO PUSH2 0xE4F JUMPI PUSH1 0x0 DUP1 REVERT JUMPDEST SWAP2 SWAP1 DUP1 DUP1 PUSH1 0x1F ADD PUSH1 0x20 DUP1 SWAP2 DIV MUL PUSH1 0x20 ADD PUSH1 0x40 MLOAD SWAP1 DUP2 ADD PUSH1 0x40 MSTORE DUP1 SWAP4 SWAP3 SWAP2 SWAP1 DUP2 DUP2 MSTORE PUSH1 0x20 ADD DUP4 DUP4 DUP1 DUP3 DUP5 CALLDATACOPY PUSH1 0x0 SWAP3 ADD SWAP2 SWAP1 SWAP2 MSTORE POP SWAP3 SWAP6 POP PUSH2 0x2579 SWAP5 POP POP POP POP POP JUMP JUMPDEST CALLVALUE DUP1 ISZERO PUSH2 0xE9C JUMPI PUSH1 0x0 DUP1 REVERT JUMPDEST POP PUSH2 0x346 PUSH1 0x4 DUP1 CALLDATASIZE SUB PUSH1 0x20 DUP2 LT ISZERO PUSH2 0xEB3 JUMPI PUSH1 0x0 DUP1 REVERT JUMPDEST POP CALLDATALOAD PUSH2 0x25CE JUMP JUMPDEST CALLVALUE DUP1 ISZERO PUSH2 0xEC6 JUMPI PUSH1 0x0 DUP1 REVERT JUMPDEST POP PUSH2 0x43A PUSH1 0x4 DUP1 CALLDATASIZE SUB PUSH1 0x60 DUP2 LT ISZERO PUSH2 0xEDD JUMPI PUSH1 0x0 DUP1 REVERT JUMPDEST POP DUP1 CALLDATALOAD SWAP1 PUSH1 0x20 DUP2 ADD CALLDATALOAD SWAP1 PUSH1 0x40 ADD CALLDATALOAD PUSH1 0x1 PUSH1 0x1 PUSH1 0xA0 SHL SUB AND PUSH2 0x26AC JUMP JUMPDEST PUSH2 0x43A PUSH1 0x4 DUP1 CALLDATASIZE SUB PUSH1 0x20 DUP2 LT ISZERO PUSH2 0xF0F JUMPI PUSH1 0x0 DUP1 REVERT JUMPDEST POP CALLDATALOAD PUSH2 0x27A1 JUMP JUMPDEST CALLVALUE DUP1 ISZERO PUSH2 0xF22 JUMPI PUSH1 0x0 DUP1 REVERT JUMPDEST POP PUSH2 0x43A PUSH1 0x4 DUP1 CALLDATASIZE SUB PUSH1 0x20 DUP2 LT ISZERO PUSH2 0xF39 JUMPI PUSH1 0x0 DUP1 REVERT JUMPDEST POP CALLDATALOAD PUSH2 0x2D7F JUMP JUMPDEST CALLVALUE DUP1 ISZERO PUSH2 0xF4C JUMPI PUSH1 0x0 DUP1 REVERT JUMPDEST POP PUSH2 0x31D PUSH1 0x4 DUP1 CALLDATASIZE SUB PUSH1 0x20 DUP2 LT ISZERO PUSH2 0xF63 JUMPI PUSH1 0x0 DUP1 REVERT JUMPDEST POP CALLDATALOAD PUSH2 0x33F7 JUMP JUMPDEST CALLVALUE DUP1 ISZERO PUSH2 0xF76 JUMPI PUSH1 0x0 DUP1 REVERT JUMPDEST POP PUSH2 0xF94 PUSH1 0x4 DUP1 CALLDATASIZE SUB PUSH1 0x20 DUP2 LT ISZERO PUSH2 0xF8D JUMPI PUSH1 0x0 DUP1 REVERT JUMPDEST POP CALLDATALOAD PUSH2 0x346F JUMP JUMPDEST PUSH1 0x40 DUP1 MLOAD SWAP4 DUP5 MSTORE PUSH1 0x20 DUP5 ADD SWAP3 SWAP1 SWAP3 MSTORE DUP3 DUP3 ADD MSTORE MLOAD SWAP1 DUP2 SWAP1 SUB PUSH1 0x60 ADD SWAP1 RETURN JUMPDEST CALLVALUE DUP1 ISZERO PUSH2 0xFBE JUMPI PUSH1 0x0 DUP1 REVERT JUMPDEST POP PUSH2 0x31D PUSH1 0x4 DUP1 CALLDATASIZE SUB PUSH1 0x40 DUP2 LT ISZERO PUSH2 0xFD5 JUMPI PUSH1 0x0 DUP1 REVERT JUMPDEST POP PUSH1 0x1 PUSH1 0x1 PUSH1 0xA0 SHL SUB DUP2 CALLDATALOAD DUP2 AND SWAP2 PUSH1 0x20 ADD CALLDATALOAD AND PUSH2 0x34EB JUMP JUMPDEST CALLVALUE DUP1 ISZERO PUSH2 0xFF9 JUMPI PUSH1 0x0 DUP1 REVERT JUMPDEST POP PUSH2 0x31D PUSH2 0x3519 JUMP JUMPDEST CALLVALUE DUP1 ISZERO PUSH2 0x100E JUMPI PUSH1 0x0 DUP1 REVERT JUMPDEST POP PUSH2 0x31D PUSH1 0x4 DUP1 CALLDATASIZE SUB PUSH1 0x20 DUP2 LT ISZERO PUSH2 0x1025 JUMPI PUSH1 0x0 DUP1 REVERT JUMPDEST POP CALLDATALOAD PUSH2 0x3536 JUMP JUMPDEST PUSH1 0x1 PUSH1 0x1 PUSH1 0xE0 SHL SUB NOT DUP2 AND PUSH1 0x0 SWAP1 DUP2 MSTORE PUSH1 0x20 DUP2 SWAP1 MSTORE PUSH1 0x40 SWAP1 KECCAK256 SLOAD PUSH1 0xFF AND JUMPDEST SWAP2 SWAP1 POP JUMP JUMPDEST PUSH1 0x9 DUP1 SLOAD PUSH1 0x40 DUP1 MLOAD PUSH1 0x20 PUSH1 0x1F PUSH1 0x2 PUSH1 0x0 NOT PUSH2 0x100 PUSH1 0x1 DUP9 AND ISZERO MUL ADD SWAP1 SWAP6 AND SWAP5 SWAP1 SWAP5 DIV SWAP4 DUP5 ADD DUP2 SWAP1 DIV DUP2 MUL DUP3 ADD DUP2 ADD SWAP1 SWAP3 MSTORE DUP3 DUP2 MSTORE PUSH1 0x60 SWAP4 SWAP1 SWAP3 SWAP1 SWAP2 DUP4 ADD DUP3 DUP3 DUP1 ISZERO PUSH2 0x10DB JUMPI DUP1 PUSH1 0x1F LT PUSH2 0x10B0 JUMPI PUSH2 0x100 DUP1 DUP4 SLOAD DIV MUL DUP4 MSTORE SWAP2 PUSH1 0x20 ADD SWAP2 PUSH2 0x10DB JUMP JUMPDEST DUP3 ADD SWAP2 SWAP1 PUSH1 0x0 MSTORE PUSH1 0x20 PUSH1 0x0 KECCAK256 SWAP1 JUMPDEST DUP2 SLOAD DUP2 MSTORE SWAP1 PUSH1 0x1 ADD SWAP1 PUSH1 0x20 ADD DUP1 DUP4 GT PUSH2 0x10BE JUMPI DUP3 SWAP1 SUB PUSH1 0x1F AND DUP3 ADD SWAP2 JUMPDEST POP POP POP POP POP SWAP1 POP JUMPDEST SWAP1 JUMP JUMPDEST PUSH1 0x0 PUSH2 0x10F1 DUP3 PUSH2 0x368C JUMP JUMPDEST PUSH2 0x112F JUMPI PUSH1 0x40 MLOAD PUSH1 0x1 PUSH1 0xE5 SHL PUSH3 0x461BCD MUL DUP2 MSTORE PUSH1 0x4 ADD DUP1 DUP1 PUSH1 0x20 ADD DUP3 DUP2 SUB DUP3 MSTORE PUSH1 0x2C DUP2 MSTORE PUSH1 0x20 ADD DUP1 PUSH2 0x46AC PUSH1 0x2C SWAP2 CODECOPY PUSH1 0x40 ADD SWAP2 POP POP PUSH1 0x40 MLOAD DUP1 SWAP2 SUB SWAP1 REVERT JUMPDEST POP PUSH1 0x0 SWAP1 DUP2 MSTORE PUSH1 0x2 PUSH1 0x20 MSTORE PUSH1 0x40 SWAP1 KECCAK256 SLOAD PUSH1 0x1 PUSH1 0x1 PUSH1 0xA0 SHL SUB AND SWAP1 JUMP JUMPDEST PUSH1 0x0 PUSH2 0x1156 DUP3 PUSH2 0x1B8D JUMP JUMPDEST SWAP1 POP DUP1 PUSH1 0x1 PUSH1 0x1 PUSH1 0xA0 SHL SUB AND DUP4 PUSH1 0x1 PUSH1 0x1 PUSH1 0xA0 SHL SUB AND EQ ISZERO PUSH2 0x11AC JUMPI PUSH1 0x40 MLOAD PUSH1 0x1 PUSH1 0xE5 SHL PUSH3 0x461BCD MUL DUP2 MSTORE PUSH1 0x4 ADD DUP1 DUP1 PUSH1 0x20 ADD DUP3 DUP2 SUB DUP3 MSTORE PUSH1 0x21 DUP2 MSTORE PUSH1 0x20 ADD DUP1 PUSH2 0x47C2 PUSH1 0x21 SWAP2 CODECOPY PUSH1 0x40 ADD SWAP2 POP POP PUSH1 0x40 MLOAD DUP1 SWAP2 SUB SWAP1 REVERT JUMPDEST CALLER PUSH1 0x1 PUSH1 0x1 PUSH1 0xA0 SHL SUB DUP3 AND EQ DUP1 PUSH2 0x11C8 JUMPI POP PUSH2 0x11C8 DUP2 CALLER PUSH2 0x34EB JUMP JUMPDEST PUSH2 0x1206 JUMPI PUSH1 0x40 MLOAD PUSH1 0x1 PUSH1 0xE5 SHL PUSH3 0x461BCD MUL DUP2 MSTORE PUSH1 0x4 ADD DUP1 DUP1 PUSH1 0x20 ADD DUP3 DUP2 SUB DUP3 MSTORE PUSH1 0x38 DUP2 MSTORE PUSH1 0x20 ADD DUP1 PUSH2 0x4547 PUSH1 0x38 SWAP2 CODECOPY PUSH1 0x40 ADD SWAP2 POP POP PUSH1 0x40 MLOAD DUP1 SWAP2 SUB SWAP1 REVERT JUMPDEST PUSH1 0x0 DUP3 DUP2 MSTORE PUSH1 0x2 PUSH1 0x20 MSTORE PUSH1 0x40 DUP1 DUP3 KECCAK256 DUP1 SLOAD PUSH1 0x1 PUSH1 0x1 PUSH1 0xA0 SHL SUB NOT AND PUSH1 0x1 PUSH1 0x1 PUSH1 0xA0 SHL SUB DUP8 DUP2 AND SWAP2 DUP3 OR SWAP1 SWAP3 SSTORE SWAP2 MLOAD DUP6 SWAP4 SWAP2 DUP6 AND SWAP2 PUSH32 0x8C5BE1E5EBEC7D5BD14F71427D1E84F3DD0314C0F7B2291E5B200AC8C7C3B925 SWAP2 LOG4 POP POP POP JUMP JUMPDEST PUSH1 0x0 DUP2 DUP2 MSTORE PUSH1 0x17 PUSH1 0x20 MSTORE PUSH1 0x40 SWAP1 KECCAK256 DUP1 SLOAD PUSH1 0x1 DUP3 ADD SLOAD PUSH1 0x2 SWAP1 SWAP3 ADD SLOAD PUSH1 0x1 PUSH1 0x1 PUSH1 0xA0 SHL SUB SWAP1 SWAP2 AND SWAP2 SWAP1 PUSH1 0xFF AND JUMPDEST SWAP2 SWAP4 SWAP1 SWAP3 POP JUMP JUMPDEST PUSH2 0x129F DUP3 DUP3 PUSH2 0x36A9 JUMP JUMPDEST POP POP JUMP JUMPDEST PUSH1 0x15 PUSH1 0x20 MSTORE PUSH1 0x0 SWAP1 DUP2 MSTORE PUSH1 0x40 SWAP1 KECCAK256 SLOAD DUP2 JUMP JUMPDEST PUSH1 0x7 SLOAD SWAP1 JUMP JUMPDEST PUSH1 0x0 CALLER PUSH2 0x12C7 DUP4 PUSH2 0x1B8D JUMP JUMPDEST PUSH1 0x1 PUSH1 0x1 PUSH1 0xA0 SHL SUB AND EQ DUP1 ISZERO PUSH2 0x12EF JUMPI POP PUSH1 0x0 DUP3 DUP2 MSTORE PUSH1 0x18 PUSH1 0x20 MSTORE PUSH1 0x40 SWAP1 KECCAK256 PUSH1 0x4 ADD SLOAD PUSH1 0xFF AND ISZERO JUMPDEST DUP1 ISZERO PUSH2 0x1307 JUMPI POP PUSH1 0x0 DUP3 DUP2 MSTORE PUSH1 0x15 PUSH1 0x20 MSTORE PUSH1 0x40 SWAP1 KECCAK256 SLOAD ISZERO JUMPDEST SWAP3 SWAP2 POP POP JUMP JUMPDEST PUSH2 0x1317 CALLER DUP3 PUSH2 0x370F JUMP JUMPDEST PUSH2 0x1355 JUMPI PUSH1 0x40 MLOAD PUSH1 0x1 PUSH1 0xE5 SHL PUSH3 0x461BCD MUL DUP2 MSTORE PUSH1 0x4 ADD DUP1 DUP1 PUSH1 0x20 ADD DUP3 DUP2 SUB DUP3 MSTORE PUSH1 0x31 DUP2 MSTORE PUSH1 0x20 ADD DUP1 PUSH2 0x4810 PUSH1 0x31 SWAP2 CODECOPY PUSH1 0x40 ADD SWAP2 POP POP PUSH1 0x40 MLOAD DUP1 SWAP2 SUB SWAP1 REVERT JUMPDEST PUSH2 0x1360 DUP4 DUP4 DUP4 PUSH2 0x37B6 JUMP JUMPDEST POP POP POP JUMP JUMPDEST PUSH1 0x11 SLOAD PUSH1 0x1 PUSH1 0x1 PUSH1 0xA0 SHL SUB AND CALLER EQ PUSH2 0x13C7 JUMPI PUSH1 0x40 DUP1 MLOAD PUSH1 0x1 PUSH1 0xE5 SHL PUSH3 0x461BCD MUL DUP2 MSTORE PUSH1 0x20 PUSH1 0x4 DUP3 ADD MSTORE PUSH1 0x1F PUSH1 0x24 DUP3 ADD MSTORE PUSH32 0x4F6E6C7920636F6E7472616374206F776E65722063616E20646F207468697300 PUSH1 0x44 DUP3 ADD MSTORE SWAP1 MLOAD SWAP1 DUP2 SWAP1 SUB PUSH1 0x64 ADD SWAP1 REVERT JUMPDEST PUSH1 0x10 DUP1 SLOAD PUSH1 0x1 PUSH1 0x1 PUSH1 0xA0 SHL SUB NOT AND PUSH1 0x1 PUSH1 0x1 PUSH1 0xA0 SHL SUB SWAP5 SWAP1 SWAP5 AND SWAP4 SWAP1 SWAP4 OR SWAP1 SWAP3 SSTORE PUSH1 0x12 SSTORE PUSH1 0xD DUP1 SLOAD PUSH1 0xFF NOT AND SWAP2 ISZERO ISZERO SWAP2 SWAP1 SWAP2 OR SWAP1 SSTORE JUMP JUMPDEST PUSH1 0x0 PUSH2 0x1409 DUP4 PUSH2 0x1BE4 JUMP JUMPDEST DUP3 LT PUSH2 0x1449 JUMPI PUSH1 0x40 MLOAD PUSH1 0x1 PUSH1 0xE5 SHL PUSH3 0x461BCD MUL DUP2 MSTORE PUSH1 0x4 ADD DUP1 DUP1 PUSH1 0x20 ADD DUP3 DUP2 SUB DUP3 MSTORE PUSH1 0x2B DUP2 MSTORE PUSH1 0x20 ADD DUP1 PUSH2 0x43F5 PUSH1 0x2B SWAP2 CODECOPY PUSH1 0x40 ADD SWAP2 POP POP PUSH1 0x40 MLOAD DUP1 SWAP2 SUB SWAP1 REVERT JUMPDEST PUSH1 0x1 PUSH1 0x1 PUSH1 0xA0 SHL SUB DUP4 AND PUSH1 0x0 SWAP1 DUP2 MSTORE PUSH1 0x5 PUSH1 0x20 MSTORE PUSH1 0x40 SWAP1 KECCAK256 DUP1 SLOAD DUP4 SWAP1 DUP2 LT PUSH2 0x146D JUMPI INVALID JUMPDEST SWAP1 PUSH1 0x0 MSTORE PUSH1 0x20 PUSH1 0x0 KECCAK256 ADD SLOAD SWAP1 POP SWAP3 SWAP2 POP POP JUMP JUMPDEST PUSH1 0x11 SLOAD PUSH1 0x1 PUSH1 0x1 PUSH1 0xA0 SHL SUB AND DUP2 JUMP JUMPDEST PUSH1 0x0 DUP2 DUP2 MSTORE PUSH1 0x18 PUSH1 0x20 MSTORE PUSH1 0x40 DUP2 KECCAK256 PUSH1 0x4 ADD SLOAD PUSH1 0xFF AND ISZERO DUP1 ISZERO PUSH2 0x14BE JUMPI POP PUSH1 0x0 DUP3 DUP2 MSTORE PUSH1 0x15 PUSH1 0x20 MSTORE PUSH1 0x40 SWAP1 KECCAK256 SLOAD ISZERO ISZERO JUMPDEST DUP1 ISZERO PUSH2 0x14D7 JUMPI POP PUSH1 0x0 DUP3 DUP2 MSTORE PUSH1 0x15 PUSH1 0x20 MSTORE PUSH1 0x40 SWAP1 KECCAK256 SLOAD ISZERO ISZERO JUMPDEST DUP1 ISZERO PUSH2 0x14F3 JUMPI POP ADDRESS PUSH2 0x14E8 DUP4 PUSH2 0x10E6 JUMP JUMPDEST PUSH1 0x1 PUSH1 0x1 PUSH1 0xA0 SHL SUB AND EQ JUMPDEST ISZERO PUSH2 0x150D JUMPI POP PUSH1 0x0 DUP2 DUP2 MSTORE PUSH1 0x15 PUSH1 0x20 MSTORE PUSH1 0x40 SWAP1 KECCAK256 SLOAD PUSH2 0x104A JUMP JUMPDEST POP PUSH1 0x0 PUSH2 0x104A JUMP JUMPDEST PUSH1 0x0 PUSH1 0x60 PUSH2 0x1521 PUSH2 0x3519 JUMP JUMPDEST PUSH2 0x155F JUMPI PUSH1 0x40 MLOAD PUSH1 0x1 PUSH1 0xE5 SHL PUSH3 0x461BCD MUL DUP2 MSTORE PUSH1 0x4 ADD DUP1 DUP1 PUSH1 0x20 ADD DUP3 DUP2 SUB DUP3 MSTORE PUSH1 0x30 DUP2 MSTORE PUSH1 0x20 ADD DUP1 PUSH2 0x45F3 PUSH1 0x30 SWAP2 CODECOPY PUSH1 0x40 ADD SWAP2 POP POP PUSH1 0x40 MLOAD DUP1 SWAP2 SUB SWAP1 REVERT JUMPDEST PUSH2 0x1569 DUP5 DUP5 PUSH2 0x37D5 JUMP JUMPDEST POP PUSH1 0x1 SWAP4 SWAP3 POP POP POP JUMP JUMPDEST PUSH2 0x1360 DUP4 DUP4 DUP4 PUSH1 0x40 MLOAD DUP1 PUSH1 0x20 ADD PUSH1 0x40 MSTORE DUP1 PUSH1 0x0 DUP2 MSTORE POP PUSH2 0x2579 JUMP JUMPDEST PUSH1 0x0 SWAP1 DUP2 MSTORE PUSH1 0x18 PUSH1 0x20 MSTORE PUSH1 0x40 SWAP1 KECCAK256 PUSH1 0x2 ADD SLOAD PUSH1 0x1 PUSH1 0x1 PUSH1 0xA0 SHL SUB AND SWAP1 JUMP JUMPDEST PUSH1 0xF DUP1 SLOAD PUSH1 0x1 ADD SWAP1 DUP2 SWAP1 SSTORE PUSH2 0x15C0 CALLER PUSH2 0x37F2 JUMP JUMPDEST ISZERO PUSH2 0x1615 JUMPI PUSH1 0x40 DUP1 MLOAD PUSH1 0x1 PUSH1 0xE5 SHL PUSH3 0x461BCD MUL DUP2 MSTORE PUSH1 0x20 PUSH1 0x4 DUP3 ADD MSTORE PUSH1 0x11 PUSH1 0x24 DUP3 ADD MSTORE PUSH32 0x4E6F20736372697074206B696464696573000000000000000000000000000000 PUSH1 0x44 DUP3 ADD MSTORE SWAP1 MLOAD SWAP1 DUP2 SWAP1 SUB PUSH1 0x64 ADD SWAP1 REVERT JUMPDEST PUSH1 0x0 DUP3 DUP2 MSTORE PUSH1 0x18 PUSH1 0x20 MSTORE PUSH1 0x40 SWAP1 KECCAK256 PUSH1 0x4 ADD SLOAD PUSH1 0xFF AND PUSH2 0x167E JUMPI PUSH1 0x40 DUP1 MLOAD PUSH1 0x1 PUSH1 0xE5 SHL PUSH3 0x461BCD MUL DUP2 MSTORE PUSH1 0x20 PUSH1 0x4 DUP3 ADD MSTORE PUSH1 0x17 PUSH1 0x24 DUP3 ADD MSTORE PUSH32 0x4E6F206F70656E65642061756374696F6E20666F756E64000000000000000000 PUSH1 0x44 DUP3 ADD MSTORE SWAP1 MLOAD SWAP1 DUP2 SWAP1 SUB PUSH1 0x64 ADD SWAP1 REVERT JUMPDEST ADDRESS PUSH2 0x1688 DUP4 PUSH2 0x10E6 JUMP JUMPDEST PUSH1 0x1 PUSH1 0x1 PUSH1 0xA0 SHL SUB AND EQ PUSH2 0x16E6 JUMPI PUSH1 0x40 DUP1 MLOAD PUSH1 0x1 PUSH1 0xE5 SHL PUSH3 0x461BCD MUL DUP2 MSTORE PUSH1 0x20 PUSH1 0x4 DUP3 ADD MSTORE PUSH1 0x1B PUSH1 0x24 DUP3 ADD MSTORE PUSH32 0x43616E6E6F7420636F6D706C657465207468652061756374696F6E0000000000 PUSH1 0x44 DUP3 ADD MSTORE SWAP1 MLOAD SWAP1 DUP2 SWAP1 SUB PUSH1 0x64 ADD SWAP1 REVERT JUMPDEST PUSH1 0x0 DUP3 DUP2 MSTORE PUSH1 0x18 PUSH1 0x20 MSTORE PUSH1 0x40 SWAP1 KECCAK256 PUSH1 0x1 ADD SLOAD TIMESTAMP GT ISZERO PUSH2 0x174F JUMPI PUSH1 0x40 DUP1 MLOAD PUSH1 0x1 PUSH1 0xE5 SHL PUSH3 0x461BCD MUL DUP2 MSTORE PUSH1 0x20 PUSH1 0x4 DUP3 ADD MSTORE PUSH1 0x16 PUSH1 0x24 DUP3 ADD MSTORE PUSH32 0x41756374696F6E20616C726561647920656E6465642E00000000000000000000 PUSH1 0x44 DUP3 ADD MSTORE SWAP1 MLOAD SWAP1 DUP2 SWAP1 SUB PUSH1 0x64 ADD SWAP1 REVERT JUMPDEST PUSH1 0x0 DUP3 DUP2 MSTORE PUSH1 0x18 PUSH1 0x20 MSTORE PUSH1 0x40 SWAP1 KECCAK256 PUSH1 0x3 ADD SLOAD CALLVALUE GT PUSH2 0x17B7 JUMPI PUSH1 0x40 DUP1 MLOAD PUSH1 0x1 PUSH1 0xE5 SHL PUSH3 0x461BCD MUL DUP2 MSTORE PUSH1 0x20 PUSH1 0x4 DUP3 ADD MSTORE PUSH1 0x1E PUSH1 0x24 DUP3 ADD MSTORE PUSH32 0x546865726520616C7265616479206973206120686967686572206269642E0000 PUSH1 0x44 DUP3 ADD MSTORE SWAP1 MLOAD SWAP1 DUP2 SWAP1 SUB PUSH1 0x64 ADD SWAP1 REVERT JUMPDEST PUSH1 0x0 PUSH2 0x17C2 DUP4 PUSH2 0x1B8D JUMP JUMPDEST SWAP1 POP CALLER PUSH1 0x1 PUSH1 0x1 PUSH1 0xA0 SHL SUB DUP3 AND EQ ISZERO PUSH2 0x180F JUMPI PUSH1 0x40 MLOAD PUSH1 0x1 PUSH1 0xE5 SHL PUSH3 0x461BCD MUL DUP2 MSTORE PUSH1 0x4 ADD DUP1 DUP1 PUSH1 0x20 ADD DUP3 DUP2 SUB DUP3 MSTORE PUSH1 0x36 DUP2 MSTORE PUSH1 0x20 ADD DUP1 PUSH2 0x48D5 PUSH1 0x36 SWAP2 CODECOPY PUSH1 0x40 ADD SWAP2 POP POP PUSH1 0x40 MLOAD DUP1 SWAP2 SUB SWAP1 REVERT JUMPDEST PUSH1 0x0 DUP4 DUP2 MSTORE PUSH1 0x18 PUSH1 0x20 MSTORE PUSH1 0x40 SWAP1 KECCAK256 PUSH1 0x3 ADD SLOAD ISZERO PUSH2 0x193D JUMPI PUSH1 0x0 DUP4 DUP2 MSTORE PUSH1 0x18 PUSH1 0x20 MSTORE PUSH1 0x40 DUP1 DUP3 KECCAK256 PUSH1 0x2 DUP2 ADD SLOAD PUSH1 0x3 SWAP1 SWAP2 ADD SLOAD SWAP2 MLOAD PUSH1 0x1 PUSH1 0x1 PUSH1 0xA0 SHL SUB SWAP1 SWAP2 AND SWAP2 SWAP1 DUP4 DUP2 DUP2 DUP2 DUP6 DUP8 GAS CALL SWAP3 POP POP POP RETURNDATASIZE DUP1 PUSH1 0x0 DUP2 EQ PUSH2 0x1887 JUMPI PUSH1 0x40 MLOAD SWAP2 POP PUSH1 0x1F NOT PUSH1 0x3F RETURNDATASIZE ADD AND DUP3 ADD PUSH1 0x40 MSTORE RETURNDATASIZE DUP3 MSTORE RETURNDATASIZE PUSH1 0x0 PUSH1 0x20 DUP5 ADD RETURNDATACOPY PUSH2 0x188C JUMP JUMPDEST PUSH1 0x60 SWAP2 POP JUMPDEST POP POP SWAP1 POP DUP1 PUSH2 0x18DB JUMPI PUSH1 0x40 DUP1 MLOAD PUSH1 0x1 PUSH1 0xE5 SHL PUSH3 0x461BCD MUL DUP2 MSTORE PUSH1 0x20 PUSH1 0x4 DUP3 ADD MSTORE PUSH1 0x10 PUSH1 0x24 DUP3 ADD MSTORE PUSH1 0x1 PUSH1 0x81 SHL PUSH16 0x2A3930B739B332B9103330B4B632B217 MUL PUSH1 0x44 DUP3 ADD MSTORE SWAP1 MLOAD SWAP1 DUP2 SWAP1 SUB PUSH1 0x64 ADD SWAP1 REVERT JUMPDEST PUSH1 0x0 DUP5 DUP2 MSTORE PUSH1 0x18 PUSH1 0x20 SWAP1 DUP2 MSTORE PUSH1 0x40 SWAP2 DUP3 SWAP1 KECCAK256 PUSH1 0x2 DUP2 ADD SLOAD PUSH1 0x3 SWAP1 SWAP2 ADD SLOAD DUP4 MLOAD PUSH1 0x1 PUSH1 0x1 PUSH1 0xA0 SHL SUB SWAP1 SWAP3 AND DUP3 MSTORE SWAP2 DUP2 ADD SWAP2 SWAP1 SWAP2 MSTORE DUP2 MLOAD PUSH32 0xBB28353E4598C3B9199101A66E0989549B659A59A54D2C27FBB183F1932C8E6D SWAP3 SWAP2 DUP2 SWAP1 SUB SWAP1 SWAP2 ADD SWAP1 LOG1 POP JUMPDEST PUSH1 0x0 DUP4 DUP2 MSTORE PUSH1 0x18 PUSH1 0x20 SWAP1 DUP2 MSTORE PUSH1 0x40 SWAP2 DUP3 SWAP1 KECCAK256 PUSH1 0x2 DUP2 ADD DUP1 SLOAD PUSH1 0x1 PUSH1 0x1 PUSH1 0xA0 SHL SUB NOT AND CALLER SWAP1 DUP2 OR SWAP1 SWAP2 SSTORE CALLVALUE PUSH1 0x3 SWAP1 SWAP3 ADD DUP3 SWAP1 SSTORE DUP4 MLOAD SWAP2 DUP3 MSTORE SWAP2 DUP2 ADD DUP7 SWAP1 MSTORE DUP3 MLOAD SWAP2 SWAP3 PUSH32 0xDAFC4A123C6BB3B49DD38A0CBA299808581A0126A37248A5F1102D5E5FA06337 SWAP3 SWAP2 DUP3 SWAP1 SUB ADD SWAP1 LOG2 POP PUSH1 0xF SLOAD DUP2 EQ PUSH2 0x129F JUMPI PUSH1 0x40 DUP1 MLOAD PUSH1 0x1 PUSH1 0xE5 SHL PUSH3 0x461BCD MUL DUP2 MSTORE PUSH1 0x20 PUSH1 0x4 DUP3 ADD MSTORE PUSH1 0x1F PUSH1 0x24 DUP3 ADD MSTORE PUSH1 0x0 DUP1 MLOAD PUSH1 0x20 PUSH2 0x4386 DUP4 CODECOPY DUP2 MLOAD SWAP2 MSTORE PUSH1 0x44 DUP3 ADD MSTORE SWAP1 MLOAD SWAP1 DUP2 SWAP1 SUB PUSH1 0x64 ADD SWAP1 REVERT JUMPDEST PUSH1 0x0 PUSH2 0x1307 DUP3 PUSH2 0x368C JUMP JUMPDEST PUSH1 0x0 PUSH2 0x1A04 PUSH2 0x12B5 JUMP JUMPDEST DUP3 LT PUSH2 0x1A44 JUMPI PUSH1 0x40 MLOAD PUSH1 0x1 PUSH1 0xE5 SHL PUSH3 0x461BCD MUL DUP2 MSTORE PUSH1 0x4 ADD DUP1 DUP1 PUSH1 0x20 ADD DUP3 DUP2 SUB DUP3 MSTORE PUSH1 0x2C DUP2 MSTORE PUSH1 0x20 ADD DUP1 PUSH2 0x4841 PUSH1 0x2C SWAP2 CODECOPY PUSH1 0x40 ADD SWAP2 POP POP PUSH1 0x40 MLOAD DUP1 SWAP2 SUB SWAP1 REVERT JUMPDEST PUSH1 0x7 DUP3 DUP2 SLOAD DUP2 LT PUSH2 0x1A51 JUMPI INVALID JUMPDEST SWAP1 PUSH1 0x0 MSTORE PUSH1 0x20 PUSH1 0x0 KECCAK256 ADD SLOAD SWAP1 POP SWAP2 SWAP1 POP JUMP JUMPDEST PUSH1 0x0 PUSH1 0x60 PUSH2 0x1A6F PUSH2 0x3519 JUMP JUMPDEST PUSH2 0x1AAD JUMPI PUSH1 0x40 MLOAD PUSH1 0x1 PUSH1 0xE5 SHL PUSH3 0x461BCD MUL DUP2 MSTORE PUSH1 0x4 ADD DUP1 DUP1 PUSH1 0x20 ADD DUP3 DUP2 SUB DUP3 MSTORE PUSH1 0x30 DUP2 MSTORE PUSH1 0x20 ADD DUP1 PUSH2 0x45F3 PUSH1 0x30 SWAP2 CODECOPY PUSH1 0x40 ADD SWAP2 POP POP PUSH1 0x40 MLOAD DUP1 SWAP2 SUB SWAP1 REVERT JUMPDEST PUSH2 0x1AB7 DUP6 DUP6 PUSH2 0x37D5 JUMP JUMPDEST PUSH2 0x1AC1 DUP5 DUP5 PUSH2 0x36A9 JUMP JUMPDEST POP PUSH1 0x1 SWAP5 SWAP4 POP POP POP POP JUMP JUMPDEST PUSH1 0x18 PUSH1 0x20 MSTORE PUSH1 0x0 SWAP1 DUP2 MSTORE PUSH1 0x40 SWAP1 KECCAK256 DUP1 SLOAD PUSH1 0x1 DUP3 ADD SLOAD PUSH1 0x2 DUP4 ADD SLOAD PUSH1 0x3 DUP5 ADD SLOAD PUSH1 0x4 DUP6 ADD SLOAD PUSH1 0x5 SWAP1 SWAP6 ADD SLOAD PUSH1 0x1 PUSH1 0x1 PUSH1 0xA0 SHL SUB SWAP5 DUP6 AND SWAP6 SWAP4 SWAP5 SWAP1 SWAP3 AND SWAP3 SWAP1 SWAP2 PUSH1 0xFF SWAP1 SWAP2 AND SWAP1 DUP7 JUMP JUMPDEST PUSH1 0x0 PUSH1 0x60 PUSH2 0x1B1F PUSH2 0x3519 JUMP JUMPDEST PUSH2 0x1B5D JUMPI PUSH1 0x40 MLOAD PUSH1 0x1 PUSH1 0xE5 SHL PUSH3 0x461BCD MUL DUP2 MSTORE PUSH1 0x4 ADD DUP1 DUP1 PUSH1 0x20 ADD DUP3 DUP2 SUB DUP3 MSTORE PUSH1 0x30 DUP2 MSTORE PUSH1 0x20 ADD DUP1 PUSH2 0x45F3 PUSH1 0x30 SWAP2 CODECOPY PUSH1 0x40 ADD SWAP2 POP POP PUSH1 0x40 MLOAD DUP1 SWAP2 SUB SWAP1 REVERT JUMPDEST PUSH1 0xE DUP1 SLOAD PUSH1 0x1 ADD SWAP1 DUP2 SWAP1 SSTORE PUSH2 0x1B71 SWAP1 PUSH2 0x368C JUMP JUMPDEST PUSH2 0x1B5D JUMPI PUSH2 0x1B81 DUP4 PUSH1 0xE SLOAD PUSH2 0x37D5 JUMP JUMPDEST PUSH2 0x1569 PUSH1 0xE SLOAD DUP6 PUSH2 0x36A9 JUMP JUMPDEST PUSH1 0x0 DUP2 DUP2 MSTORE PUSH1 0x1 PUSH1 0x20 MSTORE PUSH1 0x40 DUP2 KECCAK256 SLOAD PUSH1 0x1 PUSH1 0x1 PUSH1 0xA0 SHL SUB AND DUP1 PUSH2 0x1307 JUMPI PUSH1 0x40 MLOAD PUSH1 0x1 PUSH1 0xE5 SHL PUSH3 0x461BCD MUL DUP2 MSTORE PUSH1 0x4 ADD DUP1 DUP1 PUSH1 0x20 ADD DUP3 DUP2 SUB DUP3 MSTORE PUSH1 0x29 DUP2 MSTORE PUSH1 0x20 ADD DUP1 PUSH2 0x45A9 PUSH1 0x29 SWAP2 CODECOPY PUSH1 0x40 ADD SWAP2 POP POP PUSH1 0x40 MLOAD DUP1 SWAP2 SUB SWAP1 REVERT JUMPDEST PUSH1 0x0 PUSH1 0x1 PUSH1 0x1 PUSH1 0xA0 SHL SUB DUP3 AND PUSH2 0x1C2E JUMPI PUSH1 0x40 MLOAD PUSH1 0x1 PUSH1 0xE5 SHL PUSH3 0x461BCD MUL DUP2 MSTORE PUSH1 0x4 ADD DUP1 DUP1 PUSH1 0x20 ADD DUP3 DUP2 SUB DUP3 MSTORE PUSH1 0x2A DUP2 MSTORE PUSH1 0x20 ADD DUP1 PUSH2 0x457F PUSH1 0x2A SWAP2 CODECOPY PUSH1 0x40 ADD SWAP2 POP POP PUSH1 0x40 MLOAD DUP1 SWAP2 SUB SWAP1 REVERT JUMPDEST PUSH1 0x1 PUSH1 0x1 PUSH1 0xA0 SHL SUB DUP3 AND PUSH1 0x0 SWAP1 DUP2 MSTORE PUSH1 0x3 PUSH1 0x20 MSTORE PUSH1 0x40 SWAP1 KECCAK256 PUSH2 0x1307 SWAP1 PUSH2 0x3829 JUMP JUMPDEST PUSH1 0xA DUP2 GT ISZERO DUP1 ISZERO PUSH2 0x1C61 JUMPI POP PUSH1 0x1 DUP2 LT ISZERO JUMPDEST PUSH2 0x1C9F JUMPI PUSH1 0x40 MLOAD PUSH1 0x1 PUSH1 0xE5 SHL PUSH3 0x461BCD MUL DUP2 MSTORE PUSH1 0x4 ADD DUP1 DUP1 PUSH1 0x20 ADD DUP3 DUP2 SUB DUP3 MSTORE PUSH1 0x26 DUP2 MSTORE PUSH1 0x20 ADD DUP1 PUSH2 0x4665 PUSH1 0x26 SWAP2 CODECOPY PUSH1 0x40 ADD SWAP2 POP POP PUSH1 0x40 MLOAD DUP1 SWAP2 SUB SWAP1 REVERT JUMPDEST PUSH2 0x1CA9 DUP3 CALLER PUSH2 0x1B13 JUMP JUMPDEST POP PUSH1 0x40 DUP1 MLOAD PUSH1 0x60 DUP2 ADD DUP3 MSTORE CALLER DUP2 MSTORE PUSH1 0x20 DUP1 DUP3 ADD SWAP4 DUP5 MSTORE PUSH1 0x0 DUP3 DUP5 ADD DUP2 DUP2 MSTORE PUSH1 0xE SLOAD DUP3 MSTORE PUSH1 0x17 SWAP1 SWAP3 MSTORE SWAP3 SWAP1 SWAP3 KECCAK256 SWAP1 MLOAD DUP2 SLOAD PUSH1 0x1 PUSH1 0x1 PUSH1 0xA0 SHL SUB NOT AND PUSH1 0x1 PUSH1 0x1 PUSH1 0xA0 SHL SUB SWAP1 SWAP2 AND OR DUP2 SSTORE SWAP2 MLOAD PUSH1 0x1 DUP4 ADD SSTORE MLOAD PUSH1 0x2 SWAP1 SWAP2 ADD DUP1 SLOAD PUSH1 0xFF NOT AND SWAP2 ISZERO ISZERO SWAP2 SWAP1 SWAP2 OR SWAP1 SSTORE POP JUMP JUMPDEST PUSH1 0x60 PUSH2 0x1D1B DUP3 PUSH2 0x382D JUMP JUMPDEST DUP1 SLOAD DUP1 PUSH1 0x20 MUL PUSH1 0x20 ADD PUSH1 0x40 MLOAD SWAP1 DUP2 ADD PUSH1 0x40 MSTORE DUP1 SWAP3 SWAP2 SWAP1 DUP2 DUP2 MSTORE PUSH1 0x20 ADD DUP3 DUP1 SLOAD DUP1 ISZERO PUSH2 0x1D65 JUMPI PUSH1 0x20 MUL DUP3 ADD SWAP2 SWAP1 PUSH1 0x0 MSTORE PUSH1 0x20 PUSH1 0x0 KECCAK256 SWAP1 JUMPDEST DUP2 SLOAD DUP2 MSTORE PUSH1 0x20 ADD SWAP1 PUSH1 0x1 ADD SWAP1 DUP1 DUP4 GT PUSH2 0x1D51 JUMPI JUMPDEST POP POP POP POP POP SWAP1 POP SWAP2 SWAP1 POP JUMP JUMPDEST PUSH1 0x0 PUSH2 0x1D7C CALLER PUSH2 0x37F2 JUMP JUMPDEST ISZERO DUP1 ISZERO PUSH2 0x1D9A JUMPI POP PUSH1 0x0 DUP3 DUP2 MSTORE PUSH1 0x18 PUSH1 0x20 MSTORE PUSH1 0x40 SWAP1 KECCAK256 PUSH1 0x4 ADD SLOAD PUSH1 0xFF AND JUMPDEST DUP1 ISZERO PUSH2 0x1DB7 JUMPI POP PUSH1 0x0 DUP3 DUP2 MSTORE PUSH1 0x18 PUSH1 0x20 MSTORE PUSH1 0x40 SWAP1 KECCAK256 PUSH1 0x1 ADD SLOAD TIMESTAMP GT ISZERO JUMPDEST DUP1 ISZERO PUSH2 0x1DDD JUMPI POP PUSH2 0x1DC7 DUP3 PUSH2 0x1B8D JUMP JUMPDEST PUSH1 0x1 PUSH1 0x1 PUSH1 0xA0 SHL SUB AND CALLER PUSH1 0x1 PUSH1 0x1 PUSH1 0xA0 SHL SUB AND EQ ISZERO JUMPDEST DUP1 ISZERO PUSH2 0x1DF9 JUMPI POP ADDRESS PUSH2 0x1DEE DUP4 PUSH2 0x10E6 JUMP JUMPDEST PUSH1 0x1 PUSH1 0x1 PUSH1 0xA0 SHL SUB AND EQ JUMPDEST ISZERO PUSH2 0x150D JUMPI POP PUSH1 0x1 PUSH2 0x104A JUMP JUMPDEST PUSH1 0xA DUP1 SLOAD PUSH1 0x40 DUP1 MLOAD PUSH1 0x20 PUSH1 0x1F PUSH1 0x2 PUSH1 0x0 NOT PUSH2 0x100 PUSH1 0x1 DUP9 AND ISZERO MUL ADD SWAP1 SWAP6 AND SWAP5 SWAP1 SWAP5 DIV SWAP4 DUP5 ADD DUP2 SWAP1 DIV DUP2 MUL DUP3 ADD DUP2 ADD SWAP1 SWAP3 MSTORE DUP3 DUP2 MSTORE PUSH1 0x60 SWAP4 SWAP1 SWAP3 SWAP1 SWAP2 DUP4 ADD DUP3 DUP3 DUP1 ISZERO PUSH2 0x10DB JUMPI DUP1 PUSH1 0x1F LT PUSH2 0x10B0 JUMPI PUSH2 0x100 DUP1 DUP4 SLOAD DIV MUL DUP4 MSTORE SWAP2 PUSH1 0x20 ADD SWAP2 PUSH2 0x10DB JUMP JUMPDEST PUSH1 0x60 PUSH2 0x1E71 PUSH2 0x3519 JUMP JUMPDEST PUSH2 0x1EAF JUMPI PUSH1 0x40 MLOAD PUSH1 0x1 PUSH1 0xE5 SHL PUSH3 0x461BCD MUL DUP2 MSTORE PUSH1 0x4 ADD DUP1 DUP1 PUSH1 0x20 ADD DUP3 DUP2 SUB DUP3 MSTORE PUSH1 0x30 DUP2 MSTORE PUSH1 0x20 ADD DUP1 PUSH2 0x45F3 PUSH1 0x30 SWAP2 CODECOPY PUSH1 0x40 ADD SWAP2 POP POP PUSH1 0x40 MLOAD DUP1 SWAP2 SUB SWAP1 REVERT JUMPDEST PUSH2 0x129F DUP3 PUSH2 0x3847 JUMP JUMPDEST PUSH2 0x1EC1 CALLER PUSH2 0x388F JUMP JUMPDEST JUMP JUMPDEST PUSH1 0x0 DUP2 DUP2 MSTORE PUSH1 0x17 PUSH1 0x20 MSTORE PUSH1 0x40 DUP2 KECCAK256 SLOAD PUSH1 0x1 PUSH1 0x1 PUSH1 0xA0 SHL SUB AND CALLER EQ PUSH2 0x1F1B JUMPI PUSH1 0x40 MLOAD PUSH1 0x1 PUSH1 0xE5 SHL PUSH3 0x461BCD MUL DUP2 MSTORE PUSH1 0x4 ADD DUP1 DUP1 PUSH1 0x20 ADD DUP3 DUP2 SUB DUP3 MSTORE PUSH1 0x21 DUP2 MSTORE PUSH1 0x20 ADD DUP1 PUSH2 0x4644 PUSH1 0x21 SWAP2 CODECOPY PUSH1 0x40 ADD SWAP2 POP POP PUSH1 0x40 MLOAD DUP1 SWAP2 SUB SWAP1 REVERT JUMPDEST POP PUSH1 0x0 SWAP1 DUP2 MSTORE PUSH1 0x17 PUSH1 0x20 MSTORE PUSH1 0x40 SWAP1 KECCAK256 PUSH1 0x1 SWAP1 DUP2 ADD SWAP2 SWAP1 SWAP2 SSTORE SWAP1 JUMP JUMPDEST PUSH1 0x1 PUSH1 0x1 PUSH1 0xA0 SHL SUB DUP3 AND CALLER EQ ISZERO PUSH2 0x1F97 JUMPI PUSH1 0x40 DUP1 MLOAD PUSH1 0x1 PUSH1 0xE5 SHL PUSH3 0x461BCD MUL DUP2 MSTORE PUSH1 0x20 PUSH1 0x4 DUP3 ADD MSTORE PUSH1 0x19 PUSH1 0x24 DUP3 ADD MSTORE PUSH32 0x4552433732313A20617070726F766520746F2063616C6C657200000000000000 PUSH1 0x44 DUP3 ADD MSTORE SWAP1 MLOAD SWAP1 DUP2 SWAP1 SUB PUSH1 0x64 ADD SWAP1 REVERT JUMPDEST CALLER PUSH1 0x0 DUP2 DUP2 MSTORE PUSH1 0x4 PUSH1 0x20 SWAP1 DUP2 MSTORE PUSH1 0x40 DUP1 DUP4 KECCAK256 PUSH1 0x1 PUSH1 0x1 PUSH1 0xA0 SHL SUB DUP8 AND DUP1 DUP6 MSTORE SWAP1 DUP4 MSTORE SWAP3 DUP2 SWAP1 KECCAK256 DUP1 SLOAD PUSH1 0xFF NOT AND DUP7 ISZERO ISZERO SWAP1 DUP2 OR SWAP1 SWAP2 SSTORE DUP2 MLOAD SWAP1 DUP2 MSTORE SWAP1 MLOAD SWAP3 SWAP4 SWAP3 PUSH32 0x17307EAB39AB6107E8899845AD3D59BD9653F200F220920489CA2B5937696C31 SWAP3 SWAP2 DUP2 SWAP1 SUB SWAP1 SWAP2 ADD SWAP1 LOG3 POP POP JUMP JUMPDEST PUSH1 0x14 PUSH1 0x20 MSTORE PUSH1 0x0 SWAP1 DUP2 MSTORE PUSH1 0x40 SWAP1 KECCAK256 SLOAD DUP2 JUMP JUMPDEST PUSH2 0x129F CALLER DUP4 DUP4 PUSH2 0x37B6 JUMP JUMPDEST PUSH1 0x0 PUSH2 0x1307 PUSH1 0xC DUP4 PUSH4 0xFFFFFFFF PUSH2 0x38D7 AND JUMP JUMPDEST PUSH1 0xF DUP1 SLOAD PUSH1 0x1 ADD SWAP1 DUP2 SWAP1 SSTORE PUSH1 0x0 DUP4 DUP2 MSTORE PUSH1 0x18 PUSH1 0x20 MSTORE PUSH1 0x40 SWAP1 KECCAK256 PUSH1 0x4 ADD SLOAD PUSH1 0xFF AND ISZERO DUP1 ISZERO PUSH2 0x206F JUMPI POP PUSH1 0x0 DUP4 DUP2 MSTORE PUSH1 0x15 PUSH1 0x20 MSTORE PUSH1 0x40 SWAP1 KECCAK256 SLOAD ISZERO ISZERO JUMPDEST PUSH2 0x20AD JUMPI PUSH1 0x40 MLOAD PUSH1 0x1 PUSH1 0xE5 SHL PUSH3 0x461BCD MUL DUP2 MSTORE PUSH1 0x4 ADD DUP1 DUP1 PUSH1 0x20 ADD DUP3 DUP2 SUB DUP3 MSTORE PUSH1 0x2D DUP2 MSTORE PUSH1 0x20 ADD DUP1 PUSH2 0x47E3 PUSH1 0x2D SWAP2 CODECOPY PUSH1 0x40 ADD SWAP2 POP POP PUSH1 0x40 MLOAD DUP1 SWAP2 SUB SWAP1 REVERT JUMPDEST PUSH1 0x0 DUP4 DUP2 MSTORE PUSH1 0x15 PUSH1 0x20 SWAP1 DUP2 MSTORE PUSH1 0x40 SWAP2 DUP3 SWAP1 KECCAK256 SLOAD PUSH1 0x13 SLOAD DUP4 MLOAD PUSH1 0x1 PUSH1 0xE0 SHL PUSH4 0x70A08231 MUL DUP2 MSTORE CALLER PUSH1 0x4 DUP3 ADD MSTORE SWAP4 MLOAD SWAP2 SWAP4 PUSH1 0x1 PUSH1 0x1 PUSH1 0xA0 SHL SUB SWAP1 SWAP2 AND SWAP3 PUSH4 0x70A08231 SWAP3 PUSH1 0x24 DUP1 DUP5 ADD SWAP4 DUP3 SWAP1 SUB ADD DUP2 DUP7 DUP1 EXTCODESIZE ISZERO DUP1 ISZERO PUSH2 0x2108 JUMPI PUSH1 0x0 DUP1 REVERT JUMPDEST POP GAS STATICCALL ISZERO DUP1 ISZERO PUSH2 0x211C JUMPI RETURNDATASIZE PUSH1 0x0 DUP1 RETURNDATACOPY RETURNDATASIZE PUSH1 0x0 REVERT JUMPDEST POP POP POP POP PUSH1 0x40 MLOAD RETURNDATASIZE PUSH1 0x20 DUP2 LT ISZERO PUSH2 0x2132 JUMPI PUSH1 0x0 DUP1 REVERT JUMPDEST POP MLOAD LT ISZERO PUSH2 0x218A JUMPI PUSH1 0x40 DUP1 MLOAD PUSH1 0x1 PUSH1 0xE5 SHL PUSH3 0x461BCD MUL DUP2 MSTORE PUSH1 0x20 PUSH1 0x4 DUP3 ADD MSTORE PUSH1 0x1E PUSH1 0x24 DUP3 ADD MSTORE PUSH32 0x4552433732314D61746368613A204E6F7420656E6F7567682066756E64730000 PUSH1 0x44 DUP3 ADD MSTORE SWAP1 MLOAD SWAP1 DUP2 SWAP1 SUB PUSH1 0x64 ADD SWAP1 REVERT JUMPDEST PUSH1 0x0 PUSH2 0x2195 DUP5 PUSH2 0x1B8D JUMP JUMPDEST SWAP1 POP CALLER PUSH1 0x1 PUSH1 0x1 PUSH1 0xA0 SHL SUB DUP3 AND EQ ISZERO PUSH2 0x21E2 JUMPI PUSH1 0x40 MLOAD PUSH1 0x1 PUSH1 0xE5 SHL PUSH3 0x461BCD MUL DUP2 MSTORE PUSH1 0x4 ADD DUP1 DUP1 PUSH1 0x20 ADD DUP3 DUP2 SUB DUP3 MSTORE PUSH1 0x37 DUP2 MSTORE PUSH1 0x20 ADD DUP1 PUSH2 0x44E4 PUSH1 0x37 SWAP2 CODECOPY PUSH1 0x40 ADD SWAP2 POP POP PUSH1 0x40 MLOAD DUP1 SWAP2 SUB SWAP1 REVERT JUMPDEST PUSH1 0x13 SLOAD PUSH1 0x1 PUSH1 0x1 PUSH1 0xA0 SHL SUB AND PUSH4 0x23B872DD CALLER PUSH2 0x21FD DUP8 PUSH2 0x1B8D JUMP JUMPDEST DUP7 PUSH1 0x40 MLOAD DUP5 PUSH4 0xFFFFFFFF AND PUSH1 0xE0 SHL DUP2 MSTORE PUSH1 0x4 ADD DUP1 DUP5 PUSH1 0x1 PUSH1 0x1 PUSH1 0xA0 SHL SUB AND PUSH1 0x1 PUSH1 0x1 PUSH1 0xA0 SHL SUB AND DUP2 MSTORE PUSH1 0x20 ADD DUP4 PUSH1 0x1 PUSH1 0x1 PUSH1 0xA0 SHL SUB AND PUSH1 0x1 PUSH1 0x1 PUSH1 0xA0 SHL SUB AND DUP2 MSTORE PUSH1 0x20 ADD DUP3 DUP2 MSTORE PUSH1 0x20 ADD SWAP4 POP POP POP POP PUSH1 0x20 PUSH1 0x40 MLOAD DUP1 DUP4 SUB DUP2 PUSH1 0x0 DUP8 DUP1 EXTCODESIZE ISZERO DUP1 ISZERO PUSH2 0x2266 JUMPI PUSH1 0x0 DUP1 REVERT JUMPDEST POP GAS CALL ISZERO DUP1 ISZERO PUSH2 0x227A JUMPI RETURNDATASIZE PUSH1 0x0 DUP1 RETURNDATACOPY RETURNDATASIZE PUSH1 0x0 REVERT JUMPDEST POP POP POP POP PUSH1 0x40 MLOAD RETURNDATASIZE PUSH1 0x20 DUP2 LT ISZERO PUSH2 0x2290 JUMPI PUSH1 0x0 DUP1 REVERT JUMPDEST POP POP PUSH1 0x40 DUP1 MLOAD PUSH1 0x1 PUSH1 0x1 PUSH1 0xA0 SHL SUB DUP4 AND PUSH1 0x24 DUP3 ADD MSTORE CALLER PUSH1 0x44 DUP3 ADD MSTORE PUSH1 0x64 DUP1 DUP3 ADD DUP8 SWAP1 MSTORE DUP3 MLOAD DUP1 DUP4 SUB SWAP1 SWAP2 ADD DUP2 MSTORE PUSH1 0x84 SWAP1 SWAP2 ADD SWAP1 SWAP2 MSTORE PUSH1 0x20 DUP2 ADD DUP1 MLOAD PUSH1 0x1 PUSH1 0x1 PUSH1 0xE0 SHL SUB AND PUSH1 0x1 PUSH1 0xE0 SHL PUSH4 0x23B872DD MUL OR SWAP1 MSTORE PUSH2 0x22ED SWAP1 ADDRESS SWAP1 PUSH2 0x3941 JUMP JUMPDEST PUSH1 0x0 DUP5 DUP2 MSTORE PUSH1 0x15 PUSH1 0x20 SWAP1 DUP2 MSTORE PUSH1 0x40 DUP1 DUP4 KECCAK256 DUP4 SWAP1 SSTORE PUSH1 0x16 DUP3 MSTORE DUP1 DUP4 KECCAK256 DUP1 SLOAD PUSH1 0x1 PUSH1 0x1 PUSH1 0xA0 SHL SUB NOT AND SWAP1 SSTORE PUSH1 0x14 DUP3 MSTORE DUP1 DUP4 KECCAK256 DUP7 SWAP1 SSTORE PUSH1 0x17 SWAP1 SWAP2 MSTORE SWAP1 KECCAK256 PUSH1 0x2 ADD SLOAD PUSH1 0xFF AND PUSH2 0x234F JUMPI PUSH1 0x0 DUP5 DUP2 MSTORE PUSH1 0x17 PUSH1 0x20 MSTORE PUSH1 0x40 SWAP1 KECCAK256 PUSH1 0x2 ADD DUP1 SLOAD PUSH1 0xFF NOT AND PUSH1 0x1 OR SWAP1 SSTORE JUMPDEST PUSH1 0x40 DUP1 MLOAD DUP5 DUP2 MSTORE SWAP1 MLOAD CALLER SWAP2 PUSH1 0x1 PUSH1 0x1 PUSH1 0xA0 SHL SUB DUP5 AND SWAP2 DUP8 SWAP2 PUSH32 0x88863D5E20F64464B554931394E2E4B6F09C10015147215BF26B3BA5070ACEBE SWAP2 SWAP1 DUP2 SWAP1 SUB PUSH1 0x20 ADD SWAP1 LOG4 POP PUSH1 0xF SLOAD DUP2 EQ PUSH2 0x1360 JUMPI PUSH1 0x40 DUP1 MLOAD PUSH1 0x1 PUSH1 0xE5 SHL PUSH3 0x461BCD MUL DUP2 MSTORE PUSH1 0x20 PUSH1 0x4 DUP3 ADD MSTORE PUSH1 0x1F PUSH1 0x24 DUP3 ADD MSTORE PUSH1 0x0 DUP1 MLOAD PUSH1 0x20 PUSH2 0x4386 DUP4 CODECOPY DUP2 MLOAD SWAP2 MSTORE PUSH1 0x44 DUP3 ADD MSTORE SWAP1 MLOAD SWAP1 DUP2 SWAP1 SUB PUSH1 0x64 ADD SWAP1 REVERT JUMPDEST PUSH1 0xD SLOAD PUSH1 0xFF AND DUP2 JUMP JUMPDEST PUSH1 0x0 SWAP1 DUP2 MSTORE PUSH1 0x18 PUSH1 0x20 MSTORE PUSH1 0x40 SWAP1 KECCAK256 PUSH1 0x3 ADD SLOAD SWAP1 JUMP JUMPDEST PUSH1 0x0 DUP5 DUP2 MSTORE PUSH1 0x15 PUSH1 0x20 MSTORE PUSH1 0x40 SWAP1 KECCAK256 SLOAD ISZERO PUSH2 0x2446 JUMPI PUSH1 0x40 MLOAD PUSH1 0x1 PUSH1 0xE5 SHL PUSH3 0x461BCD MUL DUP2 MSTORE PUSH1 0x4 ADD DUP1 DUP1 PUSH1 0x20 ADD DUP3 DUP2 SUB DUP3 MSTORE PUSH1 0x44 DUP2 MSTORE PUSH1 0x20 ADD DUP1 PUSH2 0x477E PUSH1 0x44 SWAP2 CODECOPY PUSH1 0x60 ADD SWAP2 POP POP PUSH1 0x40 MLOAD DUP1 SWAP2 SUB SWAP1 REVERT JUMPDEST PUSH1 0x0 DUP5 DUP2 MSTORE PUSH1 0x18 PUSH1 0x20 MSTORE PUSH1 0x40 SWAP1 KECCAK256 PUSH1 0x4 ADD SLOAD PUSH1 0xFF AND ISZERO PUSH2 0x249A JUMPI PUSH1 0x40 MLOAD PUSH1 0x1 PUSH1 0xE5 SHL PUSH3 0x461BCD MUL DUP2 MSTORE PUSH1 0x4 ADD DUP1 DUP1 PUSH1 0x20 ADD DUP3 DUP2 SUB DUP3 MSTORE PUSH1 0x35 DUP2 MSTORE PUSH1 0x20 ADD DUP1 PUSH2 0x4351 PUSH1 0x35 SWAP2 CODECOPY PUSH1 0x40 ADD SWAP2 POP POP PUSH1 0x40 MLOAD DUP1 SWAP2 SUB SWAP1 REVERT JUMPDEST CALLER PUSH2 0x24A4 DUP6 PUSH2 0x1B8D JUMP JUMPDEST PUSH1 0x1 PUSH1 0x1 PUSH1 0xA0 SHL SUB AND EQ PUSH2 0x24EC JUMPI PUSH1 0x40 MLOAD PUSH1 0x1 PUSH1 0xE5 SHL PUSH3 0x461BCD MUL DUP2 MSTORE PUSH1 0x4 ADD DUP1 DUP1 PUSH1 0x20 ADD DUP3 DUP2 SUB DUP3 MSTORE PUSH1 0x2E DUP2 MSTORE PUSH1 0x20 ADD DUP1 PUSH2 0x43C7 PUSH1 0x2E SWAP2 CODECOPY PUSH1 0x40 ADD SWAP2 POP POP PUSH1 0x40 MLOAD DUP1 SWAP2 SUB SWAP1 REVERT JUMPDEST PUSH1 0x0 DUP5 DUP2 MSTORE PUSH1 0x18 PUSH1 0x20 MSTORE PUSH1 0x40 SWAP1 KECCAK256 DUP1 SLOAD PUSH1 0x1 PUSH1 0x1 PUSH1 0xA0 SHL SUB NOT AND PUSH1 0x1 PUSH1 0x1 PUSH1 0xA0 SHL SUB DUP5 AND OR DUP2 SSTORE PUSH1 0x1 DUP1 DUP3 ADD DUP6 SWAP1 SSTORE PUSH1 0x5 DUP3 ADD DUP4 SWAP1 SSTORE PUSH1 0x4 SWAP1 SWAP2 ADD DUP1 SLOAD PUSH1 0xFF NOT AND SWAP1 SWAP2 OR SWAP1 SSTORE PUSH2 0x253C ADDRESS DUP6 PUSH2 0x114B JUMP JUMPDEST POP POP POP POP JUMP JUMPDEST PUSH1 0x0 CALLER PUSH2 0x254E DUP4 PUSH2 0x1B8D JUMP JUMPDEST PUSH1 0x1 PUSH1 0x1 PUSH1 0xA0 SHL SUB AND EQ DUP1 ISZERO PUSH2 0x1307 JUMPI POP POP PUSH1 0x0 SWAP1 DUP2 MSTORE PUSH1 0x18 PUSH1 0x20 MSTORE PUSH1 0x40 SWAP1 KECCAK256 PUSH1 0x4 ADD SLOAD PUSH1 0xFF AND ISZERO SWAP1 JUMP JUMPDEST PUSH2 0x2584 DUP5 DUP5 DUP5 PUSH2 0x130D JUMP JUMPDEST PUSH2 0x2590 DUP5 DUP5 DUP5 DUP5 PUSH2 0x3AEC JUMP JUMPDEST PUSH2 0x253C JUMPI PUSH1 0x40 MLOAD PUSH1 0x1 PUSH1 0xE5 SHL PUSH3 0x461BCD MUL DUP2 MSTORE PUSH1 0x4 ADD DUP1 DUP1 PUSH1 0x20 ADD DUP3 DUP2 SUB DUP3 MSTORE PUSH1 0x32 DUP2 MSTORE PUSH1 0x20 ADD DUP1 PUSH2 0x4420 PUSH1 0x32 SWAP2 CODECOPY PUSH1 0x40 ADD SWAP2 POP POP PUSH1 0x40 MLOAD DUP1 SWAP2 SUB SWAP1 REVERT JUMPDEST PUSH1 0x60 PUSH2 0x25D9 DUP3 PUSH2 0x368C JUMP JUMPDEST PUSH2 0x2617 JUMPI PUSH1 0x40 MLOAD PUSH1 0x1 PUSH1 0xE5 SHL PUSH3 0x461BCD MUL DUP2 MSTORE PUSH1 0x4 ADD DUP1 DUP1 PUSH1 0x20 ADD DUP3 DUP2 SUB DUP3 MSTORE PUSH1 0x2F DUP2 MSTORE PUSH1 0x20 ADD DUP1 PUSH2 0x474F PUSH1 0x2F SWAP2 CODECOPY PUSH1 0x40 ADD SWAP2 POP POP PUSH1 0x40 MLOAD DUP1 SWAP2 SUB SWAP1 REVERT JUMPDEST PUSH1 0x0 DUP3 DUP2 MSTORE PUSH1 0xB PUSH1 0x20 SWAP1 DUP2 MSTORE PUSH1 0x40 SWAP2 DUP3 SWAP1 KECCAK256 DUP1 SLOAD DUP4 MLOAD PUSH1 0x1F PUSH1 0x2 PUSH1 0x0 NOT PUSH2 0x100 PUSH1 0x1 DUP7 AND ISZERO MUL ADD SWAP1 SWAP4 AND SWAP3 SWAP1 SWAP3 DIV SWAP2 DUP3 ADD DUP5 SWAP1 DIV DUP5 MUL DUP2 ADD DUP5 ADD SWAP1 SWAP5 MSTORE DUP1 DUP5 MSTORE SWAP1 SWAP2 DUP4 ADD DUP3 DUP3 DUP1 ISZERO PUSH2 0x1D65 JUMPI DUP1 PUSH1 0x1F LT PUSH2 0x267F JUMPI PUSH2 0x100 DUP1 DUP4 SLOAD DIV MUL DUP4 MSTORE SWAP2 PUSH1 0x20 ADD SWAP2 PUSH2 0x1D65 JUMP JUMPDEST DUP3 ADD SWAP2 SWAP1 PUSH1 0x0 MSTORE PUSH1 0x20 PUSH1 0x0 KECCAK256 SWAP1 JUMPDEST DUP2 SLOAD DUP2 MSTORE SWAP1 PUSH1 0x1 ADD SWAP1 PUSH1 0x20 ADD DUP1 DUP4 GT PUSH2 0x268D JUMPI POP SWAP4 SWAP7 SWAP6 POP POP POP POP POP POP JUMP JUMPDEST CALLER PUSH2 0x26B6 DUP5 PUSH2 0x1B8D JUMP JUMPDEST PUSH1 0x1 PUSH1 0x1 PUSH1 0xA0 SHL SUB AND EQ PUSH2 0x26FE JUMPI PUSH1 0x40 MLOAD PUSH1 0x1 PUSH1 0xE5 SHL PUSH3 0x461BCD MUL DUP2 MSTORE PUSH1 0x4 ADD DUP1 DUP1 PUSH1 0x20 ADD DUP3 DUP2 SUB DUP3 MSTORE PUSH1 0x2B DUP2 MSTORE PUSH1 0x20 ADD DUP1 PUSH2 0x4474 PUSH1 0x2B SWAP2 CODECOPY PUSH1 0x40 ADD SWAP2 POP POP PUSH1 0x40 MLOAD DUP1 SWAP2 SUB SWAP1 REVERT JUMPDEST PUSH1 0x0 DUP4 DUP2 MSTORE PUSH1 0x18 PUSH1 0x20 MSTORE PUSH1 0x40 SWAP1 KECCAK256 PUSH1 0x4 ADD SLOAD PUSH1 0xFF AND ISZERO PUSH2 0x2752 JUMPI PUSH1 0x40 MLOAD PUSH1 0x1 PUSH1 0xE5 SHL PUSH3 0x461BCD MUL DUP2 MSTORE PUSH1 0x4 ADD DUP1 DUP1 PUSH1 0x20 ADD DUP3 DUP2 SUB DUP3 MSTORE PUSH1 0x3D DUP2 MSTORE PUSH1 0x20 ADD DUP1 PUSH2 0x4898 PUSH1 0x3D SWAP2 CODECOPY PUSH1 0x40 ADD SWAP2 POP POP PUSH1 0x40 MLOAD DUP1 SWAP2 SUB SWAP1 REVERT JUMPDEST PUSH1 0x0 DUP4 DUP2 MSTORE PUSH1 0x15 PUSH1 0x20 MSTORE PUSH1 0x40 SWAP1 KECCAK256 DUP3 SWAP1 SSTORE DUP2 ISZERO PUSH2 0x1360 JUMPI PUSH2 0x2773 ADDRESS DUP5 PUSH2 0x114B JUMP JUMPDEST PUSH1 0x0 DUP4 DUP2 MSTORE PUSH1 0x16 PUSH1 0x20 MSTORE PUSH1 0x40 SWAP1 KECCAK256 DUP1 SLOAD PUSH1 0x1 PUSH1 0x1 PUSH1 0xA0 SHL SUB DUP4 AND PUSH1 0x1 PUSH1 0x1 PUSH1 0xA0 SHL SUB NOT SWAP1 SWAP2 AND OR SWAP1 SSTORE POP POP POP JUMP JUMPDEST PUSH1 0xF DUP1 SLOAD PUSH1 0x1 ADD SWAP1 DUP2 SWAP1 SSTORE PUSH1 0x0 DUP3 DUP2 MSTORE PUSH1 0x18 PUSH1 0x20 MSTORE PUSH1 0x40 SWAP1 KECCAK256 PUSH1 0x4 ADD SLOAD PUSH1 0xFF AND ISZERO DUP1 ISZERO PUSH2 0x27DB JUMPI POP PUSH1 0x0 DUP3 DUP2 MSTORE PUSH1 0x15 PUSH1 0x20 MSTORE PUSH1 0x40 SWAP1 KECCAK256 SLOAD ISZERO ISZERO JUMPDEST PUSH2 0x2819 JUMPI PUSH1 0x40 MLOAD PUSH1 0x1 PUSH1 0xE5 SHL PUSH3 0x461BCD MUL DUP2 MSTORE PUSH1 0x4 ADD DUP1 DUP1 PUSH1 0x20 ADD DUP3 DUP2 SUB DUP3 MSTORE PUSH1 0x2D DUP2 MSTORE PUSH1 0x20 ADD DUP1 PUSH2 0x47E3 PUSH1 0x2D SWAP2 CODECOPY PUSH1 0x40 ADD SWAP2 POP POP PUSH1 0x40 MLOAD DUP1 SWAP2 SUB SWAP1 REVERT JUMPDEST PUSH1 0x0 DUP3 DUP2 MSTORE PUSH1 0x15 PUSH1 0x20 MSTORE PUSH1 0x40 SWAP1 KECCAK256 SLOAD CALLVALUE LT ISZERO PUSH2 0x287F JUMPI PUSH1 0x40 DUP1 MLOAD PUSH1 0x1 PUSH1 0xE5 SHL PUSH3 0x461BCD MUL DUP2 MSTORE PUSH1 0x20 PUSH1 0x4 DUP3 ADD MSTORE PUSH1 0x1E PUSH1 0x24 DUP3 ADD MSTORE PUSH32 0x4552433732314D61746368613A204E6F7420656E6F7567682066756E64730000 PUSH1 0x44 DUP3 ADD MSTORE SWAP1 MLOAD SWAP1 DUP2 SWAP1 SUB PUSH1 0x64 ADD SWAP1 REVERT JUMPDEST PUSH1 0x0 PUSH2 0x288A DUP4 PUSH2 0x1B8D JUMP JUMPDEST SWAP1 POP CALLER PUSH1 0x1 PUSH1 0x1 PUSH1 0xA0 SHL SUB DUP3 AND EQ ISZERO PUSH2 0x28D7 JUMPI PUSH1 0x40 MLOAD PUSH1 0x1 PUSH1 0xE5 SHL PUSH3 0x461BCD MUL DUP2 MSTORE PUSH1 0x4 ADD DUP1 DUP1 PUSH1 0x20 ADD DUP3 DUP2 SUB DUP3 MSTORE PUSH1 0x37 DUP2 MSTORE PUSH1 0x20 ADD DUP1 PUSH2 0x44E4 PUSH1 0x37 SWAP2 CODECOPY PUSH1 0x40 ADD SWAP2 POP POP PUSH1 0x40 MLOAD DUP1 SWAP2 SUB SWAP1 REVERT JUMPDEST PUSH1 0x40 DUP1 MLOAD PUSH1 0x1 PUSH1 0x1 PUSH1 0xA0 SHL SUB DUP4 AND PUSH1 0x24 DUP3 ADD MSTORE CALLER PUSH1 0x44 DUP3 ADD MSTORE PUSH1 0x64 DUP1 DUP3 ADD DUP7 SWAP1 MSTORE DUP3 MLOAD DUP1 DUP4 SUB SWAP1 SWAP2 ADD DUP2 MSTORE PUSH1 0x84 SWAP1 SWAP2 ADD SWAP1 SWAP2 MSTORE PUSH1 0x20 DUP2 ADD DUP1 MLOAD PUSH1 0x1 PUSH1 0x1 PUSH1 0xE0 SHL SUB AND PUSH1 0x1 PUSH1 0xE0 SHL PUSH4 0x23B872DD MUL OR SWAP1 MSTORE PUSH2 0x2932 SWAP1 ADDRESS SWAP1 PUSH2 0x3941 JUMP JUMPDEST PUSH1 0x0 DUP4 DUP2 MSTORE PUSH1 0x17 PUSH1 0x20 MSTORE PUSH1 0x40 DUP2 KECCAK256 PUSH1 0x2 ADD SLOAD DUP2 SWAP1 DUP2 SWAP1 PUSH1 0xFF AND ISZERO PUSH2 0x2AD9 JUMPI PUSH2 0x2976 PUSH1 0x64 PUSH2 0x296A PUSH1 0x12 SLOAD CALLVALUE PUSH2 0x3C25 SWAP1 SWAP2 SWAP1 PUSH4 0xFFFFFFFF AND JUMP JUMPDEST SWAP1 PUSH4 0xFFFFFFFF PUSH2 0x3C88 AND JUMP JUMPDEST PUSH1 0x0 DUP8 DUP2 MSTORE PUSH1 0x17 PUSH1 0x20 MSTORE PUSH1 0x40 SWAP1 KECCAK256 PUSH1 0x1 ADD SLOAD SWAP1 SWAP4 POP PUSH2 0x29B2 SWAP1 PUSH1 0x64 SWAP1 PUSH2 0x296A SWAP1 PUSH2 0x29A6 CALLVALUE DUP9 PUSH4 0xFFFFFFFF PUSH2 0x3CF5 AND JUMP JUMPDEST SWAP1 PUSH4 0xFFFFFFFF PUSH2 0x3C25 AND JUMP JUMPDEST SWAP2 POP PUSH2 0x29D4 DUP4 PUSH2 0x29C8 CALLVALUE DUP6 PUSH4 0xFFFFFFFF PUSH2 0x3CF5 AND JUMP JUMPDEST SWAP1 PUSH4 0xFFFFFFFF PUSH2 0x3CF5 AND JUMP JUMPDEST PUSH1 0x0 DUP8 DUP2 MSTORE PUSH1 0x17 PUSH1 0x20 MSTORE PUSH1 0x40 DUP1 DUP3 KECCAK256 SLOAD SWAP1 MLOAD SWAP3 SWAP4 POP SWAP1 SWAP2 PUSH1 0x1 PUSH1 0x1 PUSH1 0xA0 SHL SUB SWAP1 SWAP2 AND SWAP1 DUP5 SWAP1 DUP4 DUP2 DUP2 DUP2 DUP6 DUP8 GAS CALL SWAP3 POP POP POP RETURNDATASIZE DUP1 PUSH1 0x0 DUP2 EQ PUSH2 0x2A31 JUMPI PUSH1 0x40 MLOAD SWAP2 POP PUSH1 0x1F NOT PUSH1 0x3F RETURNDATASIZE ADD AND DUP3 ADD PUSH1 0x40 MSTORE RETURNDATASIZE DUP3 MSTORE RETURNDATASIZE PUSH1 0x0 PUSH1 0x20 DUP5 ADD RETURNDATACOPY PUSH2 0x2A36 JUMP JUMPDEST PUSH1 0x60 SWAP2 POP JUMPDEST POP POP SWAP1 POP DUP1 PUSH2 0x2A79 JUMPI PUSH1 0x40 MLOAD PUSH1 0x1 PUSH1 0xE5 SHL PUSH3 0x461BCD MUL DUP2 MSTORE PUSH1 0x4 ADD DUP1 DUP1 PUSH1 0x20 ADD DUP3 DUP2 SUB DUP3 MSTORE PUSH1 0x22 DUP2 MSTORE PUSH1 0x20 ADD DUP1 PUSH2 0x4452 PUSH1 0x22 SWAP2 CODECOPY PUSH1 0x40 ADD SWAP2 POP POP PUSH1 0x40 MLOAD DUP1 SWAP2 SUB SWAP1 REVERT JUMPDEST PUSH1 0x0 DUP8 DUP2 MSTORE PUSH1 0x17 PUSH1 0x20 SWAP1 DUP2 MSTORE PUSH1 0x40 SWAP2 DUP3 SWAP1 KECCAK256 SLOAD DUP3 MLOAD PUSH1 0x1 PUSH1 0x1 PUSH1 0xA0 SHL SUB SWAP1 SWAP2 AND DUP2 MSTORE SWAP1 DUP2 ADD DUP6 SWAP1 MSTORE DUP1 DUP3 ADD DUP10 SWAP1 MSTORE SWAP1 MLOAD PUSH32 0x6662B78EF97534D4E88E2670107E66177C240E406D1F3527D88D693CAFCF9914 SWAP2 DUP2 SWAP1 SUB PUSH1 0x60 ADD SWAP1 LOG1 POP PUSH2 0x2B08 JUMP JUMPDEST PUSH2 0x2AF3 PUSH1 0x64 PUSH2 0x296A PUSH1 0x12 SLOAD CALLVALUE PUSH2 0x3C25 SWAP1 SWAP2 SWAP1 PUSH4 0xFFFFFFFF AND JUMP JUMPDEST SWAP3 POP PUSH2 0x2B05 CALLVALUE DUP5 PUSH4 0xFFFFFFFF PUSH2 0x3CF5 AND JUMP JUMPDEST SWAP1 POP JUMPDEST PUSH1 0x10 SLOAD PUSH1 0x40 MLOAD PUSH1 0x0 SWAP2 PUSH1 0x1 PUSH1 0x1 PUSH1 0xA0 SHL SUB AND SWAP1 DUP6 SWAP1 DUP4 DUP2 DUP2 DUP2 DUP6 DUP8 GAS CALL SWAP3 POP POP POP RETURNDATASIZE DUP1 PUSH1 0x0 DUP2 EQ PUSH2 0x2B55 JUMPI PUSH1 0x40 MLOAD SWAP2 POP PUSH1 0x1F NOT PUSH1 0x3F RETURNDATASIZE ADD AND DUP3 ADD PUSH1 0x40 MSTORE RETURNDATASIZE DUP3 MSTORE RETURNDATASIZE PUSH1 0x0 PUSH1 0x20 DUP5 ADD RETURNDATACOPY PUSH2 0x2B5A JUMP JUMPDEST PUSH1 0x60 SWAP2 POP JUMPDEST POP POP SWAP1 POP DUP1 PUSH2 0x2B9D JUMPI PUSH1 0x40 MLOAD PUSH1 0x1 PUSH1 0xE5 SHL PUSH3 0x461BCD MUL DUP2 MSTORE PUSH1 0x4 ADD DUP1 DUP1 PUSH1 0x20 ADD DUP3 DUP2 SUB DUP3 MSTORE PUSH1 0x21 DUP2 MSTORE PUSH1 0x20 ADD DUP1 PUSH2 0x449F PUSH1 0x21 SWAP2 CODECOPY PUSH1 0x40 ADD SWAP2 POP POP PUSH1 0x40 MLOAD DUP1 SWAP2 SUB SWAP1 REVERT JUMPDEST PUSH1 0x0 DUP8 DUP2 MSTORE PUSH1 0x16 PUSH1 0x20 MSTORE PUSH1 0x40 DUP1 DUP3 KECCAK256 SLOAD SWAP1 MLOAD PUSH1 0x1 PUSH1 0x1 PUSH1 0xA0 SHL SUB SWAP1 SWAP2 AND SWAP1 DUP5 SWAP1 DUP4 DUP2 DUP2 DUP2 DUP6 DUP8 GAS CALL SWAP3 POP POP POP RETURNDATASIZE DUP1 PUSH1 0x0 DUP2 EQ PUSH2 0x2BF5 JUMPI PUSH1 0x40 MLOAD SWAP2 POP PUSH1 0x1F NOT PUSH1 0x3F RETURNDATASIZE ADD AND DUP3 ADD PUSH1 0x40 MSTORE RETURNDATASIZE DUP3 MSTORE RETURNDATASIZE PUSH1 0x0 PUSH1 0x20 DUP5 ADD RETURNDATACOPY PUSH2 0x2BFA JUMP JUMPDEST PUSH1 0x60 SWAP2 POP JUMPDEST POP POP SWAP1 POP DUP1 PUSH2 0x2C3D JUMPI PUSH1 0x40 MLOAD PUSH1 0x1 PUSH1 0xE5 SHL PUSH3 0x461BCD MUL DUP2 MSTORE PUSH1 0x4 ADD DUP1 DUP1 PUSH1 0x20 ADD DUP3 DUP2 SUB DUP3 MSTORE PUSH1 0x21 DUP2 MSTORE PUSH1 0x20 ADD DUP1 PUSH2 0x43A6 PUSH1 0x21 SWAP2 CODECOPY PUSH1 0x40 ADD SWAP2 POP POP PUSH1 0x40 MLOAD DUP1 SWAP2 SUB SWAP1 REVERT JUMPDEST PUSH1 0x0 DUP9 DUP2 MSTORE PUSH1 0x15 PUSH1 0x20 SWAP1 DUP2 MSTORE PUSH1 0x40 DUP1 DUP4 KECCAK256 DUP4 SWAP1 SSTORE PUSH1 0x16 DUP3 MSTORE DUP1 DUP4 KECCAK256 DUP1 SLOAD PUSH1 0x1 PUSH1 0x1 PUSH1 0xA0 SHL SUB NOT AND SWAP1 SSTORE PUSH1 0x14 DUP3 MSTORE DUP1 DUP4 KECCAK256 CALLVALUE SWAP1 SSTORE PUSH1 0x17 SWAP1 SWAP2 MSTORE SWAP1 KECCAK256 PUSH1 0x2 ADD SLOAD PUSH1 0xFF AND PUSH2 0x2C9F JUMPI PUSH1 0x0 DUP9 DUP2 MSTORE PUSH1 0x17 PUSH1 0x20 MSTORE PUSH1 0x40 SWAP1 KECCAK256 PUSH1 0x2 ADD DUP1 SLOAD PUSH1 0xFF NOT AND PUSH1 0x1 OR SWAP1 SSTORE JUMPDEST PUSH1 0x40 DUP1 MLOAD DUP5 DUP2 MSTORE SWAP1 MLOAD CALLER SWAP2 PUSH1 0x1 PUSH1 0x1 PUSH1 0xA0 SHL SUB DUP10 AND SWAP2 DUP12 SWAP2 PUSH32 0x88863D5E20F64464B554931394E2E4B6F09C10015147215BF26B3BA5070ACEBE SWAP2 SWAP1 DUP2 SWAP1 SUB PUSH1 0x20 ADD SWAP1 LOG4 PUSH1 0x12 SLOAD PUSH1 0x40 DUP1 MLOAD CALLVALUE DUP2 MSTORE PUSH1 0x20 DUP2 ADD SWAP3 SWAP1 SWAP3 MSTORE DUP2 DUP2 ADD DUP8 SWAP1 MSTORE MLOAD PUSH1 0x1 PUSH1 0x1 PUSH1 0xA0 SHL SUB DUP9 AND SWAP2 DUP11 SWAP2 PUSH32 0xEF7A63D352D8B0F42E35D7F8BD277BA75BA2FF721A50EAAD4C62F1EE6561D5EB SWAP2 DUP2 SWAP1 SUB PUSH1 0x60 ADD SWAP1 LOG3 POP POP POP POP POP POP PUSH1 0xF SLOAD DUP2 EQ PUSH2 0x129F JUMPI PUSH1 0x40 DUP1 MLOAD PUSH1 0x1 PUSH1 0xE5 SHL PUSH3 0x461BCD MUL DUP2 MSTORE PUSH1 0x20 PUSH1 0x4 DUP3 ADD MSTORE PUSH1 0x1F PUSH1 0x24 DUP3 ADD MSTORE PUSH1 0x0 DUP1 MLOAD PUSH1 0x20 PUSH2 0x4386 DUP4 CODECOPY DUP2 MLOAD SWAP2 MSTORE PUSH1 0x44 DUP3 ADD MSTORE SWAP1 MLOAD SWAP1 DUP2 SWAP1 SUB PUSH1 0x64 ADD SWAP1 REVERT JUMPDEST PUSH1 0xF DUP1 SLOAD PUSH1 0x1 ADD SWAP1 DUP2 SWAP1 SSTORE PUSH2 0x2D93 DUP3 PUSH2 0x33F7 JUMP JUMPDEST PUSH2 0x2DE7 JUMPI PUSH1 0x40 DUP1 MLOAD PUSH1 0x1 PUSH1 0xE5 SHL PUSH3 0x461BCD MUL DUP2 MSTORE PUSH1 0x20 PUSH1 0x4 DUP3 ADD MSTORE PUSH1 0xF PUSH1 0x24 DUP3 ADD MSTORE PUSH32 0x43616E6E6F742066696E616C697A650000000000000000000000000000000000 PUSH1 0x44 DUP3 ADD MSTORE SWAP1 MLOAD SWAP1 DUP2 SWAP1 SUB PUSH1 0x64 ADD SWAP1 REVERT JUMPDEST PUSH1 0x0 DUP3 DUP2 MSTORE PUSH1 0x18 PUSH1 0x20 MSTORE PUSH1 0x40 SWAP1 KECCAK256 PUSH1 0x3 ADD SLOAD ISZERO PUSH2 0x3300 JUMPI PUSH1 0x0 DUP3 DUP2 MSTORE PUSH1 0x18 PUSH1 0x20 SWAP1 DUP2 MSTORE PUSH1 0x40 DUP1 DUP4 KECCAK256 PUSH1 0x2 SWAP1 DUP2 ADD SLOAD PUSH1 0x17 SWAP1 SWAP4 MSTORE SWAP1 DUP4 KECCAK256 ADD SLOAD PUSH1 0x1 PUSH1 0x1 PUSH1 0xA0 SHL SUB SWAP1 SWAP2 AND SWAP2 SWAP1 DUP2 SWAP1 DUP2 SWAP1 PUSH1 0xFF AND ISZERO PUSH2 0x2FD2 JUMPI PUSH1 0x12 SLOAD PUSH1 0x0 DUP8 DUP2 MSTORE PUSH1 0x18 PUSH1 0x20 MSTORE PUSH1 0x40 SWAP1 KECCAK256 PUSH1 0x3 ADD SLOAD PUSH2 0x2E63 SWAP2 PUSH1 0x64 SWAP2 PUSH2 0x296A SWAP2 PUSH4 0xFFFFFFFF PUSH2 0x3C25 AND JUMP JUMPDEST PUSH1 0x0 DUP8 DUP2 MSTORE PUSH1 0x17 PUSH1 0x20 SWAP1 DUP2 MSTORE PUSH1 0x40 DUP1 DUP4 KECCAK256 PUSH1 0x1 ADD SLOAD PUSH1 0x18 SWAP1 SWAP3 MSTORE SWAP1 SWAP2 KECCAK256 PUSH1 0x3 ADD SLOAD SWAP2 SWAP5 POP PUSH2 0x2EA2 SWAP2 PUSH1 0x64 SWAP2 PUSH2 0x296A SWAP2 PUSH2 0x29A6 SWAP1 DUP9 PUSH4 0xFFFFFFFF PUSH2 0x3CF5 AND JUMP JUMPDEST PUSH1 0x0 DUP8 DUP2 MSTORE PUSH1 0x18 PUSH1 0x20 MSTORE PUSH1 0x40 SWAP1 KECCAK256 PUSH1 0x3 ADD SLOAD SWAP1 SWAP3 POP PUSH2 0x2ECD SWAP1 DUP5 SWAP1 PUSH2 0x29C8 SWAP1 DUP6 PUSH4 0xFFFFFFFF PUSH2 0x3CF5 AND JUMP JUMPDEST PUSH1 0x0 DUP8 DUP2 MSTORE PUSH1 0x17 PUSH1 0x20 MSTORE PUSH1 0x40 DUP1 DUP3 KECCAK256 SLOAD SWAP1 MLOAD SWAP3 SWAP4 POP SWAP1 SWAP2 PUSH1 0x1 PUSH1 0x1 PUSH1 0xA0 SHL SUB SWAP1 SWAP2 AND SWAP1 DUP5 SWAP1 DUP4 DUP2 DUP2 DUP2 DUP6 DUP8 GAS CALL SWAP3 POP POP POP RETURNDATASIZE DUP1 PUSH1 0x0 DUP2 EQ PUSH2 0x2F2A JUMPI PUSH1 0x40 MLOAD SWAP2 POP PUSH1 0x1F NOT PUSH1 0x3F RETURNDATASIZE ADD AND DUP3 ADD PUSH1 0x40 MSTORE RETURNDATASIZE DUP3 MSTORE RETURNDATASIZE PUSH1 0x0 PUSH1 0x20 DUP5 ADD RETURNDATACOPY PUSH2 0x2F2F JUMP JUMPDEST PUSH1 0x60 SWAP2 POP JUMPDEST POP POP SWAP1 POP DUP1 PUSH2 0x2F72 JUMPI PUSH1 0x40 MLOAD PUSH1 0x1 PUSH1 0xE5 SHL PUSH3 0x461BCD MUL DUP2 MSTORE PUSH1 0x4 ADD DUP1 DUP1 PUSH1 0x20 ADD DUP3 DUP2 SUB DUP3 MSTORE PUSH1 0x22 DUP2 MSTORE PUSH1 0x20 ADD DUP1 PUSH2 0x4452 PUSH1 0x22 SWAP2 CODECOPY PUSH1 0x40 ADD SWAP2 POP POP PUSH1 0x40 MLOAD DUP1 SWAP2 SUB SWAP1 REVERT JUMPDEST PUSH1 0x0 DUP8 DUP2 MSTORE PUSH1 0x17 PUSH1 0x20 SWAP1 DUP2 MSTORE PUSH1 0x40 SWAP2 DUP3 SWAP1 KECCAK256 SLOAD DUP3 MLOAD PUSH1 0x1 PUSH1 0x1 PUSH1 0xA0 SHL SUB SWAP1 SWAP2 AND DUP2 MSTORE SWAP1 DUP2 ADD DUP6 SWAP1 MSTORE DUP1 DUP3 ADD DUP10 SWAP1 MSTORE SWAP1 MLOAD PUSH32 0x6662B78EF97534D4E88E2670107E66177C240E406D1F3527D88D693CAFCF9914 SWAP2 DUP2 SWAP1 SUB PUSH1 0x60 ADD SWAP1 LOG1 POP PUSH2 0x3025 JUMP JUMPDEST PUSH1 0x12 SLOAD PUSH1 0x0 DUP8 DUP2 MSTORE PUSH1 0x18 PUSH1 0x20 MSTORE PUSH1 0x40 SWAP1 KECCAK256 PUSH1 0x3 ADD SLOAD PUSH2 0x2FFD SWAP2 PUSH1 0x64 SWAP2 PUSH2 0x296A SWAP2 PUSH4 0xFFFFFFFF PUSH2 0x3C25 AND JUMP JUMPDEST PUSH1 0x0 DUP8 DUP2 MSTORE PUSH1 0x18 PUSH1 0x20 MSTORE PUSH1 0x40 SWAP1 KECCAK256 PUSH1 0x3 ADD SLOAD SWAP1 SWAP4 POP PUSH2 0x3022 SWAP1 DUP5 PUSH4 0xFFFFFFFF PUSH2 0x3CF5 AND JUMP JUMPDEST SWAP1 POP JUMPDEST PUSH1 0x0 DUP7 DUP2 MSTORE PUSH1 0x18 PUSH1 0x20 MSTORE PUSH1 0x40 DUP1 DUP3 KECCAK256 SLOAD SWAP1 MLOAD PUSH1 0x1 PUSH1 0x1 PUSH1 0xA0 SHL SUB SWAP1 SWAP2 AND SWAP1 DUP4 SWAP1 DUP4 DUP2 DUP2 DUP2 DUP6 DUP8 GAS CALL SWAP3 POP POP POP RETURNDATASIZE DUP1 PUSH1 0x0 DUP2 EQ PUSH2 0x307D JUMPI PUSH1 0x40 MLOAD SWAP2 POP PUSH1 0x1F NOT PUSH1 0x3F RETURNDATASIZE ADD AND DUP3 ADD PUSH1 0x40 MSTORE RETURNDATASIZE DUP3 MSTORE RETURNDATASIZE PUSH1 0x0 PUSH1 0x20 DUP5 ADD RETURNDATACOPY PUSH2 0x3082 JUMP JUMPDEST PUSH1 0x60 SWAP2 POP JUMPDEST POP POP SWAP1 POP DUP1 PUSH2 0x30D1 JUMPI PUSH1 0x40 DUP1 MLOAD PUSH1 0x1 PUSH1 0xE5 SHL PUSH3 0x461BCD MUL DUP2 MSTORE PUSH1 0x20 PUSH1 0x4 DUP3 ADD MSTORE PUSH1 0x10 PUSH1 0x24 DUP3 ADD MSTORE PUSH1 0x1 PUSH1 0x81 SHL PUSH16 0x2A3930B739B332B9103330B4B632B217 MUL PUSH1 0x44 DUP3 ADD MSTORE SWAP1 MLOAD SWAP1 DUP2 SWAP1 SUB PUSH1 0x64 ADD SWAP1 REVERT JUMPDEST PUSH1 0x10 SLOAD PUSH1 0x40 MLOAD PUSH1 0x0 SWAP2 PUSH1 0x1 PUSH1 0x1 PUSH1 0xA0 SHL SUB AND SWAP1 DUP7 SWAP1 DUP4 DUP2 DUP2 DUP2 DUP6 DUP8 GAS CALL SWAP3 POP POP POP RETURNDATASIZE DUP1 PUSH1 0x0 DUP2 EQ PUSH2 0x311E JUMPI PUSH1 0x40 MLOAD SWAP2 POP PUSH1 0x1F NOT PUSH1 0x3F RETURNDATASIZE ADD AND DUP3 ADD PUSH1 0x40 MSTORE RETURNDATASIZE DUP3 MSTORE RETURNDATASIZE PUSH1 0x0 PUSH1 0x20 DUP5 ADD RETURNDATACOPY PUSH2 0x3123 JUMP JUMPDEST PUSH1 0x60 SWAP2 POP JUMPDEST POP POP SWAP1 POP DUP1 PUSH2 0x3172 JUMPI PUSH1 0x40 DUP1 MLOAD PUSH1 0x1 PUSH1 0xE5 SHL PUSH3 0x461BCD MUL DUP2 MSTORE PUSH1 0x20 PUSH1 0x4 DUP3 ADD MSTORE PUSH1 0x10 PUSH1 0x24 DUP3 ADD MSTORE PUSH1 0x1 PUSH1 0x81 SHL PUSH16 0x2A3930B739B332B9103330B4B632B217 MUL PUSH1 0x44 DUP3 ADD MSTORE SWAP1 MLOAD SWAP1 DUP2 SWAP1 SUB PUSH1 0x64 ADD SWAP1 REVERT JUMPDEST PUSH1 0x0 DUP9 DUP2 MSTORE PUSH1 0x17 PUSH1 0x20 MSTORE PUSH1 0x40 SWAP1 KECCAK256 PUSH1 0x2 ADD SLOAD PUSH1 0xFF AND PUSH2 0x31A8 JUMPI PUSH1 0x0 DUP9 DUP2 MSTORE PUSH1 0x17 PUSH1 0x20 MSTORE PUSH1 0x40 SWAP1 KECCAK256 PUSH1 0x2 ADD DUP1 SLOAD PUSH1 0xFF NOT AND PUSH1 0x1 OR SWAP1 SSTORE JUMPDEST PUSH1 0x0 DUP9 DUP2 MSTORE PUSH1 0x18 PUSH1 0x20 SWAP1 DUP2 MSTORE PUSH1 0x40 SWAP2 DUP3 SWAP1 KECCAK256 DUP1 SLOAD PUSH1 0x3 SWAP1 SWAP2 ADD SLOAD DUP4 MLOAD SWAP1 DUP2 MSTORE SWAP3 MLOAD PUSH1 0x1 PUSH1 0x1 PUSH1 0xA0 SHL SUB DUP1 DUP12 AND SWAP5 SWAP3 AND SWAP3 DUP13 SWAP3 PUSH32 0x88863D5E20F64464B554931394E2E4B6F09C10015147215BF26B3BA5070ACEBE SWAP3 SWAP1 DUP2 SWAP1 SUB SWAP1 SWAP2 ADD SWAP1 LOG4 PUSH1 0x0 DUP9 DUP2 MSTORE PUSH1 0x18 PUSH1 0x20 SWAP1 DUP2 MSTORE PUSH1 0x40 SWAP2 DUP3 SWAP1 KECCAK256 DUP1 SLOAD PUSH1 0x3 SWAP1 SWAP2 ADD SLOAD PUSH1 0x12 SLOAD DUP5 MLOAD SWAP2 DUP3 MSTORE SWAP3 DUP2 ADD SWAP3 SWAP1 SWAP3 MSTORE DUP2 DUP4 ADD DUP9 SWAP1 MSTORE SWAP2 MLOAD PUSH1 0x1 PUSH1 0x1 PUSH1 0xA0 SHL SUB SWAP1 SWAP3 AND SWAP2 DUP11 SWAP2 PUSH32 0xEF7A63D352D8B0F42E35D7F8BD277BA75BA2FF721A50EAAD4C62F1EE6561D5EB SWAP2 SWAP1 DUP2 SWAP1 SUB PUSH1 0x60 ADD SWAP1 LOG3 PUSH1 0x0 PUSH2 0x327A DUP10 PUSH2 0x1B8D JUMP JUMPDEST PUSH1 0x40 DUP1 MLOAD PUSH1 0x1 PUSH1 0x1 PUSH1 0xA0 SHL SUB DUP1 DUP5 AND PUSH1 0x24 DUP4 ADD MSTORE DUP11 AND PUSH1 0x44 DUP3 ADD MSTORE PUSH1 0x64 DUP1 DUP3 ADD DUP14 SWAP1 MSTORE DUP3 MLOAD DUP1 DUP4 SUB SWAP1 SWAP2 ADD DUP2 MSTORE PUSH1 0x84 SWAP1 SWAP2 ADD SWAP1 SWAP2 MSTORE PUSH1 0x20 DUP2 ADD DUP1 MLOAD PUSH1 0x1 PUSH1 0x1 PUSH1 0xE0 SHL SUB AND PUSH1 0x1 PUSH1 0xE0 SHL PUSH4 0x23B872DD MUL OR SWAP1 MSTORE SWAP1 SWAP2 POP PUSH2 0x32DA SWAP1 ADDRESS SWAP1 PUSH2 0x3941 JUMP JUMPDEST POP POP POP PUSH1 0x0 DUP7 DUP2 MSTORE PUSH1 0x18 PUSH1 0x20 SWAP1 DUP2 MSTORE PUSH1 0x40 DUP1 DUP4 KECCAK256 PUSH1 0x3 ADD SLOAD PUSH1 0x14 SWAP1 SWAP3 MSTORE SWAP1 SWAP2 KECCAK256 SSTORE POP POP POP POP JUMPDEST PUSH1 0x0 DUP3 DUP2 MSTORE PUSH1 0x18 PUSH1 0x20 SWAP1 DUP2 MSTORE PUSH1 0x40 SWAP2 DUP3 SWAP1 KECCAK256 PUSH1 0x2 DUP2 ADD SLOAD PUSH1 0x3 SWAP1 SWAP2 ADD SLOAD DUP4 MLOAD PUSH1 0x1 PUSH1 0x1 PUSH1 0xA0 SHL SUB SWAP1 SWAP3 AND DUP3 MSTORE SWAP2 DUP2 ADD SWAP2 SWAP1 SWAP2 MSTORE DUP2 MLOAD PUSH32 0xDAEC4582D5D9595688C8C98545FDD1C696D41C6AEAEB636737E84ED2F5C00EDA SWAP3 SWAP2 DUP2 SWAP1 SUB SWAP1 SWAP2 ADD SWAP1 LOG1 PUSH1 0x0 DUP3 DUP2 MSTORE PUSH1 0x18 PUSH1 0x20 SWAP1 DUP2 MSTORE PUSH1 0x40 DUP3 KECCAK256 DUP1 SLOAD PUSH1 0x1 PUSH1 0x1 PUSH1 0xA0 SHL SUB NOT SWAP1 DUP2 AND DUP3 SSTORE PUSH1 0x1 DUP3 ADD DUP5 SWAP1 SSTORE PUSH1 0x2 DUP3 ADD DUP1 SLOAD SWAP1 SWAP2 AND SWAP1 SSTORE PUSH1 0x3 DUP2 ADD DUP4 SWAP1 SSTORE PUSH1 0x4 DUP2 ADD DUP1 SLOAD PUSH1 0xFF NOT AND SWAP1 SSTORE PUSH1 0x5 ADD SWAP2 SWAP1 SWAP2 SSTORE PUSH1 0x17 SWAP1 MSTORE PUSH1 0xF SLOAD DUP2 EQ PUSH2 0x129F JUMPI PUSH1 0x40 DUP1 MLOAD PUSH1 0x1 PUSH1 0xE5 SHL PUSH3 0x461BCD MUL DUP2 MSTORE PUSH1 0x20 PUSH1 0x4 DUP3 ADD MSTORE PUSH1 0x1F PUSH1 0x24 DUP3 ADD MSTORE PUSH1 0x0 DUP1 MLOAD PUSH1 0x20 PUSH2 0x4386 DUP4 CODECOPY DUP2 MLOAD SWAP2 MSTORE PUSH1 0x44 DUP3 ADD MSTORE SWAP1 MLOAD SWAP1 DUP2 SWAP1 SUB PUSH1 0x64 ADD SWAP1 REVERT JUMPDEST PUSH1 0x0 DUP2 DUP2 MSTORE PUSH1 0x18 PUSH1 0x20 MSTORE PUSH1 0x40 DUP2 KECCAK256 PUSH1 0x4 ADD SLOAD PUSH1 0xFF AND DUP1 ISZERO PUSH2 0x3429 JUMPI POP PUSH1 0x0 DUP3 DUP2 MSTORE PUSH1 0x18 PUSH1 0x20 MSTORE PUSH1 0x40 SWAP1 KECCAK256 PUSH1 0x1 ADD SLOAD TIMESTAMP LT ISZERO JUMPDEST DUP1 ISZERO PUSH2 0x1DF9 JUMPI POP PUSH1 0x0 DUP3 DUP2 MSTORE PUSH1 0x18 PUSH1 0x20 MSTORE PUSH1 0x40 SWAP1 KECCAK256 PUSH1 0x5 DUP2 ADD SLOAD PUSH1 0x3 SWAP1 SWAP2 ADD SLOAD LT ISZERO DUP1 PUSH2 0x1DF9 JUMPI POP PUSH1 0x0 DUP3 DUP2 MSTORE PUSH1 0x18 PUSH1 0x20 MSTORE PUSH1 0x40 SWAP1 KECCAK256 PUSH1 0x3 ADD SLOAD PUSH2 0x150D JUMPI POP PUSH1 0x1 PUSH2 0x104A JUMP JUMPDEST PUSH1 0x0 DUP2 DUP2 MSTORE PUSH1 0x15 PUSH1 0x20 MSTORE PUSH1 0x40 DUP2 KECCAK256 SLOAD DUP2 SWAP1 DUP2 SWAP1 ISZERO PUSH2 0x34A0 JUMPI POP POP POP PUSH1 0x0 DUP2 DUP2 MSTORE PUSH1 0x15 PUSH1 0x20 MSTORE PUSH1 0x40 DUP2 KECCAK256 SLOAD SWAP1 DUP1 PUSH2 0x128E JUMP JUMPDEST PUSH1 0x0 DUP5 DUP2 MSTORE PUSH1 0x18 PUSH1 0x20 MSTORE PUSH1 0x40 SWAP1 KECCAK256 PUSH1 0x3 ADD SLOAD ISZERO PUSH2 0x34D2 JUMPI POP POP POP PUSH1 0x0 DUP2 DUP2 MSTORE PUSH1 0x18 PUSH1 0x20 MSTORE PUSH1 0x40 DUP2 KECCAK256 PUSH1 0x3 ADD SLOAD DUP2 PUSH2 0x128E JUMP JUMPDEST POP POP POP PUSH1 0x0 SWAP1 DUP2 MSTORE PUSH1 0x14 PUSH1 0x20 MSTORE PUSH1 0x40 DUP2 KECCAK256 SLOAD SWAP1 SWAP2 DUP3 SWAP2 SWAP1 JUMP JUMPDEST PUSH1 0x1 PUSH1 0x1 PUSH1 0xA0 SHL SUB SWAP2 DUP3 AND PUSH1 0x0 SWAP1 DUP2 MSTORE PUSH1 0x4 PUSH1 0x20 SWAP1 DUP2 MSTORE PUSH1 0x40 DUP1 DUP4 KECCAK256 SWAP4 SWAP1 SWAP5 AND DUP3 MSTORE SWAP2 SWAP1 SWAP2 MSTORE KECCAK256 SLOAD PUSH1 0xFF AND SWAP1 JUMP JUMPDEST PUSH1 0xD SLOAD PUSH1 0x0 SWAP1 PUSH1 0xFF AND DUP1 PUSH2 0x3531 JUMPI POP PUSH2 0x3531 CALLER PUSH2 0x2022 JUMP JUMPDEST SWAP1 POP SWAP1 JUMP JUMPDEST PUSH1 0x0 DUP2 DUP2 MSTORE PUSH1 0x18 PUSH1 0x20 MSTORE PUSH1 0x40 DUP2 KECCAK256 PUSH1 0x4 ADD SLOAD PUSH1 0xFF AND DUP1 ISZERO PUSH2 0x3583 JUMPI POP PUSH1 0x0 DUP3 DUP2 MSTORE PUSH1 0x18 PUSH1 0x20 MSTORE PUSH1 0x40 SWAP1 KECCAK256 PUSH1 0x1 ADD SLOAD TIMESTAMP LT DUP1 ISZERO SWAP1 PUSH2 0x3583 JUMPI POP PUSH1 0x0 DUP3 DUP2 MSTORE PUSH1 0x18 PUSH1 0x20 MSTORE PUSH1 0x40 SWAP1 KECCAK256 PUSH1 0x3 ADD SLOAD ISZERO ISZERO JUMPDEST ISZERO PUSH2 0x363F JUMPI PUSH1 0x0 DUP3 DUP2 MSTORE PUSH1 0x18 PUSH1 0x20 MSTORE PUSH1 0x40 DUP1 DUP3 KECCAK256 PUSH1 0x2 DUP2 ADD SLOAD PUSH1 0x3 SWAP1 SWAP2 ADD SLOAD SWAP2 MLOAD PUSH1 0x1 PUSH1 0x1 PUSH1 0xA0 SHL SUB SWAP1 SWAP2 AND SWAP2 SWAP1 DUP4 DUP2 DUP2 DUP2 DUP6 DUP8 GAS CALL SWAP3 POP POP POP RETURNDATASIZE DUP1 PUSH1 0x0 DUP2 EQ PUSH2 0x35E9 JUMPI PUSH1 0x40 MLOAD SWAP2 POP PUSH1 0x1F NOT PUSH1 0x3F RETURNDATASIZE ADD AND DUP3 ADD PUSH1 0x40 MSTORE RETURNDATASIZE DUP3 MSTORE RETURNDATASIZE PUSH1 0x0 PUSH1 0x20 DUP5 ADD RETURNDATACOPY PUSH2 0x35EE JUMP JUMPDEST PUSH1 0x60 SWAP2 POP JUMPDEST POP POP SWAP1 POP DUP1 PUSH2 0x363D JUMPI PUSH1 0x40 DUP1 MLOAD PUSH1 0x1 PUSH1 0xE5 SHL PUSH3 0x461BCD MUL DUP2 MSTORE PUSH1 0x20 PUSH1 0x4 DUP3 ADD MSTORE PUSH1 0x10 PUSH1 0x24 DUP3 ADD MSTORE PUSH1 0x1 PUSH1 0x81 SHL PUSH16 0x2A3930B739B332B9103330B4B632B217 MUL PUSH1 0x44 DUP3 ADD MSTORE SWAP1 MLOAD SWAP1 DUP2 SWAP1 SUB PUSH1 0x64 ADD SWAP1 REVERT JUMPDEST POP JUMPDEST PUSH1 0x0 SWAP2 DUP3 MSTORE PUSH1 0x18 PUSH1 0x20 MSTORE PUSH1 0x40 DUP3 KECCAK256 DUP1 SLOAD PUSH1 0x1 PUSH1 0x1 PUSH1 0xA0 SHL SUB NOT SWAP1 DUP2 AND DUP3 SSTORE PUSH1 0x1 DUP3 ADD DUP5 SWAP1 SSTORE PUSH1 0x2 DUP3 ADD DUP1 SLOAD SWAP1 SWAP2 AND SWAP1 SSTORE PUSH1 0x3 DUP2 ADD DUP4 SWAP1 SSTORE PUSH1 0x4 DUP2 ADD DUP1 SLOAD PUSH1 0xFF NOT AND SWAP1 SSTORE PUSH1 0x5 ADD SWAP2 SWAP1 SWAP2 SSTORE SWAP1 JUMP JUMPDEST PUSH1 0x0 SWAP1 DUP2 MSTORE PUSH1 0x1 PUSH1 0x20 MSTORE PUSH1 0x40 SWAP1 KECCAK256 SLOAD PUSH1 0x1 PUSH1 0x1 PUSH1 0xA0 SHL SUB AND ISZERO ISZERO SWAP1 JUMP JUMPDEST PUSH2 0x36B2 DUP3 PUSH2 0x368C JUMP JUMPDEST PUSH2 0x36F0 JUMPI PUSH1 0x40 MLOAD PUSH1 0x1 PUSH1 0xE5 SHL PUSH3 0x461BCD MUL DUP2 MSTORE PUSH1 0x4 ADD DUP1 DUP1 PUSH1 0x20 ADD DUP3 DUP2 SUB DUP3 MSTORE PUSH1 0x2C DUP2 MSTORE PUSH1 0x20 ADD DUP1 PUSH2 0x46D8 PUSH1 0x2C SWAP2 CODECOPY PUSH1 0x40 ADD SWAP2 POP POP PUSH1 0x40 MLOAD DUP1 SWAP2 SUB SWAP1 REVERT JUMPDEST PUSH1 0x0 DUP3 DUP2 MSTORE PUSH1 0xB PUSH1 0x20 SWAP1 DUP2 MSTORE PUSH1 0x40 SWAP1 SWAP2 KECCAK256 DUP3 MLOAD PUSH2 0x1360 SWAP3 DUP5 ADD SWAP1 PUSH2 0x4298 JUMP JUMPDEST PUSH1 0x0 PUSH2 0x371A DUP3 PUSH2 0x368C JUMP JUMPDEST PUSH2 0x3758 JUMPI PUSH1 0x40 MLOAD PUSH1 0x1 PUSH1 0xE5 SHL PUSH3 0x461BCD MUL DUP2 MSTORE PUSH1 0x4 ADD DUP1 DUP1 PUSH1 0x20 ADD DUP3 DUP2 SUB DUP3 MSTORE PUSH1 0x2C DUP2 MSTORE PUSH1 0x20 ADD DUP1 PUSH2 0x451B PUSH1 0x2C SWAP2 CODECOPY PUSH1 0x40 ADD SWAP2 POP POP PUSH1 0x40 MLOAD DUP1 SWAP2 SUB SWAP1 REVERT JUMPDEST PUSH1 0x0 PUSH2 0x3763 DUP4 PUSH2 0x1B8D JUMP JUMPDEST SWAP1 POP DUP1 PUSH1 0x1 PUSH1 0x1 PUSH1 0xA0 SHL SUB AND DUP5 PUSH1 0x1 PUSH1 0x1 PUSH1 0xA0 SHL SUB AND EQ DUP1 PUSH2 0x379E JUMPI POP DUP4 PUSH1 0x1 PUSH1 0x1 PUSH1 0xA0 SHL SUB AND PUSH2 0x3793 DUP5 PUSH2 0x10E6 JUMP JUMPDEST PUSH1 0x1 PUSH1 0x1 PUSH1 0xA0 SHL SUB AND EQ JUMPDEST DUP1 PUSH2 0x37AE JUMPI POP PUSH2 0x37AE DUP2 DUP6 PUSH2 0x34EB JUMP JUMPDEST SWAP5 SWAP4 POP POP POP POP JUMP JUMPDEST PUSH2 0x37C1 DUP4 DUP4 DUP4 PUSH2 0x3D55 JUMP JUMPDEST PUSH2 0x37CB DUP4 DUP3 PUSH2 0x3E9F JUMP JUMPDEST PUSH2 0x1360 DUP3 DUP3 PUSH2 0x3F94 JUMP JUMPDEST PUSH2 0x37DF DUP3 DUP3 PUSH2 0x3FD2 JUMP JUMPDEST PUSH2 0x37E9 DUP3 DUP3 PUSH2 0x3F94 JUMP JUMPDEST PUSH2 0x129F DUP2 PUSH2 0x4109 JUMP JUMPDEST PUSH1 0x0 DUP2 EXTCODEHASH PUSH32 0xC5D2460186F7233C927E7DB2DCC703C0E500B653CA82273B7BFAD8045D85A470 DUP2 ISZERO DUP1 ISZERO SWAP1 PUSH2 0x37AE JUMPI POP EQ ISZERO SWAP3 SWAP2 POP POP JUMP JUMPDEST SLOAD SWAP1 JUMP JUMPDEST PUSH1 0x1 PUSH1 0x1 PUSH1 0xA0 SHL SUB AND PUSH1 0x0 SWAP1 DUP2 MSTORE PUSH1 0x5 PUSH1 0x20 MSTORE PUSH1 0x40 SWAP1 KECCAK256 SWAP1 JUMP JUMPDEST PUSH2 0x3858 PUSH1 0xC DUP3 PUSH4 0xFFFFFFFF PUSH2 0x414D AND JUMP JUMPDEST PUSH1 0x40 MLOAD PUSH1 0x1 PUSH1 0x1 PUSH1 0xA0 SHL SUB DUP3 AND SWAP1 PUSH32 0x6AE172837EA30B801FBFCDD4108AA1D5BF8FF775444FD70256B44E6BF3DFC3F6 SWAP1 PUSH1 0x0 SWAP1 LOG2 POP JUMP JUMPDEST PUSH2 0x38A0 PUSH1 0xC DUP3 PUSH4 0xFFFFFFFF PUSH2 0x41D1 AND JUMP JUMPDEST PUSH1 0x40 MLOAD PUSH1 0x1 PUSH1 0x1 PUSH1 0xA0 SHL SUB DUP3 AND SWAP1 PUSH32 0xE94479A9F7E1952CC78F2D6BAAB678ADC1B772D936C6583DEF489E524CB66692 SWAP1 PUSH1 0x0 SWAP1 LOG2 POP JUMP JUMPDEST PUSH1 0x0 PUSH1 0x1 PUSH1 0x1 PUSH1 0xA0 SHL SUB DUP3 AND PUSH2 0x3921 JUMPI PUSH1 0x40 MLOAD PUSH1 0x1 PUSH1 0xE5 SHL PUSH3 0x461BCD MUL DUP2 MSTORE PUSH1 0x4 ADD DUP1 DUP1 PUSH1 0x20 ADD DUP3 DUP2 SUB DUP3 MSTORE PUSH1 0x22 DUP2 MSTORE PUSH1 0x20 ADD DUP1 PUSH2 0x4704 PUSH1 0x22 SWAP2 CODECOPY PUSH1 0x40 ADD SWAP2 POP POP PUSH1 0x40 MLOAD DUP1 SWAP2 SUB SWAP1 REVERT JUMPDEST POP PUSH1 0x1 PUSH1 0x1 PUSH1 0xA0 SHL SUB AND PUSH1 0x0 SWAP1 DUP2 MSTORE PUSH1 0x20 SWAP2 SWAP1 SWAP2 MSTORE PUSH1 0x40 SWAP1 KECCAK256 SLOAD PUSH1 0xFF AND SWAP1 JUMP JUMPDEST PUSH2 0x3953 DUP3 PUSH1 0x1 PUSH1 0x1 PUSH1 0xA0 SHL SUB AND PUSH2 0x37F2 JUMP JUMPDEST PUSH2 0x39A7 JUMPI PUSH1 0x40 DUP1 MLOAD PUSH1 0x1 PUSH1 0xE5 SHL PUSH3 0x461BCD MUL DUP2 MSTORE PUSH1 0x20 PUSH1 0x4 DUP3 ADD DUP2 SWAP1 MSTORE PUSH1 0x24 DUP3 ADD MSTORE PUSH32 0x536166654552433732313A2063616C6C20746F206E6F6E2D636F6E7472616374 PUSH1 0x44 DUP3 ADD MSTORE SWAP1 MLOAD SWAP1 DUP2 SWAP1 SUB PUSH1 0x64 ADD SWAP1 REVERT JUMPDEST PUSH1 0x0 PUSH1 0x60 DUP4 PUSH1 0x1 PUSH1 0x1 PUSH1 0xA0 SHL SUB AND DUP4 PUSH1 0x40 MLOAD DUP1 DUP3 DUP1 MLOAD SWAP1 PUSH1 0x20 ADD SWAP1 DUP1 DUP4 DUP4 JUMPDEST PUSH1 0x20 DUP4 LT PUSH2 0x39E5 JUMPI DUP1 MLOAD DUP3 MSTORE PUSH1 0x1F NOT SWAP1 SWAP3 ADD SWAP2 PUSH1 0x20 SWAP2 DUP3 ADD SWAP2 ADD PUSH2 0x39C6 JUMP JUMPDEST PUSH1 0x1 DUP4 PUSH1 0x20 SUB PUSH2 0x100 EXP SUB DUP1 NOT DUP3 MLOAD AND DUP2 DUP5 MLOAD AND DUP1 DUP3 OR DUP6 MSTORE POP POP POP POP POP POP SWAP1 POP ADD SWAP2 POP POP PUSH1 0x0 PUSH1 0x40 MLOAD DUP1 DUP4 SUB DUP2 PUSH1 0x0 DUP7 GAS CALL SWAP2 POP POP RETURNDATASIZE DUP1 PUSH1 0x0 DUP2 EQ PUSH2 0x3A47 JUMPI PUSH1 0x40 MLOAD SWAP2 POP PUSH1 0x1F NOT PUSH1 0x3F RETURNDATASIZE ADD AND DUP3 ADD PUSH1 0x40 MSTORE RETURNDATASIZE DUP3 MSTORE RETURNDATASIZE PUSH1 0x0 PUSH1 0x20 DUP5 ADD RETURNDATACOPY PUSH2 0x3A4C JUMP JUMPDEST PUSH1 0x60 SWAP2 POP JUMPDEST POP SWAP2 POP SWAP2 POP DUP2 PUSH2 0x3A90 JUMPI PUSH1 0x40 MLOAD PUSH1 0x1 PUSH1 0xE5 SHL PUSH3 0x461BCD MUL DUP2 MSTORE PUSH1 0x4 ADD DUP1 DUP1 PUSH1 0x20 ADD DUP3 DUP2 SUB DUP3 MSTORE PUSH1 0x21 DUP2 MSTORE PUSH1 0x20 ADD DUP1 PUSH2 0x45D2 PUSH1 0x21 SWAP2 CODECOPY PUSH1 0x40 ADD SWAP2 POP POP PUSH1 0x40 MLOAD DUP1 SWAP2 SUB SWAP1 REVERT JUMPDEST DUP1 MLOAD ISZERO PUSH2 0x253C JUMPI DUP1 DUP1 PUSH1 0x20 ADD SWAP1 MLOAD PUSH1 0x20 DUP2 LT ISZERO PUSH2 0x3AAC JUMPI PUSH1 0x0 DUP1 REVERT JUMPDEST POP MLOAD PUSH2 0x253C JUMPI PUSH1 0x40 MLOAD PUSH1 0x1 PUSH1 0xE5 SHL PUSH3 0x461BCD MUL DUP2 MSTORE PUSH1 0x4 ADD DUP1 DUP1 PUSH1 0x20 ADD DUP3 DUP2 SUB DUP3 MSTORE PUSH1 0x2B DUP2 MSTORE PUSH1 0x20 ADD DUP1 PUSH2 0x486D PUSH1 0x2B SWAP2 CODECOPY PUSH1 0x40 ADD SWAP2 POP POP PUSH1 0x40 MLOAD DUP1 SWAP2 SUB SWAP1 REVERT JUMPDEST PUSH1 0x0 PUSH2 0x3B00 DUP5 PUSH1 0x1 PUSH1 0x1 PUSH1 0xA0 SHL SUB AND PUSH2 0x37F2 JUMP JUMPDEST PUSH2 0x3B0C JUMPI POP PUSH1 0x1 PUSH2 0x37AE JUMP JUMPDEST PUSH1 0x40 MLOAD PUSH1 0x1 PUSH1 0xE1 SHL PUSH4 0xA85BD01 MUL DUP2 MSTORE CALLER PUSH1 0x4 DUP3 ADD DUP2 DUP2 MSTORE PUSH1 0x1 PUSH1 0x1 PUSH1 0xA0 SHL SUB DUP9 DUP2 AND PUSH1 0x24 DUP6 ADD MSTORE PUSH1 0x44 DUP5 ADD DUP8 SWAP1 MSTORE PUSH1 0x80 PUSH1 0x64 DUP6 ADD SWAP1 DUP2 MSTORE DUP7 MLOAD PUSH1 0x84 DUP7 ADD MSTORE DUP7 MLOAD PUSH1 0x0 SWAP6 SWAP3 DUP11 AND SWAP5 PUSH4 0x150B7A02 SWAP5 SWAP1 SWAP4 DUP13 SWAP4 DUP12 SWAP4 DUP12 SWAP4 SWAP3 PUSH1 0xA4 ADD SWAP1 PUSH1 0x20 DUP6 ADD SWAP1 DUP1 DUP4 DUP4 DUP15 JUMPDEST DUP4 DUP2 LT ISZERO PUSH2 0x3B89 JUMPI DUP2 DUP2 ADD MLOAD DUP4 DUP3 ADD MSTORE PUSH1 0x20 ADD PUSH2 0x3B71 JUMP JUMPDEST POP POP POP POP SWAP1 POP SWAP1 DUP2 ADD SWAP1 PUSH1 0x1F AND DUP1 ISZERO PUSH2 0x3BB6 JUMPI DUP1 DUP3 SUB DUP1 MLOAD PUSH1 0x1 DUP4 PUSH1 0x20 SUB PUSH2 0x100 EXP SUB NOT AND DUP2 MSTORE PUSH1 0x20 ADD SWAP2 POP JUMPDEST POP SWAP6 POP POP POP POP POP POP PUSH1 0x20 PUSH1 0x40 MLOAD DUP1 DUP4 SUB DUP2 PUSH1 0x0 DUP8 DUP1 EXTCODESIZE ISZERO DUP1 ISZERO PUSH2 0x3BD8 JUMPI PUSH1 0x0 DUP1 REVERT JUMPDEST POP GAS CALL ISZERO DUP1 ISZERO PUSH2 0x3BEC JUMPI RETURNDATASIZE PUSH1 0x0 DUP1 RETURNDATACOPY RETURNDATASIZE PUSH1 0x0 REVERT JUMPDEST POP POP POP POP PUSH1 0x40 MLOAD RETURNDATASIZE PUSH1 0x20 DUP2 LT ISZERO PUSH2 0x3C02 JUMPI PUSH1 0x0 DUP1 REVERT JUMPDEST POP MLOAD PUSH1 0x1 PUSH1 0x1 PUSH1 0xE0 SHL SUB NOT AND PUSH1 0x1 PUSH1 0xE1 SHL PUSH4 0xA85BD01 MUL EQ SWAP2 POP POP SWAP5 SWAP4 POP POP POP POP JUMP JUMPDEST PUSH1 0x0 DUP3 PUSH2 0x3C34 JUMPI POP PUSH1 0x0 PUSH2 0x1307 JUMP JUMPDEST DUP3 DUP3 MUL DUP3 DUP5 DUP3 DUP2 PUSH2 0x3C41 JUMPI INVALID JUMPDEST DIV EQ PUSH2 0x3C81 JUMPI PUSH1 0x40 MLOAD PUSH1 0x1 PUSH1 0xE5 SHL PUSH3 0x461BCD MUL DUP2 MSTORE PUSH1 0x4 ADD DUP1 DUP1 PUSH1 0x20 ADD DUP3 DUP2 SUB DUP3 MSTORE PUSH1 0x21 DUP2 MSTORE PUSH1 0x20 ADD DUP1 PUSH2 0x468B PUSH1 0x21 SWAP2 CODECOPY PUSH1 0x40 ADD SWAP2 POP POP PUSH1 0x40 MLOAD DUP1 SWAP2 SUB SWAP1 REVERT JUMPDEST SWAP4 SWAP3 POP POP POP JUMP JUMPDEST PUSH1 0x0 DUP1 DUP3 GT PUSH2 0x3CE1 JUMPI PUSH1 0x40 DUP1 MLOAD PUSH1 0x1 PUSH1 0xE5 SHL PUSH3 0x461BCD MUL DUP2 MSTORE PUSH1 0x20 PUSH1 0x4 DUP3 ADD MSTORE PUSH1 0x1A PUSH1 0x24 DUP3 ADD MSTORE PUSH32 0x536166654D6174683A206469766973696F6E206279207A65726F000000000000 PUSH1 0x44 DUP3 ADD MSTORE SWAP1 MLOAD SWAP1 DUP2 SWAP1 SUB PUSH1 0x64 ADD SWAP1 REVERT JUMPDEST PUSH1 0x0 DUP3 DUP5 DUP2 PUSH2 0x3CEC JUMPI INVALID JUMPDEST DIV SWAP5 SWAP4 POP POP POP POP JUMP JUMPDEST PUSH1 0x0 DUP3 DUP3 GT ISZERO PUSH2 0x3D4F JUMPI PUSH1 0x40 DUP1 MLOAD PUSH1 0x1 PUSH1 0xE5 SHL PUSH3 0x461BCD MUL DUP2 MSTORE PUSH1 0x20 PUSH1 0x4 DUP3 ADD MSTORE PUSH1 0x1E PUSH1 0x24 DUP3 ADD MSTORE PUSH32 0x536166654D6174683A207375627472616374696F6E206F766572666C6F770000 PUSH1 0x44 DUP3 ADD MSTORE SWAP1 MLOAD SWAP1 DUP2 SWAP1 SUB PUSH1 0x64 ADD SWAP1 REVERT JUMPDEST POP SWAP1 SUB SWAP1 JUMP JUMPDEST DUP3 PUSH1 0x1 PUSH1 0x1 PUSH1 0xA0 SHL SUB AND PUSH2 0x3D68 DUP3 PUSH2 0x1B8D JUMP JUMPDEST PUSH1 0x1 PUSH1 0x1 PUSH1 0xA0 SHL SUB AND EQ PUSH2 0x3DB0 JUMPI PUSH1 0x40 MLOAD PUSH1 0x1 PUSH1 0xE5 SHL PUSH3 0x461BCD MUL DUP2 MSTORE PUSH1 0x4 ADD DUP1 DUP1 PUSH1 0x20 ADD DUP3 DUP2 SUB DUP3 MSTORE PUSH1 0x29 DUP2 MSTORE PUSH1 0x20 ADD DUP1 PUSH2 0x4726 PUSH1 0x29 SWAP2 CODECOPY PUSH1 0x40 ADD SWAP2 POP POP PUSH1 0x40 MLOAD DUP1 SWAP2 SUB SWAP1 REVERT JUMPDEST PUSH1 0x1 PUSH1 0x1 PUSH1 0xA0 SHL SUB DUP3 AND PUSH2 0x3DF8 JUMPI PUSH1 0x40 MLOAD PUSH1 0x1 PUSH1 0xE5 SHL PUSH3 0x461BCD MUL DUP2 MSTORE PUSH1 0x4 ADD DUP1 DUP1 PUSH1 0x20 ADD DUP3 DUP2 SUB DUP3 MSTORE PUSH1 0x24 DUP2 MSTORE PUSH1 0x20 ADD DUP1 PUSH2 0x44C0 PUSH1 0x24 SWAP2 CODECOPY PUSH1 0x40 ADD SWAP2 POP POP PUSH1 0x40 MLOAD DUP1 SWAP2 SUB SWAP1 REVERT JUMPDEST PUSH2 0x3E01 DUP2 PUSH2 0x423B JUMP JUMPDEST PUSH1 0x1 PUSH1 0x1 PUSH1 0xA0 SHL SUB DUP4 AND PUSH1 0x0 SWAP1 DUP2 MSTORE PUSH1 0x3 PUSH1 0x20 MSTORE PUSH1 0x40 SWAP1 KECCAK256 PUSH2 0x3E22 SWAP1 PUSH2 0x4278 JUMP JUMPDEST PUSH1 0x1 PUSH1 0x1 PUSH1 0xA0 SHL SUB DUP3 AND PUSH1 0x0 SWAP1 DUP2 MSTORE PUSH1 0x3 PUSH1 0x20 MSTORE PUSH1 0x40 SWAP1 KECCAK256 PUSH2 0x3E43 SWAP1 PUSH2 0x428F JUMP JUMPDEST PUSH1 0x0 DUP2 DUP2 MSTORE PUSH1 0x1 PUSH1 0x20 MSTORE PUSH1 0x40 DUP1 DUP3 KECCAK256 DUP1 SLOAD PUSH1 0x1 PUSH1 0x1 PUSH1 0xA0 SHL SUB NOT AND PUSH1 0x1 PUSH1 0x1 PUSH1 0xA0 SHL SUB DUP7 DUP2 AND SWAP2 DUP3 OR SWAP1 SWAP3 SSTORE SWAP2 MLOAD DUP5 SWAP4 SWAP2 DUP8 AND SWAP2 PUSH32 0xDDF252AD1BE2C89B69C2B068FC378DAA952BA7F163C4A11628F55A4DF523B3EF SWAP2 LOG4 POP POP POP JUMP JUMPDEST PUSH1 0x1 PUSH1 0x1 PUSH1 0xA0 SHL SUB DUP3 AND PUSH1 0x0 SWAP1 DUP2 MSTORE PUSH1 0x5 PUSH1 0x20 MSTORE PUSH1 0x40 DUP2 KECCAK256 SLOAD PUSH2 0x3EC9 SWAP1 PUSH1 0x1 PUSH4 0xFFFFFFFF PUSH2 0x3CF5 AND JUMP JUMPDEST PUSH1 0x0 DUP4 DUP2 MSTORE PUSH1 0x6 PUSH1 0x20 MSTORE PUSH1 0x40 SWAP1 KECCAK256 SLOAD SWAP1 SWAP2 POP DUP1 DUP3 EQ PUSH2 0x3F64 JUMPI PUSH1 0x1 PUSH1 0x1 PUSH1 0xA0 SHL SUB DUP5 AND PUSH1 0x0 SWAP1 DUP2 MSTORE PUSH1 0x5 PUSH1 0x20 MSTORE PUSH1 0x40 DUP2 KECCAK256 DUP1 SLOAD DUP5 SWAP1 DUP2 LT PUSH2 0x3F06 JUMPI INVALID JUMPDEST SWAP1 PUSH1 0x0 MSTORE PUSH1 0x20 PUSH1 0x0 KECCAK256 ADD SLOAD SWAP1 POP DUP1 PUSH1 0x5 PUSH1 0x0 DUP8 PUSH1 0x1 PUSH1 0x1 PUSH1 0xA0 SHL SUB AND PUSH1 0x1 PUSH1 0x1 PUSH1 0xA0 SHL SUB AND DUP2 MSTORE PUSH1 0x20 ADD SWAP1 DUP2 MSTORE PUSH1 0x20 ADD PUSH1 0x0 KECCAK256 DUP4 DUP2 SLOAD DUP2 LT PUSH2 0x3F44 JUMPI INVALID JUMPDEST PUSH1 0x0 SWAP2 DUP3 MSTORE PUSH1 0x20 DUP1 DUP4 KECCAK256 SWAP1 SWAP2 ADD SWAP3 SWAP1 SWAP3 SSTORE SWAP2 DUP3 MSTORE PUSH1 0x6 SWAP1 MSTORE PUSH1 0x40 SWAP1 KECCAK256 DUP2 SWAP1 SSTORE JUMPDEST PUSH1 0x1 PUSH1 0x1 PUSH1 0xA0 SHL SUB DUP5 AND PUSH1 0x0 SWAP1 DUP2 MSTORE PUSH1 0x5 PUSH1 0x20 MSTORE PUSH1 0x40 SWAP1 KECCAK256 DUP1 SLOAD SWAP1 PUSH2 0x3F8D SWAP1 PUSH1 0x0 NOT DUP4 ADD PUSH2 0x4316 JUMP JUMPDEST POP POP POP POP POP JUMP JUMPDEST PUSH1 0x1 PUSH1 0x1 PUSH1 0xA0 SHL SUB SWAP1 SWAP2 AND PUSH1 0x0 SWAP1 DUP2 MSTORE PUSH1 0x5 PUSH1 0x20 DUP2 DUP2 MSTORE PUSH1 0x40 DUP1 DUP5 KECCAK256 DUP1 SLOAD DUP7 DUP7 MSTORE PUSH1 0x6 DUP5 MSTORE SWAP2 DUP6 KECCAK256 DUP3 SWAP1 SSTORE SWAP3 DUP3 MSTORE PUSH1 0x1 DUP2 ADD DUP4 SSTORE SWAP2 DUP4 MSTORE SWAP1 SWAP2 KECCAK256 ADD SSTORE JUMP JUMPDEST PUSH1 0x1 PUSH1 0x1 PUSH1 0xA0 SHL SUB DUP3 AND PUSH2 0x4030 JUMPI PUSH1 0x40 DUP1 MLOAD PUSH1 0x1 PUSH1 0xE5 SHL PUSH3 0x461BCD MUL DUP2 MSTORE PUSH1 0x20 PUSH1 0x4 DUP3 ADD DUP2 SWAP1 MSTORE PUSH1 0x24 DUP3 ADD MSTORE PUSH32 0x4552433732313A206D696E7420746F20746865207A65726F2061646472657373 PUSH1 0x44 DUP3 ADD MSTORE SWAP1 MLOAD SWAP1 DUP2 SWAP1 SUB PUSH1 0x64 ADD SWAP1 REVERT JUMPDEST PUSH2 0x4039 DUP2 PUSH2 0x368C JUMP JUMPDEST ISZERO PUSH2 0x408E JUMPI PUSH1 0x40 DUP1 MLOAD PUSH1 0x1 PUSH1 0xE5 SHL PUSH3 0x461BCD MUL DUP2 MSTORE PUSH1 0x20 PUSH1 0x4 DUP3 ADD MSTORE PUSH1 0x1C PUSH1 0x24 DUP3 ADD MSTORE PUSH32 0x4552433732313A20746F6B656E20616C7265616479206D696E74656400000000 PUSH1 0x44 DUP3 ADD MSTORE SWAP1 MLOAD SWAP1 DUP2 SWAP1 SUB PUSH1 0x64 ADD SWAP1 REVERT JUMPDEST PUSH1 0x0 DUP2 DUP2 MSTORE PUSH1 0x1 PUSH1 0x20 SWAP1 DUP2 MSTORE PUSH1 0x40 DUP1 DUP4 KECCAK256 DUP1 SLOAD PUSH1 0x1 PUSH1 0x1 PUSH1 0xA0 SHL SUB NOT AND PUSH1 0x1 PUSH1 0x1 PUSH1 0xA0 SHL SUB DUP8 AND SWAP1 DUP2 OR SWAP1 SWAP2 SSTORE DUP4 MSTORE PUSH1 0x3 SWAP1 SWAP2 MSTORE SWAP1 KECCAK256 PUSH2 0x40CD SWAP1 PUSH2 0x428F JUMP JUMPDEST PUSH1 0x40 MLOAD DUP2 SWAP1 PUSH1 0x1 PUSH1 0x1 PUSH1 0xA0 SHL SUB DUP5 AND SWAP1 PUSH1 0x0 SWAP1 PUSH32 0xDDF252AD1BE2C89B69C2B068FC378DAA952BA7F163C4A11628F55A4DF523B3EF SWAP1 DUP3 SWAP1 LOG4 POP POP JUMP JUMPDEST PUSH1 0x7 DUP1 SLOAD PUSH1 0x0 DUP4 DUP2 MSTORE PUSH1 0x8 PUSH1 0x20 MSTORE PUSH1 0x40 DUP2 KECCAK256 DUP3 SWAP1 SSTORE PUSH1 0x1 DUP3 ADD DUP4 SSTORE SWAP2 SWAP1 SWAP2 MSTORE PUSH32 0xA66CC928B5EDB82AF9BD49922954155AB7B0942694BEA4CE44661D9A8736C688 ADD SSTORE JUMP JUMPDEST PUSH2 0x4157 DUP3 DUP3 PUSH2 0x38D7 JUMP JUMPDEST ISZERO PUSH2 0x41AC JUMPI PUSH1 0x40 DUP1 MLOAD PUSH1 0x1 PUSH1 0xE5 SHL PUSH3 0x461BCD MUL DUP2 MSTORE PUSH1 0x20 PUSH1 0x4 DUP3 ADD MSTORE PUSH1 0x1F PUSH1 0x24 DUP3 ADD MSTORE PUSH32 0x526F6C65733A206163636F756E7420616C72656164792068617320726F6C6500 PUSH1 0x44 DUP3 ADD MSTORE SWAP1 MLOAD SWAP1 DUP2 SWAP1 SUB PUSH1 0x64 ADD SWAP1 REVERT JUMPDEST PUSH1 0x1 PUSH1 0x1 PUSH1 0xA0 SHL SUB AND PUSH1 0x0 SWAP1 DUP2 MSTORE PUSH1 0x20 SWAP2 SWAP1 SWAP2 MSTORE PUSH1 0x40 SWAP1 KECCAK256 DUP1 SLOAD PUSH1 0xFF NOT AND PUSH1 0x1 OR SWAP1 SSTORE JUMP JUMPDEST PUSH2 0x41DB DUP3 DUP3 PUSH2 0x38D7 JUMP JUMPDEST PUSH2 0x4219 JUMPI PUSH1 0x40 MLOAD PUSH1 0x1 PUSH1 0xE5 SHL PUSH3 0x461BCD MUL DUP2 MSTORE PUSH1 0x4 ADD DUP1 DUP1 PUSH1 0x20 ADD DUP3 DUP2 SUB DUP3 MSTORE PUSH1 0x21 DUP2 MSTORE PUSH1 0x20 ADD DUP1 PUSH2 0x4623 PUSH1 0x21 SWAP2 CODECOPY PUSH1 0x40 ADD SWAP2 POP POP PUSH1 0x40 MLOAD DUP1 SWAP2 SUB SWAP1 REVERT JUMPDEST PUSH1 0x1 PUSH1 0x1 PUSH1 0xA0 SHL SUB AND PUSH1 0x0 SWAP1 DUP2 MSTORE PUSH1 0x20 SWAP2 SWAP1 SWAP2 MSTORE PUSH1 0x40 SWAP1 KECCAK256 DUP1 SLOAD PUSH1 0xFF NOT AND SWAP1 SSTORE JUMP JUMPDEST PUSH1 0x0 DUP2 DUP2 MSTORE PUSH1 0x2 PUSH1 0x20 MSTORE PUSH1 0x40 SWAP1 KECCAK256 SLOAD PUSH1 0x1 PUSH1 0x1 PUSH1 0xA0 SHL SUB AND ISZERO PUSH2 0x4275 JUMPI PUSH1 0x0 DUP2 DUP2 MSTORE PUSH1 0x2 PUSH1 0x20 MSTORE PUSH1 0x40 SWAP1 KECCAK256 DUP1 SLOAD PUSH1 0x1 PUSH1 0x1 PUSH1 0xA0 SHL SUB NOT AND SWAP1 SSTORE JUMPDEST POP JUMP JUMPDEST DUP1 SLOAD PUSH2 0x428B SWAP1 PUSH1 0x1 PUSH4 0xFFFFFFFF PUSH2 0x3CF5 AND JUMP JUMPDEST SWAP1 SSTORE JUMP JUMPDEST DUP1 SLOAD PUSH1 0x1 ADD SWAP1 SSTORE JUMP JUMPDEST DUP3 DUP1 SLOAD PUSH1 0x1 DUP2 PUSH1 0x1 AND ISZERO PUSH2 0x100 MUL SUB AND PUSH1 0x2 SWAP1 DIV SWAP1 PUSH1 0x0 MSTORE PUSH1 0x20 PUSH1 0x0 KECCAK256 SWAP1 PUSH1 0x1F ADD PUSH1 0x20 SWAP1 DIV DUP2 ADD SWAP3 DUP3 PUSH1 0x1F LT PUSH2 0x42D9 JUMPI DUP1 MLOAD PUSH1 0xFF NOT AND DUP4 DUP1 ADD OR DUP6 SSTORE PUSH2 0x4306 JUMP JUMPDEST DUP3 DUP1 ADD PUSH1 0x1 ADD DUP6 SSTORE DUP3 ISZERO PUSH2 0x4306 JUMPI SWAP2 DUP3 ADD JUMPDEST DUP3 DUP2 GT ISZERO PUSH2 0x4306 JUMPI DUP3 MLOAD DUP3 SSTORE SWAP2 PUSH1 0x20 ADD SWAP2 SWAP1 PUSH1 0x1 ADD SWAP1 PUSH2 0x42EB JUMP JUMPDEST POP PUSH2 0x4312 SWAP3 SWAP2 POP PUSH2 0x4336 JUMP JUMPDEST POP SWAP1 JUMP JUMPDEST DUP2 SLOAD DUP2 DUP4 SSTORE DUP2 DUP2 GT ISZERO PUSH2 0x1360 JUMPI PUSH1 0x0 DUP4 DUP2 MSTORE PUSH1 0x20 SWAP1 KECCAK256 PUSH2 0x1360 SWAP2 DUP2 ADD SWAP1 DUP4 ADD JUMPDEST PUSH2 0x10E3 SWAP2 SWAP1 JUMPDEST DUP1 DUP3 GT ISZERO PUSH2 0x4312 JUMPI PUSH1 0x0 DUP2 SSTORE PUSH1 0x1 ADD PUSH2 0x433C JUMP INVALID GASLIMIT MSTORE NUMBER CALLDATACOPY ORIGIN BALANCE 0x4d PUSH2 0x7463 PUSH9 0x613A20546865207365 PUSH13 0x6563746564204E465420616C72 PUSH6 0x616479206861 PUSH20 0x20616E2061756374696F6E5265656E7472616E63 PUSH26 0x47756172643A207265656E7472616E742063616C6C005472616E PUSH20 0x666572206661696C65642073656E64696E672074 PUSH16 0x206F776E65722E4552433732314D6174 PUSH4 0x68613A20 0x4f PUSH15 0x6C79206F776E65722063616E206175 PUSH4 0x74696F6E KECCAK256 PUSH21 0x686973206974656D455243373231456E756D657261 PUSH3 0x6C653A KECCAK256 PUSH16 0x776E657220696E646578206F7574206F PUSH7 0x20626F756E6473 GASLIMIT MSTORE NUMBER CALLDATACOPY ORIGIN BALANCE GASPRICE KECCAK256 PUSH21 0x72616E7366657220746F206E6F6E20455243373231 MSTORE PUSH6 0x636569766572 KECCAK256 PUSH10 0x6D706C656D656E746572 SLOAD PUSH19 0x616E73666572206661696C65642073656E6469 PUSH15 0x6720746F206172746973742E455243 CALLDATACOPY ORIGIN BALANCE 0x4d PUSH2 0x7463 PUSH9 0x613A204F6E6C79206F PUSH24 0x6E65722063616E2073656C6C2074686973206974656D5472 PUSH2 0x6E73 PUSH7 0x6572206661696C PUSH6 0x642E2073656E PUSH5 0x696E672074 PUSH16 0x2061646D696E4552433732313A207472 PUSH2 0x6E73 PUSH7 0x657220746F2074 PUSH9 0x65207A65726F206164 PUSH5 0x7265737345 MSTORE NUMBER CALLDATACOPY ORIGIN BALANCE 0x4d PUSH2 0x7463 PUSH9 0x613A20546865207365 PUSH13 0x6C65722063616E6E6F74206275 PUSH26 0x20686973206F776E20636F6C6C65637469626C65455243373231 GASPRICE KECCAK256 PUSH16 0x70657261746F7220717565727920666F PUSH19 0x206E6F6E6578697374656E7420746F6B656E45 MSTORE NUMBER CALLDATACOPY ORIGIN BALANCE GASPRICE KECCAK256 PUSH2 0x7070 PUSH19 0x6F76652063616C6C6572206973206E6F74206F PUSH24 0x6E6572206E6F7220617070726F76656420666F7220616C6C GASLIMIT MSTORE NUMBER CALLDATACOPY ORIGIN BALANCE GASPRICE KECCAK256 PUSH3 0x616C61 PUSH15 0x636520717565727920666F72207468 PUSH6 0x207A65726F20 PUSH2 0x6464 PUSH19 0x6573734552433732313A206F776E6572207175 PUSH6 0x727920666F72 KECCAK256 PUSH15 0x6F6E6578697374656E7420746F6B65 PUSH15 0x536166654552433732313A206C6F77 0x2d PUSH13 0x6576656C2063616C6C20666169 PUSH13 0x65644D696E746572526F6C653A KECCAK256 PUSH4 0x616C6C65 PUSH19 0x20646F6573206E6F7420686176652074686520 0x4d PUSH10 0x6E74657220726F6C6552 PUSH16 0x6C65733A206163636F756E7420646F65 PUSH20 0x206E6F74206861766520726F6C6543616C6C6572 KECCAK256 PUSH10 0x73206E6F742074686520 PUSH2 0x7274 PUSH10 0x7374206F6620746F6B65 PUSH15 0x70657263656E746167652053686F75 PUSH13 0x64206265206265747765656E20 ADDRESS KECCAK256 PUSH2 0x6E64 KECCAK256 BALANCE ADDRESS KECCAK256 MSTORE8 PUSH2 0x6665 0x4d PUSH2 0x7468 GASPRICE KECCAK256 PUSH14 0x756C7469706C69636174696F6E20 PUSH16 0x766572666C6F774552433732313A2061 PUSH17 0x70726F76656420717565727920666F7220 PUSH15 0x6F6E6578697374656E7420746F6B65 PUSH15 0x4552433732314D657461646174613A KECCAK256 SSTORE MSTORE 0x49 KECCAK256 PUSH20 0x6574206F66206E6F6E6578697374656E7420746F PUSH12 0x656E526F6C65733A20616363 PUSH16 0x756E7420697320746865207A65726F20 PUSH2 0x6464 PUSH19 0x6573734552433732313A207472616E73666572 KECCAK256 PUSH16 0x6620746F6B656E207468617420697320 PUSH15 0x6F74206F776E4552433732314D6574 PUSH2 0x6461 PUSH21 0x613A2055524920717565727920666F72206E6F6E65 PUSH25 0x697374656E7420746F6B656E4552433732314D61746368613A KECCAK256 SLOAD PUSH9 0x652073656C65637465 PUSH5 0x204E465420 PUSH10 0x73206F70656E20666F72 KECCAK256 PUSH20 0x616C652C2063616E6E6F74206265206175637469 PUSH16 0x6E65644552433732313A20617070726F PUSH23 0x616C20746F2063757272656E74206F776E657245524337 ORIGIN BALANCE 0x4d PUSH2 0x7463 PUSH9 0x613A2054686520636F PUSH13 0x6C65637469626C65206973206E PUSH16 0x7420666F722073616C65455243373231 GASPRICE KECCAK256 PUSH21 0x72616E736665722063616C6C6572206973206E6F74 KECCAK256 PUSH16 0x776E6572206E6F7220617070726F7665 PUSH5 0x4552433732 BALANCE GASLIMIT PUSH15 0x756D657261626C653A20676C6F6261 PUSH13 0x20696E646578206F7574206F66 KECCAK256 PUSH3 0x6F756E PUSH5 0x7353616665 GASLIMIT MSTORE NUMBER CALLDATACOPY ORIGIN BALANCE GASPRICE KECCAK256 GASLIMIT MSTORE NUMBER ORIGIN ADDRESS KECCAK256 PUSH16 0x7065726174696F6E20646964206E6F74 KECCAK256 PUSH20 0x7563636565644552433732314D61746368613A20 NUMBER PUSH2 0x6E6E PUSH16 0x742073656C6C20616E206974656D2077 PUSH9 0x696368206861732061 PUSH15 0x206163746976652061756374696F6E GASLIMIT MSTORE NUMBER CALLDATACOPY ORIGIN BALANCE 0x4d PUSH2 0x7463 PUSH9 0x613A20546865206F77 PUSH15 0x65722063616E6E6F74206269642068 PUSH10 0x73206F776E20636F6C6C PUSH6 0x637469626C65 LOG1 PUSH6 0x627A7A723058 KECCAK256 0xe8 0xd8 SLT MSTORE8 CALL SWAP4 SWAP12 0xd9 SWAP13 SWAP2 0x24 0xdb DUP16 SUB 0x46 PUSH21 0x38184CD39E2C1B0C8B88A7C51D5BC71E0029455243 CALLDATACOPY ORIGIN BALANCE 0x4d PUSH2 0x7463 PUSH9 0x613A20436F6D6D6973 PUSH20 0x696F6E20726174652068617320746F2062652062 PUSH6 0x747765656E20 ADDRESS KECCAK256 PUSH2 0x6E64 KECCAK256 BALANCE ADDRESS ADDRESS MSTORE PUSH16 0x6C65733A206163636F756E7420697320 PUSH21 0x6865207A65726F2061646472657373000000000000 "
		},
		"gasEstimates": {
			"creation": {
				"codeDepositCost": "3748400",
				"executionCost": "infinite",
				"totalCost": "infinite"
			},
			"external": {
				"addMinter(address)": "infinite",
				"anyoneCanMint()": "543",
				"approve(address,uint256)": "infinite",
				"auctionFinalize(uint256)": "22081",
				"auctions(uint256)": "1834",
				"autoMint(string,address)": "infinite",
				"autodo(string,uint256)": "infinite",
				"balanceOf(address)": "infinite",
				"bid(uint256)": "infinite",
				"buy(uint256)": "infinite",
				"buyWithShib(uint256,uint256)": "infinite",
				"canAuction(uint256)": "infinite",
				"canBid(uint256)": "infinite",
				"canBuy(uint256)": "infinite",
				"canFinalize(uint256)": "1786",
				"canIMint()": "infinite",
				"canSell(uint256)": "infinite",
				"canWithdraw(uint256)": "infinite",
				"checkRoyalti(uint256)": "1179",
				"contract_owner()": "483",
				"createAuction(uint256,uint256,address,uint256)": "infinite",
				"exists(uint256)": "644",
				"getApproved(uint256)": "infinite",
				"getPrice(uint256)": "1238",
				"highestBid(uint256)": "557",
				"highestBidder(uint256)": "685",
				"isApprovedForAll(address,address)": "750",
				"isMinter(address)": "infinite",
				"mint(address,uint256)": "infinite",
				"mintWithTokenURI(address,uint256,string)": "infinite",
				"name()": "infinite",
				"ownerOf(uint256)": "infinite",
				"renounceMinter()": "infinite",
				"safeTransferFrom(address,address,uint256)": "infinite",
				"safeTransferFrom(address,address,uint256,bytes)": "infinite",
				"sell(uint256,uint256,address)": "infinite",
				"sellBidPrice(uint256)": "552",
				"setApprovalForAll(address,bool)": "22590",
				"setTokenURI(uint256,string)": "infinite",
				"soldFor(uint256)": "618",
				"supportsInterface(bytes4)": "619",
				"symbol()": "infinite",
				"tokenByIndex(uint256)": "infinite",
				"tokenOfOwnerByIndex(address,uint256)": "infinite",
				"tokenURI(uint256)": "infinite",
				"tokensOfOwner(address)": "infinite",
				"totalSupply()": "466",
				"transfer(address,uint256)": "infinite",
				"transferFrom(address,address,uint256)": "infinite",
				"updateAdmin(address,uint256,bool)": "61128",
				"updateRoyalti(uint256,uint256)": "infinite"
			},
			"internal": {
				"callOptionalReturn(contract IERC721,bytes memory)": "infinite"
			}
		},
		"methodIdentifiers": {
			"addMinter(address)": "983b2d56",
			"anyoneCanMint()": "b13fbe96",
			"approve(address,uint256)": "095ea7b3",
			"auctionFinalize(uint256)": "dc16bd43",
			"auctions(uint256)": "571a26a0",
			"autoMint(string,address)": "61a09c97",
			"autodo(string,uint256)": "7c0df779",
			"balanceOf(address)": "70a08231",
			"bid(uint256)": "454a2ab3",
			"buy(uint256)": "d96a094a",
			"buyWithShib(uint256,uint256)": "ac2ccfae",
			"canAuction(uint256)": "1ac70f6f",
			"canBid(uint256)": "89f4c0b1",
			"canBuy(uint256)": "3ca88a2f",
			"canFinalize(uint256)": "e4e2bfe4",
			"canIMint()": "ee1b59e4",
			"canSell(uint256)": "b2ecfad4",
			"canWithdraw(uint256)": "fbe85f06",
			"checkRoyalti(uint256)": "0d4578e3",
			"contract_owner()": "384f58eb",
			"createAuction(uint256,uint256,address,uint256)": "b1cb48ef",
			"exists(uint256)": "4f558e79",
			"getApproved(uint256)": "081812fc",
			"getPrice(uint256)": "e7572230",
			"highestBid(uint256)": "b14c63c5",
			"highestBidder(uint256)": "451df52e",
			"isApprovedForAll(address,address)": "e985e9c5",
			"isMinter(address)": "aa271e1a",
			"mint(address,uint256)": "40c10f19",
			"mintWithTokenURI(address,uint256,string)": "50bb4e7f",
			"name()": "06fdde03",
			"ownerOf(uint256)": "6352211e",
			"renounceMinter()": "98650275",
			"safeTransferFrom(address,address,uint256)": "42842e0e",
			"safeTransferFrom(address,address,uint256,bytes)": "b88d4fde",
			"sell(uint256,uint256,address)": "d04c6983",
			"sellBidPrice(uint256)": "172b099d",
			"setApprovalForAll(address,bool)": "a22cb465",
			"setTokenURI(uint256,string)": "162094c4",
			"soldFor(uint256)": "a36b1462",
			"supportsInterface(bytes4)": "01ffc9a7",
			"symbol()": "95d89b41",
			"tokenByIndex(uint256)": "4f6ccce7",
			"tokenOfOwnerByIndex(address,uint256)": "2f745c59",
			"tokenURI(uint256)": "c87b56dd",
			"tokensOfOwner(address)": "8462151c",
			"totalSupply()": "18160ddd",
			"transfer(address,uint256)": "a9059cbb",
			"transferFrom(address,address,uint256)": "23b872dd",
			"updateAdmin(address,uint256,bool)": "263f5877",
			"updateRoyalti(uint256,uint256)": "9e0c8976"
		}
	},
	"abi": [
		{
			"constant": true,
			"inputs": [
				{
					"name": "interfaceId",
					"type": "bytes4"
				}
			],
			"name": "supportsInterface",
			"outputs": [
				{
					"name": "",
					"type": "bool"
				}
			],
			"payable": false,
			"stateMutability": "view",
			"type": "function"
		},
		{
			"constant": true,
			"inputs": [],
			"name": "name",
			"outputs": [
				{
					"name": "",
					"type": "string"
				}
			],
			"payable": false,
			"stateMutability": "view",
			"type": "function"
		},
		{
			"constant": true,
			"inputs": [
				{
					"name": "tokenId",
					"type": "uint256"
				}
			],
			"name": "getApproved",
			"outputs": [
				{
					"name": "",
					"type": "address"
				}
			],
			"payable": false,
			"stateMutability": "view",
			"type": "function"
		},
		{
			"constant": false,
			"inputs": [
				{
					"name": "to",
					"type": "address"
				},
				{
					"name": "tokenId",
					"type": "uint256"
				}
			],
			"name": "approve",
			"outputs": [],
			"payable": false,
			"stateMutability": "nonpayable",
			"type": "function"
		},
		{
			"constant": true,
			"inputs": [
				{
					"name": "id",
					"type": "uint256"
				}
			],
			"name": "checkRoyalti",
			"outputs": [
				{
					"name": "",
					"type": "address"
				},
				{
					"name": "",
					"type": "uint256"
				},
				{
					"name": "",
					"type": "bool"
				}
			],
			"payable": false,
			"stateMutability": "view",
			"type": "function"
		},
		{
			"constant": false,
			"inputs": [
				{
					"name": "tokenId",
					"type": "uint256"
				},
				{
					"name": "uri",
					"type": "string"
				}
			],
			"name": "setTokenURI",
			"outputs": [],
			"payable": false,
			"stateMutability": "nonpayable",
			"type": "function"
		},
		{
			"constant": true,
			"inputs": [
				{
					"name": "",
					"type": "uint256"
				}
			],
			"name": "sellBidPrice",
			"outputs": [
				{
					"name": "",
					"type": "uint256"
				}
			],
			"payable": false,
			"stateMutability": "view",
			"type": "function"
		},
		{
			"constant": true,
			"inputs": [],
			"name": "totalSupply",
			"outputs": [
				{
					"name": "",
					"type": "uint256"
				}
			],
			"payable": false,
			"stateMutability": "view",
			"type": "function"
		},
		{
			"constant": true,
			"inputs": [
				{
					"name": "tokenId",
					"type": "uint256"
				}
			],
			"name": "canAuction",
			"outputs": [
				{
					"name": "",
					"type": "bool"
				}
			],
			"payable": false,
			"stateMutability": "view",
			"type": "function"
		},
		{
			"constant": false,
			"inputs": [
				{
					"name": "from",
					"type": "address"
				},
				{
					"name": "to",
					"type": "address"
				},
				{
					"name": "tokenId",
					"type": "uint256"
				}
			],
			"name": "transferFrom",
			"outputs": [],
			"payable": false,
			"stateMutability": "nonpayable",
			"type": "function"
		},
		{
			"constant": false,
			"inputs": [
				{
					"name": "_admin",
					"type": "address"
				},
				{
					"name": "_commissionRate",
					"type": "uint256"
				},
				{
					"name": "_anyoneCanMint",
					"type": "bool"
				}
			],
			"name": "updateAdmin",
			"outputs": [],
			"payable": false,
			"stateMutability": "nonpayable",
			"type": "function"
		},
		{
			"constant": true,
			"inputs": [
				{
					"name": "owner",
					"type": "address"
				},
				{
					"name": "index",
					"type": "uint256"
				}
			],
			"name": "tokenOfOwnerByIndex",
			"outputs": [
				{
					"name": "",
					"type": "uint256"
				}
			],
			"payable": false,
			"stateMutability": "view",
			"type": "function"
		},
		{
			"constant": true,
			"inputs": [],
			"name": "contract_owner",
			"outputs": [
				{
					"name": "",
					"type": "address"
				}
			],
			"payable": false,
			"stateMutability": "view",
			"type": "function"
		},
		{
			"constant": true,
			"inputs": [
				{
					"name": "tokenId",
					"type": "uint256"
				}
			],
			"name": "canBuy",
			"outputs": [
				{
					"name": "",
					"type": "uint256"
				}
			],
			"payable": false,
			"stateMutability": "view",
			"type": "function"
		},
		{
			"constant": false,
			"inputs": [
				{
					"name": "to",
					"type": "address"
				},
				{
					"name": "tokenId",
					"type": "uint256"
				}
			],
			"name": "mint",
			"outputs": [
				{
					"name": "",
					"type": "bool"
				}
			],
			"payable": false,
			"stateMutability": "nonpayable",
			"type": "function"
		},
		{
			"constant": false,
			"inputs": [
				{
					"name": "from",
					"type": "address"
				},
				{
					"name": "to",
					"type": "address"
				},
				{
					"name": "tokenId",
					"type": "uint256"
				}
			],
			"name": "safeTransferFrom",
			"outputs": [],
			"payable": false,
			"stateMutability": "nonpayable",
			"type": "function"
		},
		{
			"constant": true,
			"inputs": [
				{
					"name": "tokenId",
					"type": "uint256"
				}
			],
			"name": "highestBidder",
			"outputs": [
				{
					"name": "",
					"type": "address"
				}
			],
			"payable": false,
			"stateMutability": "view",
			"type": "function"
		},
		{
			"constant": false,
			"inputs": [
				{
					"name": "tokenId",
					"type": "uint256"
				}
			],
			"name": "bid",
			"outputs": [],
			"payable": true,
			"stateMutability": "payable",
			"type": "function"
		},
		{
			"constant": true,
			"inputs": [
				{
					"name": "tokenId",
					"type": "uint256"
				}
			],
			"name": "exists",
			"outputs": [
				{
					"name": "",
					"type": "bool"
				}
			],
			"payable": false,
			"stateMutability": "view",
			"type": "function"
		},
		{
			"constant": true,
			"inputs": [
				{
					"name": "index",
					"type": "uint256"
				}
			],
			"name": "tokenByIndex",
			"outputs": [
				{
					"name": "",
					"type": "uint256"
				}
			],
			"payable": false,
			"stateMutability": "view",
			"type": "function"
		},
		{
			"constant": false,
			"inputs": [
				{
					"name": "to",
					"type": "address"
				},
				{
					"name": "tokenId",
					"type": "uint256"
				},
				{
					"name": "tokenURI",
					"type": "string"
				}
			],
			"name": "mintWithTokenURI",
			"outputs": [
				{
					"name": "",
					"type": "bool"
				}
			],
			"payable": false,
			"stateMutability": "nonpayable",
			"type": "function"
		},
		{
			"constant": true,
			"inputs": [
				{
					"name": "",
					"type": "uint256"
				}
			],
			"name": "auctions",
			"outputs": [
				{
					"name": "beneficiary",
					"type": "address"
				},
				{
					"name": "auctionEnd",
					"type": "uint256"
				},
				{
					"name": "highestBidder",
					"type": "address"
				},
				{
					"name": "highestBid",
					"type": "uint256"
				},
				{
					"name": "open",
					"type": "bool"
				},
				{
					"name": "reserve",
					"type": "uint256"
				}
			],
			"payable": false,
			"stateMutability": "view",
			"type": "function"
		},
		{
			"constant": false,
			"inputs": [
				{
					"name": "tokenURI",
					"type": "string"
				},
				{
					"name": "to",
					"type": "address"
				}
			],
			"name": "autoMint",
			"outputs": [
				{
					"name": "",
					"type": "bool"
				}
			],
			"payable": false,
			"stateMutability": "nonpayable",
			"type": "function"
		},
		{
			"constant": true,
			"inputs": [
				{
					"name": "tokenId",
					"type": "uint256"
				}
			],
			"name": "ownerOf",
			"outputs": [
				{
					"name": "",
					"type": "address"
				}
			],
			"payable": false,
			"stateMutability": "view",
			"type": "function"
		},
		{
			"constant": true,
			"inputs": [
				{
					"name": "owner",
					"type": "address"
				}
			],
			"name": "balanceOf",
			"outputs": [
				{
					"name": "",
					"type": "uint256"
				}
			],
			"payable": false,
			"stateMutability": "view",
			"type": "function"
		},
		{
			"constant": false,
			"inputs": [
				{
					"name": "tokenUri",
					"type": "string"
				},
				{
					"name": "percentage",
					"type": "uint256"
				}
			],
			"name": "autodo",
			"outputs": [],
			"payable": false,
			"stateMutability": "nonpayable",
			"type": "function"
		},
		{
			"constant": true,
			"inputs": [
				{
					"name": "owner",
					"type": "address"
				}
			],
			"name": "tokensOfOwner",
			"outputs": [
				{
					"name": "",
					"type": "uint256[]"
				}
			],
			"payable": false,
			"stateMutability": "view",
			"type": "function"
		},
		{
			"constant": true,
			"inputs": [
				{
					"name": "tokenId",
					"type": "uint256"
				}
			],
			"name": "canBid",
			"outputs": [
				{
					"name": "",
					"type": "bool"
				}
			],
			"payable": false,
			"stateMutability": "view",
			"type": "function"
		},
		{
			"constant": true,
			"inputs": [],
			"name": "symbol",
			"outputs": [
				{
					"name": "",
					"type": "string"
				}
			],
			"payable": false,
			"stateMutability": "view",
			"type": "function"
		},
		{
			"constant": false,
			"inputs": [
				{
					"name": "account",
					"type": "address"
				}
			],
			"name": "addMinter",
			"outputs": [],
			"payable": false,
			"stateMutability": "nonpayable",
			"type": "function"
		},
		{
			"constant": false,
			"inputs": [],
			"name": "renounceMinter",
			"outputs": [],
			"payable": false,
			"stateMutability": "nonpayable",
			"type": "function"
		},
		{
			"constant": false,
			"inputs": [
				{
					"name": "amount",
					"type": "uint256"
				},
				{
					"name": "tokenId",
					"type": "uint256"
				}
			],
			"name": "updateRoyalti",
			"outputs": [
				{
					"name": "success",
					"type": "bool"
				}
			],
			"payable": false,
			"stateMutability": "nonpayable",
			"type": "function"
		},
		{
			"constant": false,
			"inputs": [
				{
					"name": "to",
					"type": "address"
				},
				{
					"name": "approved",
					"type": "bool"
				}
			],
			"name": "setApprovalForAll",
			"outputs": [],
			"payable": false,
			"stateMutability": "nonpayable",
			"type": "function"
		},
		{
			"constant": true,
			"inputs": [
				{
					"name": "",
					"type": "uint256"
				}
			],
			"name": "soldFor",
			"outputs": [
				{
					"name": "",
					"type": "uint256"
				}
			],
			"payable": false,
			"stateMutability": "view",
			"type": "function"
		},
		{
			"constant": false,
			"inputs": [
				{
					"name": "to",
					"type": "address"
				},
				{
					"name": "tokenId",
					"type": "uint256"
				}
			],
			"name": "transfer",
			"outputs": [],
			"payable": false,
			"stateMutability": "nonpayable",
			"type": "function"
		},
		{
			"constant": true,
			"inputs": [
				{
					"name": "account",
					"type": "address"
				}
			],
			"name": "isMinter",
			"outputs": [
				{
					"name": "",
					"type": "bool"
				}
			],
			"payable": false,
			"stateMutability": "view",
			"type": "function"
		},
		{
			"constant": false,
			"inputs": [
				{
					"name": "tokenId",
					"type": "uint256"
				},
				{
					"name": "_amount",
					"type": "uint256"
				}
			],
			"name": "buyWithShib",
			"outputs": [],
			"payable": false,
			"stateMutability": "nonpayable",
			"type": "function"
		},
		{
			"constant": true,
			"inputs": [],
			"name": "anyoneCanMint",
			"outputs": [
				{
					"name": "",
					"type": "bool"
				}
			],
			"payable": false,
			"stateMutability": "view",
			"type": "function"
		},
		{
			"constant": true,
			"inputs": [
				{
					"name": "tokenId",
					"type": "uint256"
				}
			],
			"name": "highestBid",
			"outputs": [
				{
					"name": "",
					"type": "uint256"
				}
			],
			"payable": false,
			"stateMutability": "view",
			"type": "function"
		},
		{
			"constant": false,
			"inputs": [
				{
					"name": "tokenId",
					"type": "uint256"
				},
				{
					"name": "_closingTime",
					"type": "uint256"
				},
				{
					"name": "_beneficiary",
					"type": "address"
				},
				{
					"name": "_reservePrice",
					"type": "uint256"
				}
			],
			"name": "createAuction",
			"outputs": [],
			"payable": false,
			"stateMutability": "nonpayable",
			"type": "function"
		},
		{
			"constant": true,
			"inputs": [
				{
					"name": "tokenId",
					"type": "uint256"
				}
			],
			"name": "canSell",
			"outputs": [
				{
					"name": "",
					"type": "bool"
				}
			],
			"payable": false,
			"stateMutability": "view",
			"type": "function"
		},
		{
			"constant": false,
			"inputs": [
				{
					"name": "from",
					"type": "address"
				},
				{
					"name": "to",
					"type": "address"
				},
				{
					"name": "tokenId",
					"type": "uint256"
				},
				{
					"name": "_data",
					"type": "bytes"
				}
			],
			"name": "safeTransferFrom",
			"outputs": [],
			"payable": false,
			"stateMutability": "nonpayable",
			"type": "function"
		},
		{
			"constant": true,
			"inputs": [
				{
					"name": "tokenId",
					"type": "uint256"
				}
			],
			"name": "tokenURI",
			"outputs": [
				{
					"name": "",
					"type": "string"
				}
			],
			"payable": false,
			"stateMutability": "view",
			"type": "function"
		},
		{
			"constant": false,
			"inputs": [
				{
					"name": "tokenId",
					"type": "uint256"
				},
				{
					"name": "price",
					"type": "uint256"
				},
				{
					"name": "wallet",
					"type": "address"
				}
			],
			"name": "sell",
			"outputs": [],
			"payable": false,
			"stateMutability": "nonpayable",
			"type": "function"
		},
		{
			"constant": false,
			"inputs": [
				{
					"name": "tokenId",
					"type": "uint256"
				}
			],
			"name": "buy",
			"outputs": [],
			"payable": true,
			"stateMutability": "payable",
			"type": "function"
		},
		{
			"constant": false,
			"inputs": [
				{
					"name": "tokenId",
					"type": "uint256"
				}
			],
			"name": "auctionFinalize",
			"outputs": [],
			"payable": false,
			"stateMutability": "nonpayable",
			"type": "function"
		},
		{
			"constant": true,
			"inputs": [
				{
					"name": "tokenId",
					"type": "uint256"
				}
			],
			"name": "canFinalize",
			"outputs": [
				{
					"name": "",
					"type": "bool"
				}
			],
			"payable": false,
			"stateMutability": "view",
			"type": "function"
		},
		{
			"constant": true,
			"inputs": [
				{
					"name": "tokenId",
					"type": "uint256"
				}
			],
			"name": "getPrice",
			"outputs": [
				{
					"name": "",
					"type": "uint256"
				},
				{
					"name": "",
					"type": "uint256"
				},
				{
					"name": "",
					"type": "uint256"
				}
			],
			"payable": false,
			"stateMutability": "view",
			"type": "function"
		},
		{
			"constant": true,
			"inputs": [
				{
					"name": "owner",
					"type": "address"
				},
				{
					"name": "operator",
					"type": "address"
				}
			],
			"name": "isApprovedForAll",
			"outputs": [
				{
					"name": "",
					"type": "bool"
				}
			],
			"payable": false,
			"stateMutability": "view",
			"type": "function"
		},
		{
			"constant": true,
			"inputs": [],
			"name": "canIMint",
			"outputs": [
				{
					"name": "",
					"type": "bool"
				}
			],
			"payable": false,
			"stateMutability": "view",
			"type": "function"
		},
		{
			"constant": false,
			"inputs": [
				{
					"name": "tokenId",
					"type": "uint256"
				}
			],
			"name": "canWithdraw",
			"outputs": [
				{
					"name": "",
					"type": "bool"
				}
			],
			"payable": false,
			"stateMutability": "nonpayable",
			"type": "function"
		},
		{
			"inputs": [
				{
					"name": "_owner",
					"type": "address"
				},
				{
					"name": "_admin",
					"type": "address"
				},
				{
					"name": "_commissionRate",
					"type": "uint256"
				},
				{
					"name": "name",
					"type": "string"
				},
				{
					"name": "symbol",
					"type": "string"
				},
				{
					"name": "_anyoneCanMint",
					"type": "bool"
				},
				{
					"name": "_shibaLite",
					"type": "address"
				}
			],
			"payable": false,
			"stateMutability": "nonpayable",
			"type": "constructor"
		},
		{
			"anonymous": false,
			"inputs": [
				{
					"indexed": true,
					"name": "tokenId",
					"type": "uint256"
				},
				{
					"indexed": true,
					"name": "from",
					"type": "address"
				},
				{
					"indexed": true,
					"name": "to",
					"type": "address"
				},
				{
					"indexed": false,
					"name": "value",
					"type": "uint256"
				}
			],
			"name": "Sale",
			"type": "event"
		},
		{
			"anonymous": false,
			"inputs": [
				{
					"indexed": true,
					"name": "tokenId",
					"type": "uint256"
				},
				{
					"indexed": true,
					"name": "to",
					"type": "address"
				},
				{
					"indexed": false,
					"name": "value",
					"type": "uint256"
				},
				{
					"indexed": false,
					"name": "rate",
					"type": "uint256"
				},
				{
					"indexed": false,
					"name": "total",
					"type": "uint256"
				}
			],
			"name": "Commission",
			"type": "event"
		},
		{
			"anonymous": false,
			"inputs": [
				{
					"indexed": false,
					"name": "bidder",
					"type": "address"
				},
				{
					"indexed": false,
					"name": "amount",
					"type": "uint256"
				}
			],
			"name": "Refund",
			"type": "event"
		},
		{
			"anonymous": false,
			"inputs": [
				{
					"indexed": true,
					"name": "bidder",
					"type": "address"
				},
				{
					"indexed": false,
					"name": "amount",
					"type": "uint256"
				},
				{
					"indexed": false,
					"name": "tokenId",
					"type": "uint256"
				}
			],
			"name": "HighestBidIncreased",
			"type": "event"
		},
		{
			"anonymous": false,
			"inputs": [
				{
					"indexed": false,
					"name": "winner",
					"type": "address"
				},
				{
					"indexed": false,
					"name": "amount",
					"type": "uint256"
				}
			],
			"name": "AuctionEnded",
			"type": "event"
		},
		{
			"anonymous": false,
			"inputs": [
				{
					"indexed": true,
					"name": "from",
					"type": "address"
				},
				{
					"indexed": true,
					"name": "to",
					"type": "address"
				},
				{
					"indexed": false,
					"name": "amount",
					"type": "uint256"
				}
			],
			"name": "LimitSell",
			"type": "event"
		},
		{
			"anonymous": false,
			"inputs": [
				{
					"indexed": true,
					"name": "from",
					"type": "address"
				},
				{
					"indexed": true,
					"name": "to",
					"type": "address"
				},
				{
					"indexed": false,
					"name": "amount",
					"type": "uint256"
				}
			],
			"name": "LimitBuy",
			"type": "event"
		},
		{
			"anonymous": false,
			"inputs": [
				{
					"indexed": true,
					"name": "from",
					"type": "address"
				},
				{
					"indexed": true,
					"name": "to",
					"type": "address"
				},
				{
					"indexed": false,
					"name": "amount",
					"type": "uint256"
				}
			],
			"name": "MarketSell",
			"type": "event"
		},
		{
			"anonymous": false,
			"inputs": [
				{
					"indexed": true,
					"name": "from",
					"type": "address"
				},
				{
					"indexed": true,
					"name": "to",
					"type": "address"
				},
				{
					"indexed": false,
					"name": "amount",
					"type": "uint256"
				}
			],
			"name": "MarketBuy",
			"type": "event"
		},
		{
			"anonymous": false,
			"inputs": [
				{
					"indexed": false,
					"name": "artist",
					"type": "address"
				},
				{
					"indexed": false,
					"name": "amount",
					"type": "uint256"
				},
				{
					"indexed": false,
					"name": "tokenId",
					"type": "uint256"
				}
			],
			"name": "RoyalityFee",
			"type": "event"
		},
		{
			"anonymous": false,
			"inputs": [
				{
					"indexed": true,
					"name": "account",
					"type": "address"
				}
			],
			"name": "MinterAdded",
			"type": "event"
		},
		{
			"anonymous": false,
			"inputs": [
				{
					"indexed": true,
					"name": "account",
					"type": "address"
				}
			],
			"name": "MinterRemoved",
			"type": "event"
		},
		{
			"anonymous": false,
			"inputs": [
				{
					"indexed": true,
					"name": "from",
					"type": "address"
				},
				{
					"indexed": true,
					"name": "to",
					"type": "address"
				},
				{
					"indexed": true,
					"name": "tokenId",
					"type": "uint256"
				}
			],
			"name": "Transfer",
			"type": "event"
		},
		{
			"anonymous": false,
			"inputs": [
				{
					"indexed": true,
					"name": "owner",
					"type": "address"
				},
				{
					"indexed": true,
					"name": "approved",
					"type": "address"
				},
				{
					"indexed": true,
					"name": "tokenId",
					"type": "uint256"
				}
			],
			"name": "Approval",
			"type": "event"
		},
		{
			"anonymous": false,
			"inputs": [
				{
					"indexed": true,
					"name": "owner",
					"type": "address"
				},
				{
					"indexed": true,
					"name": "operator",
					"type": "address"
				},
				{
					"indexed": false,
					"name": "approved",
					"type": "bool"
				}
			],
			"name": "ApprovalForAll",
			"type": "event"
		}
	]
}